:020000040800F2
:10000000904300206102000853530008FF4C000891
:1000100051530008FF0D0008EF60000800000000C9
:10002000000000000000000000000000A101000826
:100030004525000800000000FD010008195A0008CD
:100040007B0200087B0200087B0200087B0200089C
:100050007B0200087B0200087B0200087B0200088C
:100060007B0200087B0200081D2B00087B020008B1
:100070007B0200087B0200087B0200087B0200086C
:100080007B0200087B0200087B0200080D0E0008BE
:10009000010E00087B0200087B020008232B0008E9
:1000A0007B020008095B00087B0200087B02000855
:1000B0007B0200087B0200087B0200087B0200082C
:1000C0007B0200087B0200087B0200087B0200081C
:1000D0007B020008C16000087B0200087B02000868
:1000E0007B0200087B0200087B0200087B020008FC
:1000F0007B0200087B0200087B0200087B020008EC
:100100007B0200087B0200087B0200087B020008DB
:100110007B0200087B0200087B0200087B020008CB
:100120007B02000865230008712300087D23000876
:100130007B0200087B0200087B020008250E0008F5
:10014000190E00087B0200087B0200087B020008F1
:100150007B0200087B0200087B020008CD600008DB
:100160007B0200087B0200087B0200087B0200087B
:100170007B0200087B0200087B02000800000000F0
:100180007B0200087B020008DFF810D000F0A2FB21
:1001900000480047156D0008AFF300809043002031
:1001A0002C4B19680868B0E8F04F80F30988BFF35A
:1001B0006F8F4FF0000080F311887047000000003F
:1001C00008480068006880F308884FF0000080F35A
:1001D000148862B661B6BFF34F8FBFF36F8F00DF35
:1001E00000BF00BF08ED00E0DFF80C00016841F43B
:1001F00070010160704700BF88ED00E0EFF30980F7
:10020000BFF36F8F134B1A681EF0100F08BF20ED5D
:10021000108A20E9F04F106009B44FF0500080F3CD
:100220001188BFF34F8FBFF36F8F07F067FC4FF05C
:10023000000080F3118809BC19680868B0E8F04F25
:100240001EF0100F08BFB0EC108A80F30988BFF3CE
:100250006F8F704738010020EFF305807047000072
:100260000648804706480047FEE7FEE7FEE7FEE750
:10027000FEE7FEE7FEE7FEE7FEE7FEE7B55A000809
:10028000890100082DE9F05F0546002092469B4653
:1002900088460646814640241BE02846414647469C
:1002A000224600F0C2F953465A46C01A914110D373
:1002B00011461846224600F0A9F92D1A67EB0108ED
:1002C0004F4622460120002100F0A0F917EB00095B
:1002D0004E41201EA4F10104DFDC484631462A4687
:1002E0004346BDE8F09F40EA01039B0703D009E0C5
:1002F00008C9121F08C0042AFAD203E011F8013B12
:1003000000F8013B521EF9D27047D2B201E000F86A
:10031000012B491EFBD270470022F6E710B51346A9
:100320000A4604461946FFF7F0FF204610BD2DE9A6
:10033000FE4F804681EA0300C00F0C46009021F07A
:10034000004123F00045B8EB0200A94105D2404628
:10035000214690461C460B46024623F000401043BF
:1003600047D0270DC7F30A00C3F30A510290401A81
:10037000019040286BDAC3F3130040F4801B00980F
:10038000924620B10023D2EB030A63EB0B0B0198DA
:100390005946C0F14002504600F038F906460D4675
:1003A00050465946019A00F050F910EB080061419F
:1003B000002487EA115284EAE7731A4340D0009A76
:1003C00062B3019A012A4FEA075215DC001B61EB68
:1003D00002014FF0004202EA0752CDE90042001C40
:1003E00041F5801132462B4600F087F903B0BDE895
:1003F000F08F40462146F9E7001B61EB0201001C2B
:1004000041F5801300185B412018A2F5001747EB57
:10041000030140EAD570B6196D4111E06D084FEA4D
:10042000360645EAC0754FEA0752001B61EB020130
:10043000001C41F5801149084FEA30000019514174
:1004400032462B4603B0BDE8F04F00F047B90098A4
:10045000012240000023D0EB020263EBE07300981E
:1004600021464FEAE074B8EB000061EB0401E9E7D4
:1004700083F000435BE781F0004158E72DE9FE4F30
:1004800081EA030404F0004421F0004100944FF09D
:10049000000B23F0004350EA01045ED052EA03044B
:1004A0005BD0C3F30A54C1F30A552C44A4F2F334CD
:1004B0000194A0FB0254C1F3130141F48011C3F372
:1004C000130343F4801301FB024400FB034E840A30
:1004D000970A44EA815447EA8357A4FB07680295C8
:1004E0008D0A05FB07854FEA932C04FB0C54270566
:1004F000029D4FEA065847EA1637B5EB08056EEB42
:10050000070C870E920E47EA811742EA8312A7FB77
:100510000201B6EB0B0164EB00042B0D43EA0C3334
:100520005E1844EB1C50DA465146E7FB0201C5F366
:1005300013044FEA0B3343EA14534FEA0432019C8D
:1005400043EA0603A4F10C040294009CCDE900B434
:1005500000F0D3F803B0BDE8F08F00200146F9E7C2
:100560000EB5C10F80EAE0700844CA07002140F2CE
:1005700033438DE80E000A460B4600F0BEF803B088
:1005800000BD00F0004230F000400AD0C10D01F57E
:100590006071C0F3160042EA0151C20840071143DE
:1005A000704700200146704701F0004330B421F04D
:1005B000004150EA010206D00A0DA2F56072C1F3B3
:1005C0001301002A02DC30BC00207047440F44EACB
:1005D000C104C100E01830BC00EBC25000F047B8C5
:1005E00030B50B46014600202022012409E021FA03
:1005F00002F59D4205D303FA02F5491B04FA02F500
:100600002844151EA2F10102F1DC30BD202A04DBD2
:10061000203A00FA02F1002070479140C2F1200315
:1006200020FA03F3194390407047202A04DB203A54
:1006300021FA02F00021704721FA02F3D040C2F102
:1006400020029140084319467047202A06DBCB1749
:10065000203A41FA02F043EAE07306E041FA02F37D
:10066000D040C2F12002914008431946704700294A
:10067000A8BF7047401C490008BF20F00100704728
:1006800010B4B0FA80FC00FA0CF050EA010404BF88
:1006900010BC704749B1CCF1200421FA04F411FADE
:1006A0000CF118BF012121430843A3EB0C01CB1D22
:1006B0004FEA00614FEA102042BF002010BC704793
:1006C00000EBC35010440029A4BF10BC7047401C6D
:1006D000490008BF20F0010010BC704710B5141E7F
:1006E00073F1000408DA401C41F1000192185B41EB
:1006F0001A4301D120F0010010BD2DE9F04D9246C2
:100700009B4611B1B1FA81F202E0B0FA80F22032D8
:100710009046FFF77BFF04460F4640EA0A0041EA95
:100720000B0153465A46084313D0114653EA0100C1
:1007300019D0C8F140025046FFF777FF05460E4634
:10074000504659464246FFF761FF084305D0012055
:1007500004E020463946BDE8F08D0020054346EA16
:10076000E0762C4337430A986305E40AA0EB0800BF
:100770000022FD0A44EA47540A3002D5002001460F
:10078000E9E7010510196941DDE9084500196941EA
:10079000BDE8F04DA2E72DE9F04D81EA030404F035
:1007A000004B21F0004514464FF0000A23F00041B1
:1007B00050EA050220D054EA01021DD0C5F30A57C1
:1007C0000246C5F31303C1F31300C1F30A5640F404
:1007D000801543F48013A7EB0608101BD64608F2D9
:1007E000FD3873EB050002D308F1010801E092180F
:1007F0005B41B8F1000F03DA00200146BDE8F08D3F
:1008000000204FF48011064684460EE0171B73EB60
:10081000050705D3121B63EB050306434CEA010CE5
:1008200049084FEA300092185B4150EA0107EDD1C8
:1008300052EA030012D082EA040083EA0501084369
:1008400005D0101BAB4106D20122002306E0002296
:100850004FF0004302E06FF0010253101AEB060064
:100860004CEB085110EB0A0041EB0B01BDE8F04DD9
:10087000FFF734BFC1F30A52C1F3130140F2FF3353
:1008800041F480119A4202DA00200146704740F29A
:1008900033439A42A2F2334202DC5242FFF7C5BE12
:1008A000FFF7B4BE30B5041E71F1000404DB4FF055
:1008B0000044404264EB0101141E73F1000405DBA7
:1008C0001C464FF00043524263EB0403994208BFB9
:1008D000904230BD064C074D06E0E06840F0010351
:1008E00094E8070098471034AC42F6D3FFF750FC69
:1008F000148A0008348A000870B58C1810F8015B5F
:1009000015F0070301D110F8013B2A1106D110F8A8
:10091000012B03E010F8016B01F8016B5B1EF9D1AC
:100920002B0705D40023521E0DD401F8013BFAE732
:1009300010F8013BCB1A921C03E013F8015B01F89D
:10094000015B521EF9D5A142D8D3002070BD000032
:100950002DE9F04F0AACC1EB011C94E8604E642411
:10096000B0FBF4F41D4901F80C400A24B0FBF4F785
:10097000B7FBF4F804FB1877614401F8017FB0FB82
:10098000F4F704FB17004870887862F3020063F301
:10099000C50088704A88099860F389124A80CA782D
:1009A00065F38502CA70B1F8032066F38E12A1F8D0
:1009B00003208A8869F3CF128A80CA886AF3090201
:1009C000CA80B1F807006BF38C00A1F80700088912
:1009D0006EF34F100881BDE8F08F0000331C00203B
:1009E0002DE9F04F9246DDE912426427B2FBF7F79A
:1009F000DDE90B96C1EB011CDDF828E0DDF83CB029
:100A0000119D00F80C700A21B2FBF1F7B7FBF1F869
:100A100001FB1877604400F8017FB2FBF1F701FB9E
:100A20001721417081786AF3020163F3C501817077
:100A30004288099961F389124280C2786EF3850277
:100A4000C270B0F8032069F38E12A0F803208188E9
:100A500066F3CF118180C2880D9961F30902C280CB
:100A6000B0F807200E9961F38C02A0F807200289E4
:100A70006BF34F1202814289109961F3090242819E
:100A8000B0F80B1065F38C01A0F80B10818964F3AA
:100A90004F118181BDE8F08F2DE9F04F9246DDE9DD
:100AA00012426427B2FBF7F7DDE90B96C1EB011C9C
:100AB000DDF828E0DDF83CB0119D00F80C700A214B
:100AC000B2FBF1F7B7FBF1F801FB1877604400F8CF
:100AD000017FB2FBF1F701FB1721417081786AF3C6
:100AE000020163F3C50181704288099961F389129B
:100AF0004280C2786EF38502C270B0F8032069F3B9
:100B00008E12A0F80320818866F3CF118180C288FD
:100B10000D9961F30902C280B0F807200E9961F3C4
:100B20008C02A0F8072002896BF34F1202814289E0
:100B3000109961F309024281B0F80B1065F38C0142
:100B4000A0F80B10818964F34F118181BDE8F08F0B
:100B500030B50C4605000CD0022C0AD90548A11E60
:100B60000288284602F01AF9291901F8020D000A34
:100B7000487030BD7800002030B50C46050008D024
:100B8000022C06D9FF22611E02F01EF9291901F874
:100B9000010C30BD01221021014802F0E1BF00002C
:100BA0000000024000221021014802F0D9BF0000DD
:100BB000000002407047000001221146014802F087
:100BC000CFBF00000004024000220121014802F0D2
:100BD000C7BF000000040240704730B504464FF420
:100BE0007A7502E0284600F004F8641EA4B2F9D237
:100BF00030BD70B54FF0E02400226569A82148435C
:100C0000A169A3698B42FCD002D2A1EB030102E0EF
:100C1000A5EB030631440A4419468242F1D370BD64
:100C200010B5FFF7C7FFFFF7D7FF05F009FF044630
:100C300005F08EFF204310BD2DE9FC410746002042
:100C400016460D4600900190FFF7ACFF922000F091
:100C5000BDF806226946122000F09AF8FFF79AFFC5
:100C60009DF801009DF80010000200B2084300EE5C
:100C7000100A464CB8EEC00AD4ED000A20EE200A55
:100C800085ED000A9DF803009DF80210000200B2F5
:100C9000084300EE100AD4ED000AB8EEC00A20EEB8
:100CA000200A85ED010A9DF805009DF80410000258
:100CB00000B2084300EE100AB8EEC00A20EE200A87
:100CC00085ED020AFFF780FF08226946002000F048
:100CD0005FF8FFF771FF9DF800000F2830D19DF8F5
:100CE00003009DF80210000200B2084300EE100A53
:100CF000D4ED010AB8EEC00A20EE200A87ED000A02
:100D00009DF805009DF80410000200B2084300EEB3
:100D1000100AD4ED010AB8EEC00A20EE200A87EDD1
:100D2000010A9DF807009DF80610000200B2084372
:100D300000EE100AB8EEC00A20EE200A87ED020A83
:100D4000FFF730FFA22000F041F80222694622207E
:100D500000F01EF8FFF71EFF9DF800009DF801103F
:100D6000C00040EA5110B0F5806F01DBA0F50060D3
:100D700000EE100AB4EE001AF8EEC00AB3EE070A4D
:100D800000EE810A86ED000ABDE8FC81B401002076
:100D900070B514460D4640F0800000F017F806E0EC
:100DA000552000F013F8641E05F8010BE4B2002C86
:100DB000F6D170BD10B50C4640F0800000F006F88A
:100DC000552000F003F8207010BD000001B582B07E
:100DD0004FF47A700090012301AA02A9024803F09F
:100DE000C3FA9DF804000EBDEC06002010B50C46B9
:100DF000FFF7ECFF2046BDE81040FFF7E7BFFEE736
:100E0000014802F06AB900009C060020014802F087
:100E100064B900009C060020014802F05EB90000A1
:100E2000C4060020014802F058B90000C4060020A2
:100E300070B50646006814490024012594B0884224
:100E40000CD10A940B940C940D940E940F94CDE94C
:100E500010450AA90D48129502F044F80C49306873
:100E600088420ED10E20CDE90440089501940294E9
:100E700009900094694603940648CDE9064502F0BE
:100E800031F814B070BD0000006400409C060020E2
:100E900000680040C406002010B5044602F0C0FB04
:100EA0000221204601F09EFF2046BDE81040FFF7DA
:100EB000BFBF000000B58BB0012203900020059059
:100EC000069009920820079008788DF8000048786D
:100ED0008DF8010088788DF80200C8788DF803003D
:100EE00008798DF8040048798DF8050088798DF827
:100EF0000600C8798DF8070009AB6A4603A90248C5
:100F000001F082FF0BB000BDC40600202DE9F74FB1
:100F100083465948594F4FF0000AB0E840033879EA
:100F2000FF2802D1504687F804A0C0B2544D401C9F
:100F3000524C3871A52129701A343321218021782F
:100F400069706178A970E87005212846FFF714FEE2
:100F500040F201302080207868716078A8714FF4E9
:100F6000887020802078E87160782872B88F20809F
:100F7000217869726178A97240F4807020802078AD
:100F8000E8726078287305F27F70042101700121F6
:100F9000417080F802A0B0F8031021F4707101F5DF
:100FA000C071A0F80310C178029A62F3020141F007
:100FB0003801C17033490A7B0D2A04D0037923F02C
:100FC0003C031C3306E08B7B002B037923F03C03AE
:100FD0002AD01033037130F8043F142464F38E13C5
:100FE00020F8013B0624038864F3CF130380438871
:100FF0006FF309039B1C4380B0F803406BF38C0430
:10100000A0F803408488019B63F34F1484801C483C
:101010000D30A0F110040D2A08D00F2200F27271D9
:10102000FFF761F940460AE00C33D3E7897B4FF0C4
:101030000F020029144915D0FFF755F948460168F9
:1010400044F81F1F8188A1808079A0713C210C4841
:10105000FFF77EFD03B03C22BDE8F04F08490B4886
:1010600003F02DBEFFF73FF9306844F81F0FB0883A
:10107000A080B079E9E70000088900087C00002022
:10108000C3100020240900204218002084080020FA
:101090002DE9F047444F06469146387A8846FF28A6
:1010A00001D100203872C0B2404D401C3E4C387215
:1010B000A52129701A343321218021786970617843
:1010C000A970E87005212846FFF756FD40F201306F
:1010D0002080207868716078A8714FF48870208033
:1010E0002078E87160782872B88F20802178697242
:1010F0006178A97240F4807020802078E87260786E
:10110000287305F5ED61042001F8010B06220A7031
:10111000092048704888142320F4707000F500708E
:101120004880887869F3020040F038008870C878F9
:1011300020F03C001430C870B1F8030063F38E1047
:10114000A1F80300888862F3CF108880C8886FF305
:101150000900C01CC880B1F8070066F38C00A1F834
:1011600007000A8968F34F120A8105F5ED610F2225
:10117000A1F25B70FFF7B7F804F142000169A5F135
:1011800013000A6840F82F2F4A68426009890181DC
:101190003C212846FFF7DCFC2946BDE8F0473C220D
:1011A000034803F08CBD00007C0000205310002099
:1011B000840800202DE9F04117460C4605462DA66F
:1011C0004FF4887340F2013233212D4804F0C8FDFA
:1011D0002C4808210F2200F8011B042101700A216C
:1011E0004170418821F4707101F50071418081786E
:1011F00067F3020141F038018170C17821F03C01B0
:101200000C31C170B0F8031062F38E11A0F8031016
:101210008188052262F3CF118180C1880F226FF38C
:101220000901C91CC180B0F8071065F38C01A0F852
:101230000710018964F34F11018141896FF309019E
:10124000491C41810F49A1F26B30FFF74CF80C4863
:101250003168C01E40F81F1F716841603C2108487A
:10126000FFF776FCBDE8F0413C220549064803F053
:1012700026BD000053504545442846290000000083
:1012800043140020BB170020840800202DE9F04102
:1012900017460C4605462DA64FF4887340F20132DE
:1012A00033212C4804F05CFD2B480921052200F86D
:1012B000011B0B210270417041880F2321F47071D2
:1012C00001F500714180817867F3020141F0380136
:1012D0008170C17821F03C010C31C170B0F803106D
:1012E00063F38E11A0F80310818862F3CF1181801F
:1012F000C1880F226FF30901C91CC180B0F8071023
:1013000065F38C01A0F80710018964F34F11018186
:1013100041896FF30901491C41810F49A1F2FB206A
:10132000FEF7E1FF0B4831680D3040F80F1FB18820
:101330008180292181713C210648FFF709FCBDE825
:10134000F0413C220349054803F0B9BC54454D50D7
:1013500028462900B3140020BB1700208408002071
:101360002DE9F04117460C4605462BA64FF488732D
:1013700040F2013233212B4804F0F2FC29480D22BF
:10138000B438092100F8012B01700F214170418808
:1013900021F4707101F500714180817867F30201D9
:1013A00041F038018170C17821F03C010C31C170ED
:1013B000B0F8031062F38E11A0F8031081880522A3
:1013C00062F3CF118180C1880F226FF30901C91C1C
:1013D000C180B0F8071065F38C01A0F807100189EF
:1013E00064F34F1101810F49B43901F1C100FEF7D7
:1013F0007AFF0C4831682F3840F84B1F7168416004
:101400003C210848FFF7A4FBBDE8F0413C22054918
:10141000054803F054BC000046554C4C5F564953F8
:10142000000000006F180020840800202DE9F04122
:1014300017460C4605462AA64FF4887340F201323F
:1014400033212A4804F08CFC29480E210D2200F893
:10145000011B0A21017010214170418821F4707133
:1014600001F500714180817867F3020141F0380194
:101470008170C17821F03C010C31C170B0F80310CB
:1014800062F38E11A0F803108188052262F3CF1158
:101490008180C1880F226FF30901C91CC180B0F897
:1014A000071065F38C01A0F80710018964F34F1150
:1014B00001810F4901F23110FEF715FF0B48316829
:1014C0001F3840F83B1F716841603C210748FFF717
:1014D0003FFBBDE8F0413C220449064803F0EFBB66
:1014E00048414C465F56495300000000DF18002079
:1014F000BB170020840800202DE9F04117460C4658
:1015000005462AA64FF4887340F2013233212A4857
:1015100004F026FC29480C210D2200F8011B0821AB
:1015200001700E214170418821F4707101F5007144
:101530004180817867F3020141F038018170C17800
:1015400021F03C010C31C170B0F8031062F38E1130
:10155000A0F803108188052262F3CF118180C18831
:101560000F226FF30901C91CC180B0F8071065F3A1
:101570008C01A0F80710018964F34F1101810F4914
:10158000A1F21B20FEF7AFFE0B483168533840F83C
:101590006F1F716841603C210748FFF7D9FABDE829
:1015A000F0413C220449064803F089BB484F4953A7
:1015B000542020200000000093150020BB170020BD
:1015C000840800202DE9F04117460C4605462AA65E
:1015D0004FF4887340F2013233212A4804F0C0FBF3
:1015E000294807210D2200F8011B03210170092160
:1015F0004170418821F4707101F50071418081785A
:1016000067F3020141F038018170C17821F03C019B
:101610000C31C170B0F8031062F38E11A0F8031002
:101620008188052262F3CF118180C1880F226FF378
:101630000901C91CC180B0F8071065F38C01A0F83E
:101640000710018964F34F1101810F49A1F2DB30CA
:10165000FEF749FE0B483168133840F82F1F7168B8
:1016600041603C210748FFF773FABDE8F0413C2296
:101670000449064803F023BB4D414E55414C202000
:1016800000000000D3130020BB17002084080020B6
:101690002DE9F04117460C4605462AA64FF48873FB
:1016A00040F2013233212A4804F05AFB29480B2129
:1016B0000D2200F8011B072101704270418821F4BE
:1016C000707101F500714180817867F3020141F08A
:1016D00038018170C17821F03C010C31C170B0F843
:1016E000031062F38E11A0F803108188052262F3C3
:1016F000CF118180C1880F226FF30901C91CC180FD
:10170000B0F8071065F38C01A0F80710018964F3A5
:101710004F1101810F49A1F28B20FEF7E4FD0C4827
:101720003168633840F87F1F716841603C21084888
:10173000FFF70EFABDE8F0413C220549064803F0E8
:10174000BEBA00004E554C4C202020200000000066
:1017500023150020BB170020840800202DE9F04746
:10176000444F06469146F8798846FF2801D100206B
:10177000F871C0B2404D401C3E4CF871A521297053
:101780001A3433212180217869706178A970E8705A
:1017900005212846FFF7F0F940F20130208020783B
:1017A00068716078A8714FF4887020802078E871A3
:1017B00060782872B88F2080217869726178A97268
:1017C00040F4807020802078E8726078287305F5F6
:1017D000FB61062001F8010B022008700820487008
:1017E0004888142220F4707000F5007048808878D2
:1017F00069F3020040F038008870C87820F03C009F
:101800001030C870B1F8030062F38E10A1F8030025
:101810008888052262F3CF108880C8886FF309009A
:10182000C01CC880B1F8070066F38C00A1F807005F
:101830000A8968F34F120A8105F5FB610F22A1F2B4
:10184000CB70FEF750FD04F142000168A5F12300C2
:101850000A6840F83F2F8A888280897981713C210B
:101860002846FFF775F92946BDE8F0473C220348B2
:1018700003F025BA7C000020E30F0020840800203C
:101880002DE9F04117460C4605462AA64FF4887309
:1018900040F2013233212A4804F062FA2948132128
:1018A0000D2200F8011B0F210170152141704188A4
:1018B00021F4707101F500714180817867F30201B4
:1018C00041F038018170C17821F03C012031C170B4
:1018D000B0F8031062F38E11A0F80310818805227E
:1018E00062F3CF118180C1880F226FF30901C91CF7
:1018F000C180B0F8071065F38C01A0F807100189CA
:1019000064F34F1101810F4901F26130FEF7EBFCE6
:101910000B4831684F3840F86B1F716841603C21BB
:101920000748FFF715F9BDE8F0413C220449064895
:1019300003F0C5B94150415254202020000000005E
:101940000F1B0020BB170020840800202DE9F04168
:1019500017460C4605462AA64FF4887340F201321A
:1019600033212A4804F0FCF9294810210D2200F8FF
:10197000011B0C21017012214170418821F470710A
:1019800001F500714180817867F3020141F038016F
:101990008170C17821F03C012031C170B0F8031092
:1019A00062F38E11A0F803108188052262F3CF1133
:1019B0008180C1880F226FF30901C91CC180B0F872
:1019C000071065F38C01A0F80710018964F34F112B
:1019D00001810F4901F21120FEF785FC0B483168A7
:1019E000401C40F81B1F716841603C210748FFF70D
:1019F000AFF8BDE8F0413C220449064803F05FB966
:101A0000464F4C4C4F57202000000000BF190020CB
:101A1000BB170020840800202DE9F04117460C4632
:101A200005462AA64FF4887340F2013233212A4832
:101A300004F096F929480F210D2200F8011B0B2113
:101A4000017011214170418821F4707101F500711C
:101A50004180817867F3020141F038018170C178DB
:101A600021F03C012031C170B0F8031062F38E11F7
:101A7000A0F803108188052262F3CF118180C1880C
:101A80000F226FF30901C91CC180B0F8071065F37C
:101A90008C01A0F80710018964F34F1101810F49EF
:101AA00001F2A110FEF71FFC0B4831680F3840F817
:101AB0002B1F716841603C210748FFF749F8BDE8DA
:101AC000F0413C220449064803F0F9B84E554C4C0D
:101AD00020202020000000004F190020BB1700200C
:101AE000840800202DE9F04117460C4605462AA639
:101AF0004FF4887340F2013233212A4804F030F960
:101B0000294812210D2200F8011B0E210170142119
:101B10004170418821F4707101F500714180817834
:101B200067F3020141F038018170C17821F03C0176
:101B30002031C170B0F8031062F38E11A0F80310C9
:101B40008188052262F3CF118180C1880F226FF353
:101B50000901C91CC180B0F8071065F38C01A0F819
:101B60000710018964F34F1101810F4901F2F1203F
:101B7000FEF7B9FB0B4831685F3840F87B1F71688E
:101B800041603C210748FEF7E3FFBDE8F0413C22FD
:101B90000449064803F093B853544F5020202020A6
:101BA000000000009F1A0020BB17002084080020BE
:101BB0002DE9F04117460C4605462AA64FF48873D6
:101BC00040F2013233212A4804F0CAF82948112191
:101BD0000D2200F8011B132102704170418821F48D
:101BE000707101F500714180817867F3020141F065
:101BF00038018170C17821F03C012031C170B0F80A
:101C0000031062F38E11A0F803108188052262F39D
:101C1000CF118180C1880F226FF30901C91CC180D7
:101C2000B0F8071065F38C01A0F80710018964F380
:101C30004F1101810F4901F28120FEF754FB0C483E
:101C40003168113040F80B1F716841603C21084831
:101C5000FEF77EFFBDE8F0413C220549064803F04F
:101C60002EB80000544F50202020202000000000FB
:101C70002F1A0020BB1700208408002002480349C7
:101C80000078C86370470000A71600207C00002081
:101C90002DE9F0478CB040F2031340F2013251219C
:101CA000384804F05DF896254FF009080DF10C094D
:101CB0004FF42F7A02260024CDF80080069589E89B
:101CC00050044FF4E1720123CDE907324FF4DB7089
:101CD0003221CDE909100827CDE9017423460122FC
:101CE00021462948FEF77CFE40F2BE52CDE907426C
:101CF00003AA40F2C449CDF80080069582E850025C
:101D000040F2B7103C21CDE90910CDE90174012260
:101D1000002311461C48FEF763FECDE9074940F257
:101D2000CB11CDE9095103A8CDF80080069580E8D4
:101D30005004CDE901740023012202211248FEF76C
:101D40004FFE11490F22A1F5BA60FEF7CCFA0E49F9
:101D50000F220F31A1F5BA60FEF7C5FA0A490F222A
:101D60001E31A1F5BA60FEF7BEFA5A210548FEF70A
:101D7000EFFE0CB05A22BDE8F0470249034802F0DA
:101D80009EBF00000B160020E81B002084080020E6
:101D900070B50C46054660A100F0FEF818B120466B
:101DA00004F0E0FFB0E05DA1284600F0F5F818B1BE
:101DB000204605F00DF8A7E059A1284600F0ECF800
:101DC0000028EFD157A1284600F0E6F80028E9D115
:101DD00055A1284600F0E0F80028E3D153A1284699
:101DE00000F0DAF80028DDD151A1284600F0D4F83F
:101DF0000028D7D14FA1284600F0CEF80028D1D135
:101E00004DA1284600F0C8F800287DD14BA12846F6
:101E100000F0C2F8002877D149A1284600F0BCF8AC
:101E2000002871D147A1284600F0B6F800286BD1F0
:101E300045A1284600F0B0F8002865D143A1284606
:101E400000F0AAF800285FD141A1284600F0A4F8CC
:101E5000002859D13FA1284600F09EF8002853D110
:101E60003DA1284600F098F800284DD13BA1284616
:101E700000F092F8002847D139A1284600F08CF8EC
:101E8000002841D137A1284600F086F800283BD130
:101E900035A1284600F080F8B0BB34A1284600F0F8
:101EA0007BF888BB32A1284600F076F860BB31A1F0
:101EB000284600F071F838BB2FA1284600F06CF8D6
:101EC00010BB2EA1284600F067F8E8B92CA12846DF
:101ED00000F062F8C0B92BA1284600F05DF898B96F
:101EE00029A1284600F058F870B928A1284600F02A
:101EF00053F848B926A1284600F04EF820B925A18C
:101F0000284600F049F808B1002070BD2146284657
:101F100004F08CFEF8E700002A3100002A320000AD
:101F20002A3300002A3400002A3500002A36000037
:101F30002A3700002A3800002A3900002331000027
:101F40002332000023330000233400002335000037
:101F500023360000403100004032000040330000D2
:101F6000403400004035000040360000403700009B
:101F700040380000403900002431000024320000C5
:101F800024330000243400002436000024370000ED
:101F9000243800002439000030B50C46054603F013
:101FA0001FFD0346204603F01BFD83420AD100209B
:101FB00004E0295C225C914204D1401C9842F8DB89
:101FC000012030BD002030BD0022835C23B18B5442
:101FD000521C642AF9DB00E08B540120704700009A
:101FE0002DE9F0438BB04FF4827340F201326F2140
:101FF0006E4803F0B5FE6E4E4FF496770122708A5C
:102000000024801C81B2CDE909714FF47070CDE9D4
:1020100007200225CDE903454FF00308CDE900482C
:102020004FF407710294CDE905012346114661483A
:10203000FEF732FD708A4FF48762C01C81B24FF404
:10204000E670CDE90901CDE90742CDE903454FF43A
:102050005271CDE900450294CDE90510002301221B
:1020600002215448FEF718FD708A40F21A42001D02
:1020700081B24FF4D270CDE90901CDE90742CDE933
:102080000345CDE9004840F266310294CDE90510E0
:102090000023012203214748FEF7FEFC708A4FF41B
:1020A0007F72401D81B24FF4BE70CDE90901CDE9C8
:1020B00007424FF46171CDE905100420CDE90345D5
:1020C000CDE900400146002301223A480294FEF780
:1020D000E3FC708A40F2DE38801DCDE9074881B20A
:1020E0004FF4AA7040F2A239CDE90901CDE905907B
:1020F0000520CDE90345CDE900400146002301223A
:102100002C480294FEF7C8FC708ACDE90748C01D30
:1021100081B2CDE9097103A9069781E83002062052
:10212000CDE9004001460023012222480294FEF737
:10213000B3FC20490F22A1F2E270FEF7D4F81D494A
:102140000F220F31A1F2E270FEF7CDF819490F22EC
:102150001E31A1F2E270FEF7C6F816490F222D31AA
:10216000A1F2E270FEF7BFF812490F223C31A1F252
:10217000E270FEF7B8F80F490F224B31A1F2E2707E
:10218000FEF7B1F80B490F225A31A1F2E270FEF7C7
:10219000AAF878210548FEF7DBFC0BB07822BDE8F1
:1021A000F0430249044802F08ABD0000630F00209A
:1021B0007C00002052170020840800202DE9F04FF9
:1021C0008BB04FF4827340F201326F21624803F00A
:1021D000C7FD002405270225009740F2A23A0123FB
:1021E000CDE90345CDE9073A40F20F224FF0C80888
:1021F000CDE909824FF4967B0826CDE905ABCDE900
:1022000001642346012221465448FEF745FC40F272
:10221000DE39CDE9074900974FF40472CDE9034553
:10222000CDE90982CDE9059BCDE9016401220023B6
:1022300011464A48FEF730FC40F2F23BCDE9074B2D
:1022400040F2131803A8CDF81880009780E83002F8
:1022500040F21122CDE90982CDE901640023012277
:1022600002213E48FEF718FC40F28E31CDE90741CD
:1022700040F21222CDE9098203A8CDF81880009718
:1022800080E83004CDE901640023012203213348B2
:10229000FEF702FCCDE9074B4FF0FA0803A9CDF891
:1022A0001880009781E8300240F21322CDE90982BC
:1022B000CDE901640023012204212848FEF7ECFB4C
:1022C00040F28E31CDE908184FF405720A9203A945
:1022D0000794CDF81880009781E83004CDE90164B7
:1022E0000023012205211D48FEF7D6FB1B490F22C2
:1022F000A1F68F40FDF7F7FF18490F220F31A1F625
:102300008F40FDF7F0FF15490F221E31A1F68F40D7
:10231000FDF7E9FF11490F222D31A1F68F40FDF79E
:10232000E2FF0E490F223C31A1F54860FDF7DBFFCB
:102330000A490F224B31A1F54860FDF7D4FF7821FF
:102340000548FEF705FC0BB07822BDE8F04F0249C6
:10235000034802F0B4BC0000E30E00207F1B002005
:1023600084080020014801F0A1B90000C408002041
:10237000014801F09BB9000044070020014801F02A
:1023800095B90000A407002001681823CAB2103ACA
:10239000B2FBF3F2054B6FF30901032A9B5CC365A3
:1023A00000D9091D8165084670470000E8850008CE
:1023B00010B5014600208B698A6A4FF0C07453B192
:1023C000B3F5005F15D072B1012A0CD0022A0AD0F1
:1023D000032A09D104E01AB1012A06D0022A03D146
:1023E000C96AC90100D5012010BDC96AA142FAD04D
:1023F00010BD002AF7D0012AF2D0022AF3D0032A16
:10240000F3D010BD30B50468256825F4802525601B
:10241000046863608368402B036803D09960006898
:10242000C26030BD9A600068C16030BD2DE9F047E0
:1024300081460027012603F0D3FA051E34D000247C
:10244000DFF868802DE0621C2146484603F0D0FA90
:1024500017A1FFF7A1FD88B122463946484603F08F
:10246000C7FA03F023FA10EE100AFEF78AF808EB19
:10247000C602671CC2E90001761C11E0281B012876
:102480000ED12A463946484603F0B2FA03F00EFA56
:1024900010EE100AFEF775F808EBC602C2E900015B
:1024A000641CAC42CFDB3046BDE8F087A00A0020B8
:1024B0002000000070B52149214B28280A780BD054
:1024C00012B19854521C0A7029280BD10024D0B2A2
:1024D00025461C540C700BE0002AF2D128201870FD
:1024E0000120087070BD5819407858556D1CEDB228
:1024F000134803F075FA401EA842F4DC104803F0BC
:102500006FFA18440E4A00F8024C503AA2F1140136
:102510000B4802F095FF0A485038FFF787FF014645
:1025200007486438FFF734FC0549002050390C5443
:10253000401CC0B26428FAD370BD000030000020F7
:10254000D4090020704700002DE9F74FFF4E804668
:102550000F46F07AFF2801D10020F072C0B2FC4D86
:10256000401CFA4CF072A52129701A3451212180A7
:10257000217869706178A970E87005212846FEF716
:10258000FBFA40F201302080207868716078A871F1
:1025900040F2031020802078E87160782872B08FB4
:1025A0002080217869726178A97240F4807020805F
:1025B0002078E87260782873F58A4FF06409B5FBDB
:1025C000F9F0E34C0A26803448F23F0A2070B5FB4C
:1025D000F6F0B0FBF6F106FB11006070B5FBF6F00B
:1025E00006FB1050A070E07840F25B3167F3020008
:1025F00020F038000830E070B4F8030020F4707068
:1026000000F58070A4F80300207920F03C00183019
:102610002071A08800EA0A00A080607900F07F00A5
:10262000A4F80500B4F807006FF30900401CA4F8F3
:102630000700208961F38C002081B4F809004FF471
:102640003E7161F34F10A4F80900B4F80B0040F29A
:1026500025416FF30900A4F80B00A0890F2261F354
:102660008C00A081B4F80D004FF4437161F34F105A
:10267000A4F80D002146A1F17300FDF734FE681C9B
:10268000B0FBF9F1E173B0FBF6F1B1FBF6F206FB3A
:1026900012112174B0FBF6F106FB11006074A07CEE
:1026A000B8F11E0F67F3020020F03800A074608AB2
:1026B00020F4707000F5A0706082E07C20F03C0097
:1026C00001DD001D00E01030E07434F8130F00EA63
:1026D0000A0024F8010B207800F07F002080608839
:1026E0006FF3090011306080B4F803104FF4577095
:1026F00060F38C01A4F80310A28840F2023161F368
:102700004F12A280E28800EB48006FF30902E280DA
:10271000B4F8072060F38C02A4F8072020890F2268
:1027200061F34F108A4920818F31A1F17300FDF7C9
:10273000DAFDA81CB0FBF9F1A172B0FBF6F1B1FB18
:10274000F6F206FB1211E172B0FBF6F106FB110086
:102750002073607B4FF4C86867F3020020F03800F4
:1027600010306073B4F80D0040F2253B20F4707017
:1027700000F58070A4F80D00A07B0F2220F03C0033
:10278000001DA073E08900EA0A00E081E07B00F010
:102790007F00A4F80F00B4F811006FF309000930AE
:1027A000A4F81100618A68F38C016182B4F81310F7
:1027B0006BF34F11A4F81310B4F815004EF2030197
:1027C0006FF309002830A4F81500E08A0840E08281
:1027D000E07D5F4900F01F00A4F817009E31A1F1D1
:1027E0007300FDF780FDE81CB0FBF9F16176B0FBEA
:1027F000F6F1B1FBF6F206FB1211A176B0FBF6F191
:1028000006FB1100E076207F0F2267F3020020F024
:1028100038002077A08B20F4707000F5A070A083A2
:10282000607F20F03C00001D6077B4F81D0000EAD6
:102830000A00A4F81D00A07F00F07F00E083208C38
:102840006FF30900C01D2084B4F8211068F38C01D7
:10285000A4F82110618C6BF34F116184A08C6FF38D
:102860000900A084B4F8251068F38C01A4F82510A1
:10287000E08C40F2573161F34F103549E084AD31BF
:10288000A1F17300FDF72FFD6D1DB5FBF9F084F884
:102890002800B5FBF6F0B0FBF6F106FB110084F85A
:1028A0002900B5FBF6F006FB105084F82A0014F856
:1028B0002B0F67F3020020F03800203020702088B2
:1028C00020F4707000F5E07024F8010B207820F0FF
:1028D0003C00103004F840090298C0F13500B0F116
:1028E0002D0101D500F23B11B4F8402010F12D0F5D
:1028F00061F38E12A4F84020B4F8411002D500F222
:10290000951000E02D3060F3CF11A4F8411034F899
:10291000430F6FF3090009302080B4F8011068F309
:102920008C01A4F8011061886BF34F116180A088BD
:102930006FF30900A080B4F80510282060F38C0123
:10294000A4F80510E18860F34F1103E07C0000203B
:102950007E1C0020E1800A490F22A1F17300FDF7DF
:10296000C2FC07485A21BC38FEF7F2F803B004490C
:10297000BDE8F04F5A22BC39024802F0A0B900006D
:102980003A1D0020840800202DE9F04F83468BB0CB
:1029900040F2031340F2013251215D4803F0E0F9A7
:1029A0005C4F40F219201E2397F80D80C11C5A017C
:1029B0000024022507264FF0030C4FF00A09B8F156
:1029C000000F02D0B8F1010F07D0CDE90734CDE9EF
:1029D00009400096CDE9034C07E0CDE90794CDE925
:1029E000094004200096CDE90340CDE9052148487F
:1029F000CDE9015402235A4600218030FDF7F0FF53
:102A000043490F228031A1F17300FDF76CFCFA7A83
:102A100040F23321921F4FF47F70052A0FD2DFE876
:102A200002F00E0306090C0040F28C5007E040F261
:102A30006F4004E040F2D54001E040F22D50CDE976
:102A40000794CDE909414FF0060A0096CDE9034A03
:102A5000C8464FF45279CDE905092D48CDE9015416
:102A600002235A4601218030FDF7BAFF28490F2280
:102A70008F31A1F17300FDF736FCBA7A40F24321A1
:102A80004FF45C70062A0FD2DFE802F00E030E0648
:102A9000090C40F2163007E040F2B22004E04FF497
:102AA0000C7001E04FF4CD70CDE90784CDE9094108
:102AB0000096CDE9034ACDE905091548CDE9015451
:102AC00002235A4619468030FDF78AFF10490F222B
:102AD0009E31A1F17300FDF706FC0D490F22AD31C7
:102AE000A1F17300FDF7FFFB09490F22BC31A1F1F1
:102AF0007300FDF7F8FB5A210548FEF729F80BB0E3
:102B00005A22BDE8F04F0249034802F0D8B800004D
:102B1000491D00202409002084080020102000F016
:102B200037BF202000F034BF704702460020431E0C
:102B3000115C202904D011B1401C6428F8DB184630
:102B4000704700002DE9FF4F904C87B08B466079AD
:102B5000DDF85480FF2801D100206071C0B28C4E96
:102B6000401C8A4D6071A52131701A355121298090
:102B7000297871706978B170F07005213046FDF7E1
:102B8000FBFF40F201302880287870716878B071BE
:102B900040F2031028802878F07168783072A08F96
:102BA0002880297871726978B17240F48070288029
:102BB0002878F0726878307301264FF48761032714
:102BC00002254FF01409009640F2262ACDE904713F
:102BD000CDE90295CDF818A00196A08A0523401CE6
:102BE00080B242460021FDF7B3FE4FF44D714FF421
:102BF0006B70BBF11E0FCDE9050106DD0096CDE936
:102C000003570F20CDE9015006E00421CDE9006112
:102C1000CDF80890CDE90357A08A0623801C80B226
:102C20000121169AFDF794FEB846CDE903586421B8
:102C300040F2B132CDF80890CDE90521CDE900652B
:102C4000A08A4F46C01C80B206230221169AFDF7C7
:102C50007FFE40F28A2203A84FF4C869069280E8FA
:102C60002003CDE900650297A08A0623001D80B2EB
:102C70000321169AFDF76CFE14985A2806DA03A869
:102C800080E82007CDE90065029706E00420CDE941
:102C9000006003A8029780E82007A08A0623401D51
:102CA00080B20421169AFDF753FE3A490F22A1F68D
:102CB000A310FDF718FB0798344C00EB800040345C
:102CC0004000334D2060207805F8180F6078687058
:102CD000A078A8702F49E078E8700F310F22A1F694
:102CE000A310FDF700FBC4F800B02078E87360780B
:102CF0002874A07868742749E078A8741E310F22E0
:102D0000A1F6A310FDF7EFFA099820602078A877C4
:102D10006078E877A07885F820001E49E07885F88B
:102D200021002D310F22A1F6A310FDF7DCFA0A983D
:102D30002060207885F82D00607885F82E00A07836
:102D400085F82F001349E07885F830003C310F22D8
:102D5000A1F6A310FDF7C7FA14982060207885F833
:102D60003C00607885F83D00A07885F83E00E0786A
:102D700085F83F005A210648FDF7EAFE0BB05A22BB
:102D8000BDE8F04F0249044801F099BF7C000020E3
:102D900083120020331C00208408002010B558B195
:102DA000084C491E0BD310F8013B5340DBB234F8FA
:102DB000133083EA1222F4E74FF6FF7010BD10467D
:102DC00010BD00000887000810B5054C04E000BFE6
:102DD00010F8013B5340E25C491EF9D2104610BD89
:102DE0000886000890F82020012A07D0022A05D082
:102DF000416A41F4802141620120704700684269C4
:102E00000A43426100207047F0B590F820500468F2
:102E1000A468012D05D0022D03D0416A41F4802120
:102E20005DE014F0406F01D1E50055D5C4F30164B5
:102E3000022C03D9416A41F4000150E00125A5406C
:102E40001D608D684FF4C0739DB1CE6835434E68E8
:102E500045EAC605066803EB0417F5514FF4C27541
:102E6000076805EB04150E697E51097D012905D01F
:102E700009E00E88CD6845EA4655EBE701684E59F2
:102E800046F480764E511179D579567941EA05613B
:102E900095792D0445EA062529434FF4C676056841
:102EA00006EB0416A9511178D57841EA05619578A9
:102EB00052782D0445EA022211434FF4C47502688A
:102EC00005EB04155151006803EB0411425842F020
:102ED000010242500020F0BD416A41F400114162FC
:102EE0000120F0BD10B590F82020012A07D0022A59
:102EF00005D0416A41F480214162012010BD3B4868
:102F0000D0F8002242F00102C0F80022D0F80022DE
:102F100022F47C52C0F80022D0F800224B6A42EA28
:102F20000322C0F800220A7D02F01F0301229A400A
:102F3000D0F81C329343C0F81C32CB69B3B9D0F837
:102F40000C329343C0F80C328C894B6864F31F43F6
:102F50004C6900EBC404C4F840320C890B6864F37C
:102F60001F434C6900EBC404C4F84432CB69012B05
:102F700016D1D0F80C321343C0F80C320C884B68D1
:102F800064F31F434C6900EBC404C4F840320C895D
:102F9000CB6864F31F434C6900EBC404C4F84432AB
:102FA0008B69002BD0F804320ED01343C0F80432E2
:102FB0000B69002BD0F8143208D01343C0F8143238
:102FC000096A012904D008E09343EFE79343F5E74A
:102FD000D0F81C121143C0F81C12D0F8001221F0D6
:102FE0000101C0F80012002010BD00000064004084
:102FF000704730B590F82040012C05D0022C03D04A
:10300000416A41F480215DE00468002955D02469BB
:10301000A40754D04FF4D874056804EB01142D595B
:1030200015F00405956005682D594ED0ED085560E2
:1030300005682C5904F00204D4604FF4DA74056872
:1030400004EB01142D5905F00F05156105682D5984
:10305000C5F30725956105682C59240C54614FF47C
:10306000DC72046802EB0112A4581C700468A458B6
:10307000240A5C700468A458240C9C700468A2584C
:10308000120EDA704FF4DE72046802EB0112A458DB
:103090001C710468A458240A5C710468A458240CA8
:1030A0009C710468A258120EDA71006881B101693E
:1030B00041F020010161002030BDE468A8E7416AC9
:1030C00041F400114162012030BD6D0D1560AFE784
:1030D000C16841F02001C160EDE72DE9F05F0546D0
:1030E000006800244669D0F804908768D0F80CB0D6
:1030F000D0F810A0D0F81880F10748D0F90714D004
:1031000001218160B80703D5284600F0B6FA0CE02B
:10311000780702D54FF4006407E0380702D54FF472
:10312000805402E0284600F0A7FAF80516D5296871
:103130004FF480708860B80503D5284600F09FFAE8
:103140000CE0780502D544F4005407E0380502D5B8
:1031500044F4804402E0284600F090FAF80316D5C3
:1031600029684FF480308860B80303D5284600F002
:1031700088FA0CE0780302D544F4004407E03803F1
:1031800002D544F4803402E0284600F079FA300792
:1031900007D55FEACB6004D52968102044F4007499
:1031A000C86070074FF0080707D55FEA0B7004D5B9
:1031B0002868C760284600F0A9F9B00706D5286836
:1031C000C068800702D0284600F0A2F9700607D533
:1031D0005FEACA6004D52968102044F4806408615D
:1031E000B00607D55FEA0A7004D52868076128464B
:1031F00000F012FAF00606D528680069800702D0B0
:10320000284600F00AFAB00308D55FEAC96005D580
:10321000296810204860284600F000FAF00307D51E
:103220005FEA097004D528684760284600F02AFA4A
:10323000300446D55FEA497040D5F00504D55FEA11
:10324000C87001D044F00104B00504D55FEA88706D
:1032500001D544F00204700504D55FEA487001D539
:1032600044F00404300529D518F0700F26D008F07A
:103270007000402815D006DC102809D020280AD07C
:10328000302816D10AE050280ED0602811D10EE067
:1032900044F008040DE044F010040AE044F0200477
:1032A00007E044F0400404E044F0800401E044F40A
:1032B00080742868816921F0700181612968042087
:1032C0004860002C05D0686A204368622846FFF7F2
:1032D0008FFEBDE8F09F70B5040003D094F8200085
:1032E00010B104E0012070BD204600F081F8206894
:1032F000016821F00201016000F038FC0546052656
:1033000004E000F033FC401B0A2811D82068406814
:103310008007F6D42068016841F00101016000F0E7
:1033200025FC05460BE000F021FC401B0A2806D9CD
:10333000606A40F40030606284F82060D2E7206860
:103340004068C007EFD0207E0128206801683DD08A
:1033500021F080010160607E01282068016838D07A
:1033600021F040010160A07E01282068016833D06F
:1033700021F020010160E07E0128206801682ED044
:1033800041F010010160207F01282068016829D0E8
:1033900021F008010160607F01282068016824D0C5
:1033A00021F004010160D4E902010843D4E90412C8
:1033B000114308436168491E08432168C861002021
:1033C0006062012084F82000002070BD41F080017F
:1033D000C0E741F04001C5E741F02001CAE721F014
:1033E0001001CFE741F00801D4E741F00401D9E72B
:1033F000F0B587B0044614216846FCF78DFF3E4BBC
:103400003E48DFF8F0E01968D4F800C03B4A0325D5
:103410000226092710300024491CF4452AD11960DE
:10342000012907D1016841F000710160006800F0D6
:1034300000700590106840F0080010601068CDE939
:10344000005600F00800CDE9047069462C48CDE92B
:10345000024500F0A9FA00220721132000F0F8FB32
:10346000132000F0E7FB00220721142000F0F0FBFE
:1034700014203AE0DFF88CE0F44538D1D0F800C0F1
:103480004CF0806CC0F800C0D0F800C001290CF0EE
:10349000806CCDF814C0196007D1016841F000714B
:1034A0000160006800F000700590106840F00200B4
:1034B0001060106802AB00F0020005906020CDE9BA
:1034C000000683E8B00069460F4800F06DFA00225C
:1034D00007213F2000F0BCFB3F2000F0ABFB0022A7
:1034E0000721402000F0B4FB402000F0A3FB07B010
:1034F000F0BD0000006400401000002030380240A1
:10350000000C0240006800400004024070470000C8
:1035100010B5044600683A4996B0884205D112AB0E
:103520000BAA00213748FFF764FD3749206888421D
:1035300030D16B4604AA00213448FFF75AFD0499A4
:103540003348B1F5407F27D0A1F54071013921D131
:103550009DF8001001719DF8011041719DF8021055
:1035600081719DF80310C1719DF8041001729DF8DE
:10357000051041729DF8061081739DF8071080F8C0
:103580002410B0F904108161B0F90610C161B0F9DE
:103590000810016216B010BD9DF8001001709DF872
:1035A000011041709DF8021081709DF80310C170E8
:1035B0009DF80410C1729DF80510817215499DF89F
:1035C000062002734B789A4202D001230B7001E06F
:1035D0000B7813B14B885B1E4B804B8823B90023BB
:1035E0000B704FF416734B809DF807304373B0F99E
:1035F00000300361B0F9023043614A70CAE700004D
:10360000006400409C06002000680040C4060020C2
:1036100024090020240000207047704770470000F4
:1036200070B5044690F82000012804D0606A40F488
:103630000020606218E0022084F820002068016801
:1036400021F00101016000F091FA05460EE000BF93
:1036500000F08CFA401B0A2808D9606A40F4003058
:103660006062052084F82000012070BD2068406859
:10367000C007EDD1606270BD7047704770477047FA
:1036800070477047704790F83510022903D08021A9
:10369000416501207047052180F8351000680168F8
:1036A00021F0010101600020704700002DE9F8437E
:1036B00004464FF00009CDF8009063484FF41651CE
:1036C000A56D0068B0FBF1F72E6894F85C10082037
:1036D00000FA01F131420FD021680A6852070BD578
:1036E0000A6822F004020A6094F85C108840A8601E
:1036F000606D40F00100606594F85C104FF00108C7
:1037000008FA01F0304208D021684969090604D559
:10371000A860606D40F00200606594F85C100420C1
:103720008840304208D021680968890704D5A8601C
:10373000606D40F00400606594F85C1010208840D3
:10374000304218D021680968090714D5A86020689C
:103750000168490304D50068000308D5A16C07E09F
:103760000168C90503D4016821F008010160216CDA
:1037700009B12046884794F85C10202088403042E8
:1037800031D021680968C9062DD5A86094F83500A4
:1037900005282068016806D0490347D50068000362
:1037A0001DD4616C1CE021F01601016020684169A4
:1037B00021F080014161206C08B9A06C20B1206823
:1037C000016821F00801016094F85C103F208840F6
:1037D000A86084F8349084F83580216D1FE0E16B97
:1037E00009B120468847606D00282BD0606DC00766
:1037F00014D0052084F835002068016821F001010B
:1038000001600098401C0090B84203D8206800680E
:10381000C007F6D184F8349084F83580E16C002933
:1038200010D001B02046BDE8F04308470168C90543
:10383000D5D4016821F01001016084F8349084F837
:103840003580CCE7BDE8F883200000202DE9F04169
:10385000044600F08BF906465CB1002584F834502C
:10386000022084F835002068016821F00101016020
:103870000DE00120BDE8F08100F078F9801B0528FB
:1038800005D920206065032084F83500F2E7206820
:103890000068C007F0D12268116820480140D4E9CF
:1038A00001031843D4E903363343184363691843CB
:1038B000A3691843E3691843236A18430843616AFC
:1038C000042903D1D4E90B1319430843106020687D
:1038D0004069666A20F0070130460E43012704283C
:1038E0000CD1A06A0643E06A40B12046FEF760FDB5
:1038F00020B14020606584F83570BAE720684661E1
:103900002046FEF741FD94F85C203F219140816004
:10391000656584F835700020ACE700003F8010F04A
:103920002DE9F0410446866D90F834000025012809
:103930000DD0012084F8340094F835700020012F58
:1039400007D084F8340002252846BDE8F081022023
:10395000FBE7022784F8357060652046FEF752FDCC
:1039600094F85C103F208840B0602068016841F006
:1039700016010160206C20B12068016841F0080147
:1039800001602068016841F001010160DCE77047D7
:10399000044910B50A68024202D00860FFF7F7FF39
:1039A00010BD0000143C01402DE9F84F00224FF0FB
:1039B000010803254FF00F0E0B6808FA02F42340AC
:1039C000A3426ED14E68012E05D0022E03D0112ED7
:1039D00001D0122E12D186684FEA420C05FA0CF77C
:1039E000BE43CF6807FA0CF7374387604668A643A3
:1039F0000C79C4F30014944034434460C668570003
:103A000005FA07FC8C6826EA0C06BC403443C46007
:103A10004C68022C01D0122C13D1D40800EB840482
:103A2000A346D4F8209054074FEAD46A0EFA0AF657
:103A300029EA06090E6906FA0AF646EA0906CBF8EB
:103A4000206006680C7926EA0C0604F00304BC40EA
:103A5000344304604C68E40065D5364C266846F46F
:103A600080462660246822F0030604F48044009413
:103A7000314C3444A446D4F808489607370F0EFA60
:103A800007F6B4432D4EB04201D1002624E02C4E5F
:103A9000B04201D101261FE02A4EB04202D10226D7
:103AA0001AE040E0284EB04201D1032614E0274E30
:103AB000B04201D104260FE0254EB04201D10526C7
:103AC0000AE0244EB04201D1062605E0224EB04263
:103AD00001D1072600E00826BE402643CCF808683E
:103AE0001E4E34684F689C43FF0300D51C4334606E
:103AF0001A4C241D26684F689E43BF0300D51E4301
:103B00002660164E083634684F689C43FF0200D585
:103B10001C433460114E0C3634684F689C43BF021E
:103B200000D51C433460521C102AFFF445AFBDE899
:103B3000F88F00004438024000300140000002408D
:103B40000004024000080240000C02400010024045
:103B50000014024000180240001C0240003C0140DA
:103B60000AB1816170470904FBE7000001488068E1
:103B70007047000014000020024881680278114458
:103B800081607047140000200B4810B5016841F4B3
:103B900000710160016841F480610160016841F4D5
:103BA00080710160032000F073F80F2000F006F828
:103BB00000F024F8002010BD003C024070B50D4D0F
:103BC00004464FF47A712878B1FBF0F00A4909688D
:103BD000B1FBF0F000F0B9FC48B9102C07D200227C
:103BE0002146501E00F034F800206C6070BD0120AA
:103BF00070BD000014000020200000200C4882B09E
:103C0000016841F480410160006800F48040009048
:103C10000748001F016841F08051016000680022E0
:103C200000F0805000900F21901E02B000F010B8FC
:103C300044380240002809DB00F01F0201219140B6
:103C40004009800000F1E020C0F80011704700003A
:103C5000F0B40E4B1B680C46C3F30223C3F10705F7
:103C6000042D00D90425191D072901D2002300E0E5
:103C7000DB1E012606FA05F1491E214099409E40AF
:103C8000761E16403143F0BC02F074BA0CED00E031
:103C9000064900F0070208684FF6FF03184040EAA3
:103CA0000220034A10430860704700000CED00E05A
:103CB0000000FA052DE9F0470E46050065D0DFF853
:103CC0001481D8F80000F7B200F00F00B04207D21C
:103CD00088F80070D8F8000000F00F00B04254D10E
:103CE00028683D4C810712D5400703D5206840F471
:103CF000E05020602878000703D5206840F4604039
:103D000020602068A96820F0F0000843206028782F
:103D1000C0072DD0304968680839012812D0022820
:103D200013D0032811D00968890700292DDA2168EA
:103D300021F0030101432160FFF718FF814641F2A2
:103D4000883A0EE009688903EFE709688901ECE722
:103D5000FFF70CFFA0EB0901514502D90320BDE894
:103D6000F0872068696800F00C00B0EB810FEFD19C
:103D7000D8F80010404601F00F01B14207D9077092
:103D8000006800F00F00B04201D00120E7E728787A
:103D9000400705D52068E96820F4E050084320601A
:103DA0002878000706D52068296920F4604040EA99
:103DB000C100206000F038F82168084AC1F30311FF
:103DC000515CC8400649086006480068FFF7F6FEE7
:103DD0000020C4E7003C024008380240F08500089B
:103DE00020000020180000200448054900680968E8
:103DF000044AC1F38221515CC84070472000002072
:103E0000083802400086000804480549006809682F
:103E1000044AC1F34231515CC84070472000002081
:103E20000838024000860008154810B5006810F0F8
:103E30000C02144813D01449042A0FD0082A0ED1BA
:103E40000F4C241F2268236802F03F025B0207D553
:103E50002068C0F38810A0FB010106E0084610BDF1
:103E60002168C1F38811A1FB00010023FCF70AFAC5
:103E70002168C1F30141491C4900B0FBF1F010BDBC
:103E8000083802400024F400001BB7002DE9F84F69
:103E900004006ED02078DFF83C93C007A9F1040538
:103EA0004AD009F104000168C1F38101012908D059
:103EB0000068C0F3810002280AD1D9F8000040024E
:103EC00006D52868800337D560680028E1D033E044
:103ED0006068B0F5803F10D0B0F5A02F286810D0F2
:103EE00020F480302860286820F4802028606068F2
:103EF000A8B1FFF73BFE06460DE0286840F480308D
:103F0000F4E740F480202860F7E700BFFFF72EFEBB
:103F1000801B642873D828688003F7D50CE0FFF76E
:103F200025FE064605E000BFFFF720FE801B642843
:103F3000F0D828688003F7D42078DFF89C828007C7
:103F40004FF0000A3ED5A348001D016811F00C0F88
:103F500008D00068C0F3810002280BD1D9F8000016
:103F6000400207D42868800716D5E068012800D1F0
:103F700012E02BE1E068B8B10120C8F80000FFF7BB
:103F8000F5FD064605E000BFFFF7F0FD801B0228A7
:103F9000C0D828688007F7D52868216920F0F80084
:103FA00040EAC10028600DE0C8F800A0FFF7DEFD80
:103FB000064604E0FFF7DAFD801B02281FD82868B8
:103FC0008007F7D42078000722D5824E83486169A4
:103FD000703671B101210160FFF7C8FD074604E0AA
:103FE000FFF7C4FDC01B022809D830688007F7D549
:103FF0000EE0C0F800A0FFF7B9FD074605E082E03B
:10400000FFF7B4FDC01B02287DD830688007F7D4C5
:104010002078400768D5DFF8BCB100270BF13C0BD6
:10402000DBF80000C0000BD4DBF8001041F0805139
:10403000CBF80010DBF80000012700F08050009062
:10404000674E3068C00510D4306840F4807030602E
:10405000FFF78CFD009005E0FFF788FD0099401AFE
:10406000022850D83068C005F6D55A4EA0686C3684
:1040700001280FD00528306810D020F001003060F2
:10408000306820F004003060A068B8B1FFF76EFD22
:1040900000900FE0306840F00100F4E740F00400C9
:1040A0003060F7E7FFF762FD0099411A41F288306E
:1040B000814266D830688007F4D50EE0FFF756FDE0
:1040C000009007E0FFF752FD0099411A41F2883055
:1040D000814256D830688007F4D42FB1DBF8001045
:1040E00021F08051CBF80010A069C8B33949091DEF
:1040F0000968C1F3810102294AD00228504607D03D
:10410000C8F8600000E03CE0FFF730FD04463BE00B
:104110004746C8F86000FFF729FD064605E000BFE6
:10412000FFF724FD801B02282BD828688001F7D4D4
:10413000D4E907010843A16A2A4A490802EB014170
:10414000626A41EA8211084394F82C1040EA016146
:10415000C9F8001001203866FFF708FD044606E0A4
:1041600036E000BFFFF702FD001B022809D82868CF
:104170008001F7D52CE000BFFFF7F8FC001B0228F8
:1041800002D90320BDE8F88F28688001F4D41FE02D
:104190000128F7D0D9F80000E26900F480019142CB
:1041A00014D1226A00F03F0191420FD147F6C0714D
:1041B000626A0140914209D1A26A00F44031914201
:1041C00004D1E16A00F07060884201D00120D9E793
:1041D0000020D7E70438024000004742800E4742E3
:1041E000007000400000FFFF70B5040005D00025FE
:1041F000A56294F8510010B106E0012070BD84F86A
:104200005050204600F030F8022084F85100206819
:10421000016821F040010160D4E901010843D4E9BB
:1042200003121143084361690843218B01F40071B3
:104230000843E1690843216A0843A16A08432168E9
:104240000860A069042101EA1040616A08432168FE
:1042500048602068C16921F40061C1616565012081
:1042600084F85100002070BD2DE9F04186B006466B
:1042700014216846FCF750F835493068884264D10B
:1042800034480024016841F480510160006800F462
:10429000805005902F481438016841F002010160F8
:1042A000016801F002010591016841F0010101601E
:1042B0000068022500F0010005901820CDE90005F6
:1042C00002AA03274FF0050882E8900169462248B8
:1042D000FFF76AFB8020CDE9000502AA694682E863
:1042E00090011E48FFF760FB1E4D1D487F062860A9
:1042F000C5E901744FF48068C5E903486C61781220
:10430000AC61C5E9074028466C62FFF79FFA08B127
:10431000FEF70AFCF564AE63124D114860351830A3
:10432000E5E802074020A5E81101C00245F814495C
:10433000AC61C5E907400B486C626030FFF786FA54
:1043400008B1FEF7F1FBB564AE6306B0BDE8F081DD
:1043500000300140443802400004024000000240A6
:1043600040640240440700202DE9F84F044690F8CD
:10437000500000270A9E1D4692468B464FF00109C9
:1043800001280ED0012084F85000FFF7EFFB804693
:1043900094F85100616801280CD0B1F5827F07D1F3
:1043A00002E00220BDE8F88FA16809B9042801D015
:1043B0000227C2E0BBF1000F27D0BAF1000F24D0D2
:1043C0001DB394F85100042802D0052084F8510050
:1043D00000206065C4F838A0E587A587C4F830B030
:1043E000E586A5862064606420680168490603D4D8
:1043F000016841F040010160E068B0F5006F60685D
:1044000005D0E8B3012D46D07FE0012795E008B143
:10441000012D39D1206B21680088C860206B801C79
:104420002063E08E401EE0862EE0206881688907C8
:104430000FD5E18E69B1B9F1010F0AD1216B09885D
:10444000C160206B801C2063E08E401EE0864FF030
:10445000000920688168C9070CD0E18F51B1C0689C
:10446000A16B0880A06B801CA063E08F401EE087DA
:104470004FF00109FFF77AFBA0EB0800B04200E023
:1044800009E001D3701C50D1E08E0028CDD1E08F1F
:104490000028CAD13FE0206B216800780873206BA8
:1044A000401C2063E08E401EE0862EE0206881687C
:1044B00089070FD5E18E69B1B9F1010F0AD1216BDE
:1044C00009780173206B401C2063E08E401EE0865B
:1044D0004FF0000920688168C9070CD0E18F51B105
:1044E000C068A16B0870A06B401CA063E08F401EE9
:1044F000E0874FF00109FFF739FBA0EB0800B0425D
:1045000002D3701C01D010E07EB1E08E0028CDD126
:10451000E08F0028CAD142463146204600F01AFFFB
:1045200028B101272020606507E0032705E0A06887
:1045300018B92068C16880680090012084F8510093
:10454000002084F8500038462CE710B5401EB0F12A
:10455000807F01D3012010BD4FF0E02460610F2166
:10456000601701F007FE0020A061072020610020F5
:1045700010BD7047704710B5040003D094F83D009B
:1045800010B107E0012010BD002084F83C00204657
:1045900000F00CF8022084F83D00211D206801F095
:1045A000B9FA012084F83D00002010BD08B500686C
:1045B0000B49884212D10B48016841F40031016077
:1045C0000068002200F40030009005211920FFF758
:1045D0003FFBBDE808401920FFF72CBB08BD0000D9
:1045E0000044014044380240704770B504460068FA
:1045F00001694FF00005C943890715D4C168C94353
:10460000890711D4E91E01610120207720688069A3
:104610008007204602D0FFF7E7FF04E000F0C2F871
:10462000204600F044F9257720680169C94349070D
:1046300017D4C168C943490713D46FF0040101615D
:10464000022020772068806910F4407F204602D045
:10465000FFF7CAFF04E000F0A5F8204600F027F9B4
:10466000257720680169C943090716D4C168C94381
:10467000090712D46FF00801016104202077206837
:10468000C0698007204602D0FFF7AEFF04E000F0CB
:1046900089F8204600F00BF9257720680169C943A5
:1046A000C90617D4C168C943C90613D46FF01001F5
:1046B0000161082020772068C06910F4407F2046FF
:1046C00002D0FFF791FF04E000F06CF8204600F004
:1046D000EEF8257720680169C943C90708D1C16888
:1046E000C943C90704D1891E0161204600F0E0F8E2
:1046F00020680169C943090609D4C168C94309068C
:1047000005D46FF0800101612046FFF732FF206879
:104710000169C943490609D4C168C943490605D49A
:104720006FF040010161204600F0C3F82068016984
:10473000C94389060BD4C168C943890607D46FF001
:10474000200101612046BDE87040FFF713BF70BD36
:1047500010B586B0044614216846FBF7DDFD0E490E
:104760002068884215D10D48016841F020010160A0
:104770000068012100F020000590402000900220F8
:10478000CDE9010103900320049069460448FFF736
:104790000BF906B010BD0000004401403038024063
:1047A00000140240704770B5044690F83C000D4676
:1047B00001280DD0012684F83C60022084F83D00D9
:1047C00042B1042A18D0082A2AD00C2A4DD139E047
:1047D000022070BD206801F001FA2068816941F073
:1047E000080181612068816921F0040181612068EC
:1047F00081692A69114311E0206801F01FFA2068DD
:10480000816941F4006181612068816921F48061DE
:104810008161206881692A6941EA0221816124E07D
:10482000206801F041FA2068C16941F00801C161C6
:104830002068C16921F00401C1612068C1692A6949
:10484000114311E0206801F063FA2068C16941F466
:104850000061C1612068C16921F48061C161206883
:10486000C1692A6941EA0221C16184F83D600020E2
:1048700084F83C0070BD10B5040003D094F83D00EE
:1048800010B107E0012010BD002084F83C00204654
:1048900000F00CF8022084F83D00211D206801F092
:1048A00039F9012084F83D00002010BD70477047A1
:1048B0007047704708B5C16B082903D100680168CB
:1048C0004068009008BD000070B50268044610689A
:1048D000D168536910F00F0F52D003F0010501F4B5
:1048E00090762E435FD0C20705D0CA0503D5E26B90
:1048F00042F00102E263420705D5DA0703D0E26B1A
:1049000042F00202E263820705D5DA0703D0E26BC8
:1049100042F00402E263020707D501F020022A43B5
:1049200003D0E26B42F00802E263E26B002A33D06C
:10493000800604D5880602D5204601F0B0FA20682A
:104940004069E16BC0F38010090700D428B320460A
:1049500001F08EFA2068416949061AD5416921F0B3
:1049600040014161606BA0B11B490165606BFEF7BE
:104970008AFE002810D0606B016DBDE870400847CA
:10498000830610D58B060ED52046BDE8704001F099
:1049900086BA2046FFF78EFF70BD2046FFF78AFFDC
:1049A0000020E06370BD030606D50B0604D5204643
:1049B000BDE8704001F052BB4006F3D54806F1D582
:1049C000D168204621F04001D160202184F83910BF
:1049D00000F094F970BD0000D15D000870B50400CE
:1049E00004D094F83900002510B106E0012070BD14
:1049F00084F83850204600F023F8242084F8390049
:104A00002068C16821F40051C160204601F092FA8B
:104A10002068016921F4904101612068416921F019
:104A20002A0141612068C16841F40051C160E56319
:104A3000202084F8390084F83A00002070BD00007E
:104A4000F0B587B0064614216846FBF765FC3E4981
:104A50003C4B326800253C481439022403279A4213
:104A60002FD1026842F010020260006800F01000CE
:104A70000590086840F002000860086800F0020035
:104A80000590086840F0010008600868072600F0FB
:104A900001000590802004968DE8B10069462B48FE
:104AA000FEF782FF200204968DE8B100694628488F
:104AB000FEF77AFF002207212520FFF7C9F82520FD
:104AC0003BE0244B9A423AD1026842F02002026055
:104AD000006800F020000590086840F04000086081
:104AE0000868694600F0400005904FF484408DE866
:104AF000B100082004901848FEF756FF184C1748DC
:104B000020608005C4E901054FF48060C4E90350CA
:104B100065614FF44030A561C4E9075020466562E5
:104B2000FEF794FE08B1FDF7FFFF74630022042135
:104B30004720A663FFF78CF84720FFF77BF807B004
:104B4000F0BD000000100140443802400004024063
:104B50000000024000140140001802402864024096
:104B6000C4080020F8B5044690F83A0020283CD14B
:104B7000C1B3BAB394F83800012836D0012084F8C4
:104B80003800A162A2850025E563222084F83A005E
:104B9000636B1748D863636B16481864636B1648D9
:104BA000D864606B134605650846666B216802464B
:104BB0003046091DFEF7B4FE206801684168009187
:104BC00084F83850C16841F48071C160206841693F
:104BD00041F0010141612068416941F040014161BA
:104BE0000020F8BDFFE70120FBE70220F9E7000005
:104BF0002B5E0008675E0008E15D000890F83A301F
:104C0000202B22D1F9B1F2B190F83830012B1CD011
:104C100081628285C2850021C163222280F83A2008
:104C200080F838100168CA6842F48072CA6001686E
:104C30004A6942F001024A610068C16841F02001FE
:104C4000C1600020704701207047022070470000BB
:104C500038B504460068134988420DD112480078DF
:104C6000FDF728FC114800680168406800900122A7
:104C70000D490E48FFF7C2FF0D49206888420FD149
:104C80000C4800680168406800900B48007800F00C
:104C900037F8BDE83840012207490648FFF7AEBFA4
:104CA00038BD0000001001404C09002044080020DD
:104CB000001401408408002028000020704790F86C
:104CC0003930202B18D1A9B1A2B190F83830012B7E
:104CD00012D001628284C2840021C163212280F843
:104CE000392080F838100068C16841F08001C16047
:104CF0000020704701207047022070477047FEE790
:104D00002DE9F04786490124DFF8188207464FF065
:104D10000009A5280FD0D8F82C0008F11A0AA1F133
:104D20001005052829DA0F54401C0E46C8F82C003F
:104D3000052807D021E0C8F82C400870C8F8349046
:104D4000BDE8F0870521764801F0F0F9A8B1727846
:104D50008AF80020B2788AF80120BAF80010A8F882
:104D60001010F07888F801000520C8E90C042869C3
:104D70006862287D85F82800E2E7D8F8340000282A
:104D8000DED0B8F91010664ED8F83000143609316C
:104D9000884203DA3754401CC8F830008842CFD12B
:104DA0005F48C8F83490143001F0A2F90028C7D049
:104DB00071798AF80010B1798AF80110BAF90010F7
:104DC000A8F81810D8F83800C8F82840401CC8F8CF
:104DD0003800534840F202231038A1F202229942CF
:104DE00074D022DCB1F5817F5AD00FDC012942D08A
:104DF000022949D003294DD0A1F5807101399FD1F5
:104E0000C470D5F82B00C8F8440099E7A1F580716B
:104E100003394BD0012952D0FE2991D1C4711B22F4
:104E200088F80040F11D404821E0042A60D00BDCE6
:104E3000012A51D0022A55D0032A81D1C472B5F873
:104E40002B00A8F81C007BE7052A57D0062A61D062
:104E5000FF2A91D1C47355F82B0FC8F84C00304984
:104E6000A8887022A8F85000213101F6F100BDE8B1
:104E7000F047FBF738BA047035F82B0FA8F822007A
:104E8000A87888F824005BE7447095F82B0088F830
:104E90000C0055E7847024481C22F11D1C38E6E7FD
:104EA0000471D5F82B00C8F8480049E7447135F87B
:104EB0002B0FA8F82500A87888F8270040E7847110
:104EC000B5F82B00A8F81E003AE7FFE70472164871
:104ED0001022F11D1B30CAE7447213481022F11D45
:104EE0002B30C4E7847295F82B0088F80D0027E773
:104EF000047395F82B0088F80E0021E7447355F8E9
:104F00002B0FC8F85200A888A8F85600A87988F88E
:104F1000580015E78473B5F82B00A8F820000FE7B8
:104F2000D00D00207C000020A7160020104810B5EE
:104F30000E4901600321416000214FF4102281607D
:104F4000C0E903124FF40012426101760122427659
:104F50008176C17601774177FEF7BDF9002803D04D
:104F6000BDE81040FDF7E0BD10BD0000006400404A
:104F70009C060020114810B50F49016003214160D3
:104F800000214FF04072C0E902124FF4102202617A
:104F90004FF4001242610176012242768176C17699
:104FA00001774177FEF797F9002803D0BDE810405C
:104FB000FDF7BABD10BD000000680040C406002027
:104FC000114808B5016841F48001016000680022C1
:104FD00000F48000009005213920FEF739FE3920C9
:104FE000FEF728FE002205213A20FEF731FE3A2086
:104FF000FEF720FE002205213B20FEF729FEBDE83A
:1050000008403B20FEF716BE3038024010B59CB079
:105010001C2216496846FBF766F90021684601F034
:105020000FFF134C11491C2220601C3107A8FBF70D
:105030005AF9002107A801F003FF0C4960601C2207
:1050400038310EA8FBF74FF900210EA801F0F8FE49
:105050000649A0601C22543115A8FBF744F9002131
:1050600015A801F0EDFEE0601CB010BD78850008C9
:10507000000000202DE9F04387B014216846FBF7BB
:105080004BF951480025016841F0020101600168B7
:1050900001F002010591016841F0400101600168E1
:1050A00001F040010591016841F0010101600168D2
:1050B00001F001010591016841F0080101600168FA
:1050C00001F008010591016841F4807101600168F7
:1050D00001F480710591016841F08001016001686F
:1050E00001F080010591016841F020010160016833
:1050F00001F020010591016841F0040101600068A0
:10510000324F00F004004FF4E05605900122314682
:105110003846FEF725FDDFF8B88001221021404611
:10512000FEF71EFDDFF8AC90012211464846FEF75F
:1051300017FD602002248DE8310003200390072032
:10514000049069462448FEF72FFCC020CDE90005F5
:105150000125694621480295FEF726FCCDE9006548
:10516000CDE9025469463846FEF71EFC1020CDE911
:105170000005CDE9025469464046FEF715FC302093
:1051800000901748CDE9010569461648FEF70CFC6A
:10519000CDE902540095694648460195FEF704FCA6
:1051A000002205210A20FEF753FD0A20FEF742FDEA
:1051B000002205211720FEF74BFD1720FEF73AFDD0
:1051C00007B0BDE8F083000030380240001C024008
:1051D0000000024000040240000C02400020024097
:1051E0000000211000080240104810B50E4901606F
:1051F0004FF482714160002102228160C0E90312F4
:1052000001224261520282613822C0E907214162D3
:1052100081620A21C162FEF7E7FF002803D0BDE8E2
:105220001040FDF781BC10BD00300140EC060020AD
:1052300010B588B01C216846FBF76EF81448134976
:105240000024C0E9001441F28731C0E90241046141
:105250008461FFF790F908B1FDF766FC0C48FFF791
:105260000AFB08B1FDF760FC6020CDE90004029460
:105270000022694606480494FFF795FA08B1FDF745
:1052800053FC0348FFF764FA08B010BD0044014026
:10529000040800200C4810B50A4901604FF4E131C0
:1052A0004160002181600C22C160C0E9041281616B
:1052B000C161FFF793FB002803D0BDE81040FDF764
:1052C00033BC10BD00100140440800200C4810B54C
:1052D0000A4901604FF4E1314160002181600C22F4
:1052E000C160C0E904128161C161FFF777FB00284A
:1052F00003D0BDE81040FDF717BC10BD00140140FD
:105300008408002010B50448FBF7C6FDBDE8104036
:105310000248FBF7C1BD00009C060020C406002027
:1053200010B50749074800F0D7FE01220449054897
:10533000FFF718FCBDE810400349044800F0CCBE5C
:105340004C09002044080020280000208408002088
:10535000FEE7704738B504461248134B0068B0FBAF
:10536000F3F04FF47A73584300906068B0F5827F91
:105370000DD10B46009200228021204600F016F845
:1053800070B1606D40F020006065032038BD00986A
:1053900030B1401E009020688068C0430006F6D5FA
:1053A000002038BD2000002000366E012DE9F041BC
:1053B0001D4617460E460446DDF8188008E0681CB6
:1053C00006D0FEF7D3FBA0EB0800A8420BD255B1E4
:1053D0002068806836EA000030D00020B842EED164
:1053E0000020BDE8F0812068416821F0E0014160C3
:1053F0006068B0F5827F0BD1A068B0F5004F02D095
:10540000B0F5806F04D12068016821F0400101608F
:10541000A06AB0F5005F09D12068016821F400514D
:1054200001602068016841F400510160012084F8A6
:105430005100002084F850000320D2E70120CDE77E
:10544000F0B514460E460746FDF76FFB0346384697
:1054500000F0C6FA0146002002E03A5C3254401CDB
:105460009842FADB0025F554581C06E0A0EB030C2B
:105470003A5CA444401C0CF8012C8842F6DB6554CD
:105480005B1C04D131463846FCF79EFD2570F0BD0B
:1054900010B5012001F0C8FCFBE700F023F8022062
:1054A00001F0C2FCF9E70000084D094C084A074921
:1054B000121F0C310548FBF7BFFB95ED020A0220D5
:1054C00084ED000A01F0B0FCF0E70000743F00201A
:1054D000B0010020FCF7D2FB00F0E4F8022001F05C
:1054E000A3FCF7E72DE9F0476548664D00260178F3
:1054F000E9704178297181786971C078A871624832
:10550000EE710168012900D1066060480168002938
:105510007ED05F4C06602078012800D1267060782C
:10552000012800D16670A078012800D1A670E0782B
:10553000012800D1E6702079012800D12671607918
:10554000012800D16671A079012800D1A6714D4FC4
:10555000E079DFF84091083F012820D1E67199F801
:105560000010297099F801106970B9F81410398089
:105570003978A9707978E970B9F8161039803978D6
:10558000297179786971B9F8180038803878A8716C
:105590007878E8713B4940F20310FBF78BFC207AE6
:1055A000DFF8E0800128A8F1040825D13A492672E5
:1055B000088838804888388008893880387828708A
:1055C000787868704A68C8F8002098F80020AA70B7
:1055D00098F80120EA7098F802202A7198F80300E0
:1055E0006871C88938803878A8717878E871254959
:1055F00040F20510FBF75EFCA07A012800D1A672EC
:1056000026480178012917D1067099F81A0000E0A0
:1056100033E000F001012970C0F340016970C0F36C
:105620008000A870174817490C38C0F80F60C6747E
:105630004FF48470FBF73EFC207B012800D12673D9
:10564000607B012811D116486673D0F80310C8F8A2
:10565000001098F80010E97098F80110297198F876
:105660000210697198F80300A871A07B012800D18D
:10567000A673E07B012800D1E673BDE8F087000047
:10568000B00100203001002020010020A4000020F3
:10569000C00D0020A7160020C21600207C000020AC
:1056A000CE0000202DE9FE4F7D4C7E4D4FF41B783F
:1056B00094F824004FF4AF7A012802D028781E28ED
:1056C0007ED20A2001F0B0FB0120FCF789FC0F20FC
:1056D00001F0AAFBFCF772FD0F2001F0A5FBFCF71F
:1056E000D7FA0F2001F0A0FB208B012102B26069E4
:1056F000FCF72AFF142001F097FB0120216ACDE975
:105700000010029004F110000FC8FDF71BFA1420DE
:1057100001F08AFB4FF45C774FF457700122394651
:10572000FBF7B6FF0F2001F07FFB012239464FF453
:105730003E70FBF747FF0F2001F076FB4FF4257614
:10574000012239463046FBF7D7FE0F2001F06CFBF3
:10575000012239464FF4FF70FBF702FE0F2001F0E3
:1057600063FB012239464FF4B470FBF75FFE0F2054
:1057700001F05AFB4FF47A7001223946FCF74CF9DC
:105780000F2001F051FB40F24C49012239464846B6
:10579000FCF7DCF80F2001F047FB0122394640F20C
:1057A000C440FCF705FA0F2001F03EFB0122394608
:1057B00040F21450FCF796F90F2001F035FB00E0A1
:1057C0003DE00122394640F26E50FCF759F80F20B7
:1057D00001F02AFB4FF4C36701224FF42A713846C7
:1057E000FBF7E8FC0F2001F01FFB01224FF41171C1
:1057F0003846FBF74BFD0F2001F016FB0122314626
:105800004FF49170FBF744FC142001F00DFB0122D2
:1058100041465046FBF77AFB142001F005FB0122BC
:105820004FF416714846FBF799FF142001F0FCFA7B
:105830000120FDF7A9F82878401C28702BE00220F1
:10584000216ACDE90010029004F110000FC8FDF7A5
:1058500079F9142001F0E8FA208B022102B2606984
:10586000FCF772FE142001F0DFFA0F48007808B947
:10587000A07B50B10F2001F0D7FA022241465046DA
:10588000FBF744FB0F2001F0CFFA0220FDF77CF874
:10589000142001F0C9FA207B6880BDE8FE8F00006B
:1058A0002409002024010020240000202DE9F041DB
:1058B00006462DED088B4FF000089FED438B4446C4
:1058C000B0EE489AF0EE689A305D58B1A0F1300120
:1058D0000A2903D32E2801D02D2803D1641CE4B259
:1058E0000A2CF1D3002504E0705D2E2803D06D1C36
:1058F000EDB2A542F8D300279FED35AB15E0F05D82
:105900002D2818D03038FAF72BFE41EC1B0B53EC46
:105910001A2B51EC190BFAF7B1FD53EC1B2BFAF7CC
:1059200006FD41EC190B7F1CFFB2AF42E7D37F1C91
:10593000FDB22F4618E04FF00108F4E7705D3038F3
:105940000A2813D2FAF70CFE41EC1B0B53EC1A2B6E
:1059500051EC180BFAF792FD53EC1B2BFAF7E7FC0E
:1059600041EC180B6D1CEDB2A542E7D300259FED6D
:105970001AABE41B0AE000BF53EC1A2B51EC180BD6
:10598000FAF77CFD41EC180B6D1CEDB2AC42F3DC78
:1059900053EC182B51EC190BFAF7C9FC41EC100B26
:1059A000B8F1000F05D051EC100B81F0004141EC33
:1059B000100B51EC100BFAF7F7FDBDEC088B00EE65
:1059C000100ABDE8F08100000000000000000000A7
:1059D00000000000000024409A9999999999B93FD4
:1059E000014600200A5C401C002AFBD1401E704783
:1059F00070B50B46074C04E0E618C55C761A5B1CD4
:105A000035709342F8DB00202244511A0870014897
:105A100070BD0000380A002010B5FEF7ADF802F0A6
:105A2000EBFB012803D0BDE8104002F01BB910BD0C
:105A300030B593B030216846FAF76EFC14210CA8FB
:105A4000FAF76AFC19480025016841F080510160AD
:105A5000006800F0805011901548016841F48041C1
:105A600001600068022400F4804011900120009041
:105A7000000401908001CDE9064006200890A8208E
:105A8000CDE9090404200B906846FEF7FFF90CA944
:105A90000F2081E831004FF4A0500F90E0021090E9
:105AA00005210CA8FEF706F913B030BD40380240BE
:105AB000007000401048016841F4700101600F4817
:105AC000016841F0010101600C4A002108321160B7
:105AD00002680B4B1A400260031D0A4A1A600268F2
:105AE00022F48022026005480C3001600249580609
:105AF000803908607047000088ED00E000380240FF
:105B0000FFFFF6FE103000240148FEF76EBD0000D6
:105B100004080020F0B50268254C264D264E274F7C
:105B2000274B4FF0804CA04209D0604507D0A842D7
:105B300005D0B04203D0B84201D0984204D122F03F
:105B4000700E4A6842EA0E02A0421BD0604519D08E
:105B5000A84217D0B04215D0B84213D0984211D005
:105B6000184DA8420ED0184DA8420BD0174DA84290
:105B700008D0174DA84205D0164DA84202D0164DA8
:105B8000A84203D122F44075CA682A434D6922F025
:105B900080022A4302608A68C2620A688262A04266
:105BA00001D0984201D10969016301214161F0BD31
:105BB000000001400004004000080040000C0040CC
:105BC0000004014000400140004401400048014001
:105BD00000180040001C004000200040F0B5026AA0
:105BE00022F001020262036A42688469124E24F0C4
:105BF00073050C682C4323F002058B682B430D4D75
:105C0000A84201D0B04205D123F00807CB683B433E
:105C100023F00403A84201D0B04205D14D6922F41B
:105C2000407215438A692A4342608461496841632E
:105C30000362F0BD0000014000040140F0B5026ABB
:105C400022F010020262026A436884690D6824F43B
:105C5000E64444EA05248D6822F0200242EA051257
:105C60000F4D104EA84201D0B04206D1CF6822F0AD
:105C7000800242EA071222F04002A84201D0B0425C
:105C800007D14D6923F4406343EA85038D6943EAF4
:105C9000850343608461496881630262F0BD00004E
:105CA0000000014000040140F0B5026A22F4807255
:105CB0000262026A4368C46922F4007224F0730528
:105CC0000C68124E2C438D6842EA05220E4DA84204
:105CD00001D0B04206D1CF6822F4006242EA072226
:105CE00022F48062A84201D0B04207D14D6923F46A
:105CF000405343EA05138D6943EA05134360C461C9
:105D00004968C1630262F0BD000001400004014027
:105D100030B5026A22F480520262046A4268C369A2
:105D20000D6823F4E64343EA05238D6824F4005408
:105D300044EA0534084DA84202D0084DA84204D1D7
:105D40004D6922F4804242EA85124260C36149688B
:105D50000164046230BD0000000001400004014005
:105D60002DE9F041194E05469846B0781746FF28B0
:105D700001D10020B070C0B2144C401CB070A522FC
:105D80001A342A702180217869706178A970E870CE
:105D900005212846FAF7F0FE2780207868716078A0
:105DA000A871A4F800802078E87160782872B08F1C
:105DB0002080217869726178A97240F48070208017
:105DC0002078E87260782873BDE8F0817C000020BC
:105DD00010B5806B0021C185C184FEF76BFD10BD3D
:105DE00070B5846B2068406994F83910C0F3C01016
:105DF0000025212904D118B1E584204600F046F899
:105E00002068406994F83A10C0F38010222904D128
:105E100018B1E585204600F02BF8E06B40F010004B
:105E2000E0632046FEF746FD70BD10B50146806B6D
:105E300009680968C90513D40021C1850168CA68C9
:105E400022F48072CA6001684A6922F001024A6144
:105E500001684A6922F040024A61202180F83A1024
:105E6000FEF7F6FE10BD10B5806BFEF727FF10BDE4
:105E70000168CA6822F49072CA6001684A6922F017
:105E800001024A61202180F83A1070470168CA680F
:105E900022F0C002CA60202180F83910704710B586
:105EA00090F83A10222901D0022010BD8168B1F586
:105EB000805F11D00169002901681FD0496801F095
:105EC0007F03816A4A1C82620B70C18D491E0904DE
:105ED000090CC18518D02BE00269816A002A02688A
:105EE000526805D0D2B20A80816A491C8162ECE70F
:105EF000C2F308020A80816A891CF7E74A68816A4E
:105F00004B1C83620A70E0E70168CA6822F0200235
:105F1000CA600168CA6822F48072CA6001684A696E
:105F200022F001024A61202180F83A10FEF790FE2B
:105F3000002010BD2DE9F041044600680169E268C7
:105F400021F44051114301612169A068E2690843CD
:105F50006169114308432168CA6849F20C639A4396
:105F60000243CA6020684169A26921F4407111436B
:105F70004161E069192764253226B0F5004F354AA2
:105F8000354920684FF0000806D0884201D0904281
:105F900036D1FDF739FF35E0884201D0904202D179
:105FA000FDF732FF01E0FDF71FFF61684A18A0FB13
:105FB000070148EB0803FAF765F90146B0FBF5F075
:105FC0000201B1FBF5F06FF01803584301EB8000BC
:105FD00006EBC000B0FBF5F000F0F80002EB400269
:105FE000B1FBF5F0584301EB800006EBC000B0FBBD
:105FF000F5F000F00700216810448860BDE8F081EA
:10600000FDF7F2FE61688B0F8A00A0FB0701FAF72B
:1060100039F90146B0FBF5F06FF01802504301EB7F
:10602000800006EB0010B0FBF5F000F0F002B1FBD1
:10603000F5F002EB0012B1FBF5F06FF018035843D6
:1060400001EB800006EB0010B0FBF5F000F00F0054
:10605000D1E70000001401400010014090F8391011
:10606000212901D0022070478168B1F5805F016A63
:106070000BD04A1C0262026809785160C18C491E2B
:106080000904090CC1840ED017E009880268C1F325
:106090000801516001690029016A02D0491C0162AE
:1060A000ECE7891CFBE70168CA6822F08002CA603D
:1060B0000068C16841F04001C160002070470000E5
:1060C0000148FEF701BC0000440800200148FEF72B
:1060D000FBBB00008408002010B504460122FEF737
:1060E0008DFD2068416941F00101416110BDFEE76D
:1060F00030B50C46050014D0022C12D90A48A11E56
:1061000002882846FCF74AFE2919C2B211F8023C5F
:106110009A4206D111F8011CB1EB102F01D10120D8
:1061200030BD002030BD00007800002030B50C46A6
:1061300005000CD0022C0AD9FF22611EFCF744FE98
:10614000291911F8011C814201D1012030BD002024
:1061500030BD00000FB4054B10B503A9044A0298E6
:1061600000F0EAF810BC5DF814FB0000016D0008B7
:10617000E00100200907090E002804DB00F1E020FF
:1061800080F80014704700F00F0000F1E02080F864
:10619000141D704702E008C8121F08C1002AFAD176
:1061A00070477047002001E001C1121F002AFBD197
:1061B000704700002DE9FF5F82B00021DDE9043067
:1061C000020DDDF840B0034318D044F61050A2F29F
:1061D000FF3242431514119801281FD0A5EB0B0084
:1061E000401C5FEA000A4FF000064E4FDFF838917E
:1061F000B046504615D5CAF1000413E011980124A9
:106200004AA3012801D16FEA0B010298119AC0E953
:106210000031C0E9024206B0BDE8F09FCBF10000BA
:10622000DFE704460021404A491842EB0450CDE91B
:10623000001012E0E00707D032463B464046494690
:10624000FAF71CF98046894632463B461046194605
:10625000FAF714F906460F466410002CEAD1DDE97E
:106260000401DDE90023BAF1000F06DAFAF706F9B6
:1062700042464B46FAF702F905E0FAF78CFA424635
:106280004B46FAF788FA04460E460022284BFAF7E6
:1062900009FB03D84FF0FF30014607E00022254BF1
:1062A00020463146FAF743F8FAF7E4FA102409E0F9
:1062B000002C0ADB0A220023F9F7E4FF039B3032AB
:1062C0001A55641E50EA0102F2D1641C039AC4F10B
:1062D00011031444119A012A03D0012208430DD15D
:1062E0000AE0084304D000204FF0110B119072E730
:1062F000A3EB0B056D1E0DE05B4504DD4FF00002C6
:1063000005F1010504E003DA4FF00002A5F10105F3
:10631000002AECD002981199C0E90231C0E9004589
:1063200079E70000000014400000F03F300000005A
:106330000000F0430000E03F2DE9FF4F95B09A4682
:10634000884606460025EEE1252877D10024274619
:10635000F94A0121039400E0044316F8013F203B71
:1063600001FA03F01042F7D130782A2811D06FF0EB
:106370002F033078A0F13002092A16D8039A44F08E
:10638000020402EB820203EB42021044761C0390EB
:10639000EFE758F8042B0392002A03DA504244F442
:1063A0000054039044F00204761C30782E2816D155
:1063B00016F8010F44F004042A280DD06FF02F02C4
:1063C0003078A0F13003092B09D807EB870302EBE3
:1063D0004303C718761CF3E758F8047B761C307823
:1063E0006C280FD006DC4C2817D068280DD06A28FE
:1063F00014D104E0742810D07A280FD10DE044F4B1
:1064000000140AE044F4801401E044F4401472786B
:10641000824202D104F58014761C761C30786628FE
:106420000BD013DC582877D009DC002875D045281C
:10643000F6D04628F4D047281AD193E118E0632813
:1064400035D0642879D0652812D18BE1702873D0BB
:1064500008DC6728F1D069286FD06E280DD06F282E
:1064600006D1ACE073282CD0752874D0782853D08E
:106470005246179990476D1C54E1C4F3025002280C
:1064800009D003280DD0D8F8001004280DD00D60D5
:1064900008F1040846E1D8F80010EA17C1E90052F3
:1064A000F6E7D8F800100D80F2E70D70F0E718F865
:1064B000041B8DF8001000208DF80100EB46012030
:1064C00003E058F804BB4FF0FF3061074FF00001C4
:1064D00002D40DE009F101018946B9420FDA814584
:1064E000F8DB1BF809100029F4D108E009F10101DB
:1064F00089468142FADB1BF809100029F6D103987E
:106500005346A0EB090721463846179A00F080FA57
:10651000284400EB090507E044E008E10DE01BF822
:10652000010B524617999047B9F10109F7D253462A
:1065300021463846179AF2E039E00A21C4F30252A4
:106540004FF0000B0091022A06D058F8040BC11737
:10655000032A09D00AE023E008F1070020F007022F
:10656000F2E80201904605E000B2C117042A01D109
:1065700040B2C117002906DA0A460021404261EB09
:1065800002012D2202E0220504D52B228DF80420E1
:10659000012203E0E20701D02022F7E7914657E00D
:1065A0000A2100E010214FF0000B00910BE01021B8
:1065B0004FF0000B44F004040827009103E008208A
:1065C0004FF0000B0090C4F30252022A05D058F895
:1065D000040B0021032A08D008E008F1070020F08E
:1065E0000702F2E80201904603E080B2042A00D1DB
:1065F000C0B24FF0000922072AD53278702A07D09E
:10660000DDF800C08CF0100C5CEA0B0C05D00EE03D
:1066100040228DF80420012208E050EA010306D050
:1066200030238DF804308DF8052002229146009B1E
:1066300083F0080353EA0B030AD150EA010201D1A7
:10664000620705D530228DF804204FF001097F1E26
:106650003278582A04D039A20C920CAA02920BE08C
:106660003BA2F9E75B46009AF9F70CFE0C9B9B5C9A
:10667000029A521E0292137050EA0102F2D102985D
:1066800004A9081A00F1200B600702D524F4803415
:1066900000E001275F4502DDA7EB0B0000E00020D2
:1066A00000EB0B01009003984944401A0390E0036B
:1066B00006D453462146179A039800F0A9F90544D9
:1066C000002706E001A85246C05D179990476D1C4F
:1066D0007F1C4F45F6DBE0030CD553462146179A45
:1066E000039800F095F9054404E0302052461799CC
:1066F00090476D1C0099481E00900029F5DC08E0C9
:106700000298029952460078491C029117999047C5
:106710006D1CBBF10001ABF1010BF1DC5BE100F0A2
:1067200065F90544761C307800287FF40DAE19B069
:106730002846BDE8F08F00000928010030313233CF
:1067400034353637383961626364656600000000AD
:106750003031323334353637383941424344454697
:1067600000000000600700D4062708F1070020F0B1
:106770000700F0E80223804603F0004C5FEA0C00BB
:1067800001D097A009E0200501D596A005E0E0071B
:1067900001D095A001E0AFF24C001390307823F0C7
:1067A000004365280CD006DC452809D046281DD0BA
:1067B00047287FD13BE0662818D067287AD136E099
:1067C0000021112F01DB112000E0781CCDE9000130
:1067D00004A90CA8FFF7EEFCDDE90D010C9A4FF0BF
:1067E000000B07F10109109200914EE04FF00040BC
:1067F0000097CDE9011004A90CA8FFF7DBFCDDE947
:106800000D020C9B0F994FF0000B914610930092D4
:1068100011B9791C00EB0109B7EB090003D4C0F1F1
:10682000FF3B07F10109A9EB0700019042E0012FAE
:1068300000DA01270021112F01DD112000E0384688
:10684000CDE9000104A90CA8FFF7B4FCDDE90D01B6
:106850000C9A00914FF0000BB946109221070FD40B
:10686000009A4A4503DA914601E0A9F10109B9F11C
:10687000010F05DD109AA9F10101515C3029F4D016
:10688000B84202DA10F1040F03DA0121CDE9011058
:1068900010E0002803DC8344A9EB000102E0411C66
:1068A000494500DD8946A0EB0B00401C01904FF0EC
:1068B00000400290200705D40198484502DB4FF0C4
:1068C000FF30019000208DF84B0002980DF14B072E
:1068D000B0F1004F25D002200C902B200D90029893
:1068E00000280CDA404202902D200D9007E00A218A
:1068F0000298F9F775FE3031029007F8011D0C99E6
:10690000481E0C900029F2DC02980028EFD1791E75
:106910000D980870307800F0200040F0450007F82E
:10692000020D11A8C01BC01D02901398007800B181
:10693000012000EB0901019801EBE071029801448C
:106940000398401A401E0390E00306D453462146A4
:10695000179A039800F05CF805441398007818B172
:106960005246179990476D1CE00323D553462146A4
:10697000179A039800F04CF805441BE0BBF1000F98
:1069800007DB0098584504DD1098179910F80B00A4
:1069900001E0179930205246904701980BF1010B06
:1069A000401E05F10105019004D12E205246179991
:1069B00090476D1CB9F10001A9F10109DEDC05E089
:1069C00017F8010B5246179990476D1C0299481E03
:1069D00002900029F4DC53462146179A03989EE65C
:1069E0002D0000002B000000200000002DE9F041E8
:1069F000044600251E461746880404D405E039469F
:106A00002020B0476D1C641EF9D52846BDE8F081F2
:106A10002DE9F041044600251E469046C80301D5E5
:106A2000302700E02027880404D505E04146384699
:106A3000B0476D1C641EF9D52846BDE8F081000002
:106A40002DE9F0410024FAF7ADF88020FAF7BEF9FD
:106A50005520FAF7BBF95520FAF7B8F9FAF79AF882
:106A60009620FAF7C6F8FAF79DF88020FAF7AEF903
:106A70005520FAF7ABF95520FAF7A8F9FAF78AF892
:106A80009620FAF7B6F8FAF78DF8B6217E20FAF7D5
:106A9000ADF9FAF77FF85020FAF79FF8FAF782F885
:106AA0008020FAF793F95520FAF790F95520FAF774
:106AB0008DF9FAF76FF89620FAF79BF8FAF772F863
:106AC0008020FAF783F95520FAF780F95520FAF774
:106AD0007DF90546FAF75EF89620FAF78AF81E2D3A
:106AE00002D0FF20BDE8F081184D00BFFAF75AF838
:106AF00004EB44067719A85D7978FAF777F9FAF785
:106B000049F89620FAF775F8FAF74CF8A85D40F0C6
:106B10008000FAF75BF95520FAF758F95520FAF793
:106B200055F90646FAF736F89620FAF762F87878BB
:106B3000B04204D004EB440028448078D2E7641CBF
:106B4000E4B2062CD2D30020CCE70000BC01002028
:106B5000F8B500248DF80040FAF736F869460020B1
:106B6000FAF728F9FAF728F89620FAF742F8FAF730
:106B70002BF869460020FAF71DF9FAF71DF8962060
:106B8000FAF737F8FAF720F8B6211420FAF72EF9B9
:106B9000FAF712F85020FAF720F8FAF715F86946D4
:106BA0000020FAF707F9FAF707F89620FAF721F824
:106BB000FAF70AF869460020FAF7FCF8F9F7FCFF43
:106BC0009620FAF716F89DF800000F2801D0FF2054
:106BD000F8BD154DF9F7F8FF04EB44067719A85DE9
:106BE0007978FAF703F9F9F7E7FF9620FAF701F851
:106BF000F9F7EAFFA85D6946FAF7DCF8F9F7DCFF78
:106C00009620F9F7F6FF78789DF80010884204D0B6
:106C100004EB440028448078F8BD641CE4B2062CE0
:106C2000D8D30020F8BD0000CE01002010B50446E6
:106C300025A1FBF7B1F9002844D124A12046FBF798
:106C4000ABF900283ED122A12046FBF7A5F9002888
:106C500038D120A12046FBF79FF9002832D11EA190
:106C60002046FBF799F968BB1CA12046FBF794F975
:106C700040BB1BA12046FBF78FF918BB19A120468A
:106C8000FBF78AF9F0B918A12046FBF785F9C8B9D6
:106C900016A12046FBF780F9A0B915A12046FBF705
:106CA0007BF978B913A12046FBF776F950B912A108
:106CB0002046FBF771F928B910A12046FBF76CF9C3
:106CC000002800D0002010BD7100000077000000F7
:106CD0006500000061000000730000006400000017
:106CE0007200000075000000690000006F000000E5
:106CF0006A0000006B0000006C00000070000000E3
:106D000003490A685206FCD5C2B24A6070470000C7
:106D100000100140FCF738FFFEF78AFEFEF7AAF9E3
:106D2000FEF74EF9FEF7B6FAFEF7D0FAFEF7FEF8D8
:106D3000FEF720F9FEF758FAFEF77AFAFEF7F0FAB6
:106D4000FEF7E0FAF9F76CFF0028FBD1FEF75EF9D9
:106D500000F071F8FEE701460020842900D0C81C2D
:106D60007047000000B51048104987B090ED022B25
:106D700081ED022B90ED041B53EC122B81ED041BD3
:106D800090ED060B81ED060B90ED083B08A081ED20
:106D9000083B8DED043B8DED020B8DED001BFFF7E5
:106DA000D9F907B000BD0000A00A00203000002083
:106DB00050313D2566202049313D25662020443153
:106DC0003D2566202053313D25660D0A0000000058
:106DD0001FB50E480E4990ED021B81ED0A1B90ED88
:106DE000040B53EC112B81ED0C0B90ED062B81ED78
:106DF0000E2B90ED083B07A081ED103B8DED022B93
:106E00008DED000BFFF7A6F91FBD0000A00A0020C2
:106E100030000020503D25662020493D2566202079
:106E2000443D25660D0A000010B500B9012000F0B0
:106E3000B1FD002010BD10B500F014FE002010BD03
:106E40007FB50D4604464169B0F9080081B1A169DA
:106E500071B1FFF780FFD4E905128DE80700D4E98E
:106E600000102B46226901F09CF9039004B070BD1C
:106E7000FFF771FF03A9CDE90001208A2B4682B2FA
:106E8000D4E9001001F060F9012801D00020EDE7FD
:106E90000398EBE72DE9F041184C0F46054666696B
:106EA0002068001D00F046FC38B9206890F82C10CE
:106EB00001208840A1698143A161681C07D137B1D5
:106EC0002168BDE8F0410E48091D00F082BC206831
:106ED0003544B5424560216805D2A068BDE8F0415F
:106EE000091D00F05EBC6068091D00F05AFC206BB3
:106EF000854200D22563BDE8F08100003801002002
:106F0000301F00202DE9F041054600F06FFC2E4CAB
:106F10002069401C206120682C4F10B1E06940B30B
:106F20002DE025602069012829D1002606EB860086
:106F300007EB800000F027FC761C072EF6D32348D1
:106F40008C3000F020FC2148A03000F01CFC1F48D1
:106F5000B43000F018FC1D48C83000F014FC1B4889
:106F6000DC3000F010FC19488C3060601430A060F8
:106F700005E02068E96AC06A884200D82560E06AB6
:106F8000401CE0626864E96A0120A26988401043FD
:106F9000A06101EB810007EB8000291D00F019FCC6
:106FA00000F044FCE06900280CD02068E96AC06A5F
:106FB000884207D206494FF080500860BFF34F8FD8
:106FC000BFF36F8FBDE8F08138010020541E002010
:106FD00004ED00E038B500F009FC104CA068C8B919
:106FE0000F4800F0D0FB0E48143000F0CCFB0C48EA
:106FF0002060143060600A4B00202833009003F1B9
:1070000050020C210A2000F043FEA06010B105A13F
:1070100000F08AFCBDE8384000F008BC7401002094
:10702000441F0020546D72510000000030B4026C07
:107030000B46002A0BD0C1681144C1608468A1428C
:1070400001D30168C16030BC1846F9F74CB930BCB7
:1070500070472DE9F041856B174604460026026C07
:1070600082B1C7B1E068F9F73EF9E168206C091A0E
:10707000E1602268914202D2A168081AE060022F02
:1070800016D017E02068A8B9A06801F02DF90646CF
:107090000020A0600EE06068F9F725F9216C6068B7
:1070A00008446060A168884204D32068606001E001
:1070B00005B16D1E6D1CA5633046BDE8F08110B5AD
:1070C000044690F8590058B101280CD002280FD07E
:1070D000502080F31188BFF34F8FBFF36F8FFEE70F
:1070E000206B00F0B7FB2046BDE8104000F0B2BBBB
:1070F00010BD000010484FF4FA51420706D0C01DE1
:107100000D4920F00700411AC1F5FA510B4A00233E
:107110000144C2E900030839103A21F00701116067
:107120004B600B600B1AC0E9001393604FF00040F6
:107130005360D06070470000342000209801002088
:10714000144E154CA6F1C8074FF08058DFF84C904C
:1071500012E000BF00F04AFBF068C568281D00F08F
:10716000E9FA2069401E2061E068401EE06000F0FE
:107170005DFB2846FFF7A3FFE0680028EAD13868E6
:107180000128F9D9C9F80080BFF34F8FBFF36F8F83
:10719000F2E700001C1F00203801002004ED00E091
:1071A00070B51D46049C51B1C4F80020C4E90F011C
:1071B0000121204600F0A0FD84F84C5070BD2460F1
:1071C000F4E700002DE9F05F8846DDE90B941546F1
:1071D000834691009A460A9EA522206BF9F795F8FE
:1071E0006FF00301206B01EB8501084420F00707D5
:1071F000780707D0502080F31188BFF34F8FBFF37B
:107200006F8FFEE70025B8F1000F0FD05FF0000090
:10721000221818F8001082F8341018F8001011B174
:10722000401C1028F4D384F8435001E084F8345013
:10723000072E00D30626E662C4E91365201D00F080
:10724000ADFA04F1180000F0A9FA2461C6F10700B4
:107250006462A061656584F85850524659463846C4
:1072600000F052FA2060B9F1000F01D0C9F80040D7
:10727000BDE8F09F30B5114900E011460A6882422E
:10728000FBD34B685C18844203D1406818444860C3
:10729000084643681C18944209D1084C103C2468E5
:1072A000A24209D052681A4442600A681268026019
:1072B000814200D0086030BD0460F9E798010020E9
:1072C00070B5002441600B4D0061914206D8D11A7F
:1072D0008269914206D2011D686807E09A4203D292
:1072E000994201D3012403E0011D286800F059FAF6
:1072F000204670BD7401002010B5044600F076FAF7
:10730000A06B28B15FF0000400F090FA204610BD99
:107310000124F9E730B587B0394D67E004980028BB
:1073200064DB069C606910B1201D00F003FA03A81D
:1073300000F0D8F8024604980A2857D2DFE800F097
:107340000505052D334A05052D3394F8280040F036
:10735000010084F828000599A069059B0144204696
:10736000FFF7AEFF68B3216A2046884794F82800EB
:1073700040073BD5002000900598A16900234218E2
:107380001946204601F0C8F8D8B9502080F311887A
:10739000BFF34F8FBFF36F8FFEE714F8280F20F075
:1073A0000100207022E094F8280040F0010084F8E9
:1073B00028000598A06128B1811813462046FFF7E0
:1073C0007FFF13E0502080F31188BFF34F8FBFF38E
:1073D0006F8FFEE794F82800810703D4204600F061
:1073E00039FA03E020F0010084F82800002204A903
:1073F000A86800F0D3FD002890D107B030BD000090
:10740000740100202DE9FC410F46054600F06EFB9B
:1074100001A800F067F80446019818B100F0EAFFEF
:10742000BDE8FC81254EAFB170680068D0B300277D
:10743000291B3A46B06800F08BFA00F0DBFF002809
:10744000EED11F494FF080500860BFF34F8FBFF35C
:107450006F8FE5E7A542EBD800F0CCFF30682746F8
:10746000C068C468201D00F065F994F82800410741
:1074700019D5A0692B4641193A462046FFF720FF4F
:10748000A8B100200346014600902A46204601F09C
:1074900043F860B9502080F31188BFF34F8FBFF3DA
:1074A0006F8FFEE707E020F0010084F82800216AD2
:1074B00020468847B4E70127BAE70000740100209E
:1074C00004ED00E006484168096829B14168C968CF
:1074D000C9684968016370474FF0FF31FAE700005F
:1074E0003801002070B5054600F094FE064E0446B3
:1074F0003069844203D200F009F8012000E0002046
:1075000028602046346170BD74010020F8B5194D23
:1075100020E0C068C4680668201D00F00BF9216AED
:107520002046884794F82800400713D5A0693044C6
:10753000B04206D924616060211D286800F031F94D
:1075400008E000200346014600903246204600F045
:10755000E3FF38B1286801680029DAD16968C5E914
:107560000010F8BD502080F31188BFF34F8FBFF398
:107570006F8FFEE77401002008484068401C4FF000
:10758000500080F3118804D0BFF34F8FBFF36F8F8B
:10759000FEE7BFF34F8FBFF36F8FFEE7A001002020
:1075A000074C2068016841B1C0680021D0F8000094
:1075B000FFF728FFFFF7AEFEF3E701210020F7E712
:1075C000740100202DE9F041044600F00FF994F910
:1075D000455004F1240609E0606A48B1304600F0E5
:1075E000CFFE08B100F004FA6D1E6DB2002DF3DC81
:1075F0004FF0FF3684F8456000F018F900F0F6F817
:1076000094F9445004F1100709E0206948B1384664
:1076100000F0B6FE08B100F0EBF96D1E6DB2002D62
:10762000F3DC84F84460BDE8F04100F0FFB80000EE
:107630002DE9F0410546002700F058FA314E306838
:1076400008B9FFF757FDF06805424BD1C5B30835BF
:1076500068070ED005F00700C0F108000544680770
:1076600007D0502080F31188BFF34F8FBFF36F8F87
:10767000FEE72DB37068854234D8224810300146A9
:107680000C6801E020460C466168A94202D22168DC
:107690000029F7D131688C4224D007682168016045
:1076A00060680837411B10290FD96019420708D0BC
:1076B000502080F31188BFF34F8FBFF36F8FFEE729
:1076C00010E041606560FFF7D5FD61687068401AA1
:1076D0007060B268904200D2B060F0680143002050
:1076E000C4E9000100F086FE780707D0502080F33F
:1076F0001188BFF34F8FBFF36F8FFEE73846BDE8A9
:10770000F08100008801002010B5031F4FF0807445
:107710001C601B1F21F001011960191F044B0B6035
:1077200014390A60091F6FF0020244380A6010BD64
:1077300079750008D0E9013201699A60D0E9012326
:107740005A604A68824201D182684A60002202611E
:107750000868401E0860086870470000034B03601B
:1077600003F15C000860802010607047E401002095
:10777000034B036003F15C000860802010607047D9
:1077800040040020704700F108014FF0FF32C0E9CB
:107790000112C16001610021016070470021016197
:1077A000704730B50B685A1C02D000F1080202E0A5
:1077B000026904E02246546825689D42FAD953685C
:1077C0004B6099608A60516008610168491C0160E2
:1077D00030BD42684A6093688B60936859609160DD
:1077E00008610168491C016070470000502080F367
:1077F0001188BFF34F8FBFF36F8F0A494868401C51
:10780000486001280CD10848006810F0FF0F07D02D
:10781000502080F31188BFF34F8FBFF36F8FFEE7C7
:1078200070470000A001002004ED00E0084948680E
:1078300028B1401E486001D180F311887047502064
:1078400080F31188BFF34F8FBFF36F8FFEE7000007
:10785000A001002070B5002827D0144DA0F1080425
:107860006168E868014207D1502080F31188BFF3B6
:107870004F8FBFF36F8FFEE722683AB1502080F33D
:107880001188BFF34F8FBFF36F8FFEE781436160B5
:1078900000F02CF960686968084468602046FFF7CA
:1078A000E9FCBDE8704000F0A5BD70BD8801002076
:1078B0004FF0E02000210161816105494FF47A72A7
:1078C0000968B1FBF2F1491E41610721016170476E
:1078D0002000002010B5F8F7BFFC114910280ED386
:1078E00000F1E02090F8F0030A78904207D250208F
:1078F00080F31188BFF34F8FBFF36F8FFEE7094806
:107900000068896800F4E060884207D9502080F35D
:107910001188BFF34F8FBFF36F8FFEE710BD0000DC
:10792000A00100200CED00E010B5084B002200BFC4
:1079300053F832401CB1521C082AF9D310BD43F849
:10794000321003EBC201486010BD0000141E00207D
:1079500070B515460E460446FFF748FF94F94410EB
:107960000020491C01D184F8440094F94510491CB9
:1079700001D184F84500FFF759FFA06B28B92A46CA
:10798000314604F1240000F051F82046BDE8704073
:10799000FFF718BE10B5020014D00F48806B38B145
:1079A000502080F31188BFF34F8FBFF36F8FFEE736
:1079B00000F09CF800211046FFF76CFA00F01AFD69
:1079C000002807D105494FF080500860BFF34F8F62
:1079D000BFF36F8F10BD00003801002004ED00E000
:1079E00002498A6A02604969416070473801002093
:1079F00001490120486270473801002010B50C464B
:107A000050B1094909681831FFF7CBFE2046BDE89F
:107A100010400121FFF73EBA502080F31188BFF3D8
:107A20004F8FBFF36F8FFEE73801002070B514460B
:107A30000D4668B10A4909681831FFF7CAFE0CB152
:107A40004FF0FF3521462846BDE87040FFF722BAC7
:107A5000502080F31188BFF34F8FBFF36F8FFEE785
:107A60003801002030B587B00024039405AA04A98A
:107A700003A80494FFF772FEDDE903010094CDE949
:107A80000110002315A11748059A00F08AFB164D36
:107A9000002868631FD000F00FFD012809D0401CAA
:107AA00019D1502080F31188BFF34F8FBFF36F8F30
:107AB000FEE7502080F31188BFF34F8FBFF36F8F25
:107AC0004FF0FF3028630120E8616C6107B0BDE82A
:107AD000304000F04DB807B030BD000049444C457F
:107AE0000000000041710008380100200248816B4D
:107AF000491C8163704700003801002010B51A4C02
:107B0000A06B10B10120606210BD0020606220688F
:107B100021680068096B884204D8216820683431E4
:107B2000FFF730FEA0691149B0FA80F0C0F11F00E4
:107B300000EB800051F820206AB101EB800000F1D9
:107B40000802416849684160914201D14968416039
:107B5000C868206010BD502080F31188BFF34F8F9C
:107B6000BFF36F8FFEE7000038010020541E002095
:107B70001CB537480168374A914207D1502080F33D
:107B80001188BFF34F8FBFF36F8FFEE70068314955
:107B9000491E884207D1502080F31188BFF34F8FD0
:107BA000BFF36F8FFEE72C4908780190FF20087023
:107BB00008788DF800009DF800009DF8002000F086
:107BC000F000904207D0502080F31188BFF34F8F10
:107BD000BFF36F8FFEE79DF80000204B00F05000D0
:107BE00018700720986005E09DF8002052008DF87D
:107BF0000020401E9DF800201206F5D4986003284E
:107C000007D0502080F31188BFF34F8FBFF36F8FE1
:107C1000FEE74FF440709860019808700C482030DF
:107C2000016841F470010160016841F07041016038
:107C3000FFF73EFE00205860F8F7D6FA08480168C2
:107C400041F040410160F8F7BBFA00201CBD000084
:107C500000ED00E071C20F4100E400E0A00100204F
:107C600034EF00E010B5502080F31188BFF34F8F40
:107C7000BFF36F8F00F0D4FA18B104494FF0805071
:107C80000860002080F3118810BD000004ED00E0C2
:107C900038B5049D18B153B1CAB181B120E050206C
:107CA00080F31188BFF34F8FBFF36F8FFEE7502033
:107CB00080F31188BFF34F8FBFF36F8FFEE7502023
:107CC00080F31188BFF34F8FBFF36F8FFEE739B199
:107CD000502080F31188BFF34F8FBFF36F8FFEE703
:107CE00050241C46012384F846302B460094FFF7AD
:107CF00057FA204638BD000070B50D46040025D067
:107D0000FFF774FDD4E90F20216802FB0011A16088
:107D10000021A163216861600A46D4E90F01401E79
:107D200000FB0121E16021464FF0FF3001F8440FD4
:107D3000487004F110008DB1FFF725FD04F1240017
:107D4000FFF721FDFFF772FD012070BD502080F389
:107D50001188BFF34F8FBFF36F8FFEE721690029B2
:107D6000F0D000F00DFB0028ECD004494FF080501B
:107D70000860BFF34F8FBFF36F8FE3E704ED00E0C0
:107D80002DE9FF4782B01D468A464FF000080400E7
:107D900003D0BAF1000F08D011E0502080F3118811
:107DA000BFF34F8FBFF36F8FFEE7206C38B15020C9
:107DB00080F31188BFF34F8FBFF36F8FFEE7022D63
:107DC0000AD1E06B012807D0502080F31188BFF35F
:107DD0004F8FBFF36F8FFEE700F00EFA3F4F4FF06B
:107DE00000094FF0805648B9049838B1502080F30C
:107DF0001188BFF34F8FBFF36F8FFEE7FFF7F6FCDD
:107E0000A06BE16B884207D3022D05D00498D0B156
:107E1000B8F1000F1AD01EE02A4651462046FFF75F
:107E200018F9616A19B104F1240000F0A9FA20B12F
:107E30003E60BFF34F8FBFF36F8FFFF7F7FC01205A
:107E400006B0BDE8F087FFF7F1FC22E06846FFF7D7
:107E5000C7FD4FF00108FFF7E9FCFFF747FEFFF70A
:107E6000C5FC94F94400401C01D184F8449094F975
:107E70004500401C01D184F84590FFF7D7FC04A9C8
:107E8000684600F027F930B12046FFF79BFB00F071
:107E9000B1FA0020D4E7FFF7A9FCA06BE16B8842A0
:107EA00013D1FFF7C3FC04F110000499FFF7A6FDFE
:107EB0002046FFF787FB00F09DFA00289ED13E6028
:107EC000BFF34F8FBFF36F8F98E7FFF7AFFC2046EC
:107ED000FFF778FB00F08EFA90E7000004ED00E079
:107EE0002DE9F0471F4690468946040003D0B9F1BA
:107EF000000F08D011E0502080F31188BFF34F8F9E
:107F0000BFF36F8FFEE7206C38B1502080F31188EB
:107F1000BFF34F8FBFF36F8FFEE7022F0AD1E06BE5
:107F2000012807D0502080F31188BFF34F8FBFF393
:107F30006F8FFEE7FFF7CEFC5020EFF3118680F342
:107F40001188BFF34F8FBFF36F8FA06BE16B884237
:107F500006D3022F04D0002086F31188BDE8F087F5
:107F600094F945503A4649462046FFF772F8681C96
:107F700004D06D1C84F845500120EDE7606A0028AC
:107F8000FAD004F1240000F0FBF90028F4D0B8F195
:107F9000000FF1D00121C8F80010EDE72DE9F747F7
:107FA000002683B08A46040003D0BAF1000F08D03F
:107FB00011E0502080F31188BFF34F8FBFF36F8F14
:107FC000FEE7206C38B1502080F31188BFF34F8F4B
:107FD000BFF36F8FFEE700F00FF9DFF8F4804FF08A
:107FE00000094FF0805748B9059838B1502080F308
:107FF0001188BFF34F8FBFF36F8FFEE7FFF7F6FBDC
:10800000A56BC5B151462046FFF710F86D1EA5635C
:10801000206950B104F1100000F0B2F928B1C8F89D
:108020000070BFF34F8FBFF36F8FFFF7FFFB01208F
:1080300006B0BDE8F087059808B11EB106E0FFF76D
:10804000F5FB27E06846FFF7CBFC0126FFF7EEFBC8
:10805000FFF74CFDFFF7CAFB94F94400401C01D127
:1080600084F8449094F94500401C01D184F845906F
:10807000FFF7DCFB05A9684600F02CF80028204635
:108080000AD0FFF79FFA00F0B5F92046FFF734F960
:108090000028B3D00020CBE7FFF72EF990B104F110
:1080A00024000599FFF7AAFC2046FFF78BFA00F0A1
:1080B000A1F90028A2D1C8F80070BFF34F8FBFF319
:1080C0006F8F9BE72046FFF77DFA00F093F995E765
:1080D00004ED00E02DE9F0410C46050011D0C4B1DB
:1080E000FFF784FB174B5A696E682068911B471C89
:1080F00017D02F689B6A9F4219D0964217D8012447
:1081000010E0502080F31188BFF34F8FBFF36F8FC3
:10811000FEE7502080F31188BFF34F8FBFF36F8FBE
:10812000FEE70024FFF782FB2046BDE8F08188428D
:1081300005D9401A20602846FFF752FCF1E70020DD
:108140002060DCE7380100202DE9FF5F8346DDE990
:108150000E87994616468A469000FFF769FA050091
:108160001CD05C20FFF764FA040014D000202563C3
:1081700084F85900CDE90240CDE900874B463246EC
:1081800051465846FFF71EF82046FEF7BBFE012079
:1081900004B0BDE8F09F2846FFF75CFB4FF0FF30CE
:1081A000F6E7F0B585B0DDE90B640A9DA6B1DCB158
:1081B0005C2700972663022684F85960002604AFE6
:1081C000CDE90246CDE90057FEF7FCFF2046FEF759
:1081D00099FE049805B0F0BD502080F31188BFF3DC
:1081E0004F8FBFF36F8FFEE7502080F31188BFF3EE
:1081F0004F8FBFF36F8FFEE70548C16919B1806BE0
:1082000018B100207047012070470220704700001D
:108210003801002001484069704700003801002003
:108220002DE9F0412E4C0027A06B40B1206A401C84
:108230002062606A00B101273846BDE8F0816669B6
:10824000761C666113D16068006838B1502080F3F5
:108250001188BFF34F8FBFF36F8FFEE76068A1688F
:108260006160A060A06A401CA062FFF72BF9206B40
:10827000DFF87080864209D36068006880B160686A
:10828000C068C568686886420DD220632068C06AED
:1082900000EB800158F821000128CAD90127C8E75E
:1082A0004FF0FF30F1E7281DFFF744FAA86A18B134
:1082B00005F11800FFF73EFAE86A0121A269814042
:1082C0001143A16100EB800108EB8100291DFFF73C
:1082D00080FAE86A2168C96A8842CDD30127CBE7D2
:1082E00038010020541E002070B504004FF000013A
:1082F00040D0214D2868844207D0502080F3118857
:10830000BFF34F8FBFF36F8FFEE7206D38B1401E74
:108310002065E36CE26A9A422CD040B12AE05020FA
:1083200080F31188BFF34F8FBFF36F8FFEE7201DDF
:10833000FFF700FA114A012150B9E06A00EB80030F
:1083400052F8233023B9AB6901FA00F08343AB61E3
:10835000E06CE062C0F10700A061E06AAB698140B7
:108360001943A96100EB800002EB8000211DFFF79B
:1083700030FA0121084670BD38010020541E00204B
:108380002DE9F041C068C468ACB104F1180007469B
:10839000FFF7D0F9154DA86B0126A0B13946144856
:1083A000FFF717FAE06A2968C96A88421CD90120D8
:1083B0006E62BDE8F081502080F31188BFF34F8FCB
:1083C000BFF36F8FFEE7201DFFF7B4F9E16AAA69DA
:1083D00006FA01F01043A86101EB81000449B439A9
:1083E00001EB8000211DDBE70020E2E738010020DF
:1083F000081F00202DE9F0472C4D00242746A86BCC
:1084000038B1FFF7F3F9A86B401EA863A86B40B121
:1084100046E0502080F31188BFF34F8FBFF36F8F7A
:10842000FEE72969224E0120D1B3A6F1B4098046A6
:108430003068E8B1F068C46804F11800FFF77AF911
:10844000201DFFF777F9E06AAA6908FA00F11143E5
:10845000A96100EB800109EB8100211DFFF7B9F94B
:10846000E06A2968C96A8842E2D3C5F82480DFE758
:108470000CB1FFF727F82C6A44B14646FFF7D0FE4F
:1084800000B16E62641EF9D100202862686A38B1BA
:108490000849012738070860BFF34F8FBFF36F8F7C
:1084A000FFF7C4F93846BDE8F08700003801002026
:1084B000081F002004ED00E010B586B0FEF78AFD2D
:1084C000114CA068B8B100200390049005AA04A93B
:1084D00003A8FFF74DF9DDE9032102208DE807002D
:1084E00000230AA10B48059AFFF75BFEE06010B17C
:1084F00006B0012010BD502080F31188BFF34F8FCC
:10850000BFF36F8FFEE7000074010020546D7220EE
:1085100053766300A1750008FEB51E46134602009F
:10852000089D4FF0000014D0124CA768002F0FD008
:10853000CDE900130292062915DAFFF75DFE022845
:108540004FF000030DD000226946A068FFF718FC29
:10855000FEBD502080F31188BFF34F8FBFF36F8FA4
:10856000FEE72A46F0E70023324669463846FFF721
:10857000B7FCFEBD74010020388900089154000842
:10858000FDFF00000000000080000000000000006F
:1085900000000000148900089B540008FFFF000041
:1085A00000000000000100000000000000000000CA
:1085B00020890008A9540008FEFF00000000000008
:1085C0000001000000000000000000002C890008ED
:1085D000D5540008FEFF000000000000000100006C
:1085E0000000000000000000000610160006101633
:1085F0000000000000000000010203040607080953
:108600000000000001020304005EBCE2613FDD8364
:10861000C29C7E20A3FD1F419DC3217FFCA2401E62
:108620005F01E3BD3E6082DC237D9FC1421CFEA052
:10863000E1BF5D0380DE3C62BEE0025CDF81633D42
:108640007C22C09E1D43A1FF4618FAA427799BC532
:1086500084DA3866E5BB5907DB856739BAE4065822
:108660001947A5FB7826C49A653BD987045AB8E612
:10867000A7F91B45C6987A24F8A6441A99C7257B02
:108680003A6486D85B05E7B98CD2306EEDB3510FF2
:108690004E10F2AC2F7193CD114FADF3702ECC92E2
:1086A000D38D6F31B2EC0E50AFF1134DCE90722CD2
:1086B0006D33D18F0C52B0EE326C8ED0530DEFB1C2
:1086C000F0AE4C1291CF2D73CA947628ABF51749B2
:1086D0000856B4EA6937D58B5709EBB536688AD4A2
:1086E00095CB2977F4AA4816E9B7550B88D6346A92
:1086F0002B7597C94A14F6A8742AC896154BA9F782
:10870000B6E80A54D7896B350000891112239B32D1
:108710002446AD573665BF74488CC19D5AAFD3BE51
:108720006CCAE5DB7EE9F7F88110080193331A2261
:10873000A5562C47B7753E64C99C408DDBBF52AE31
:10874000EDDA64CBFFF976E802218B301002991341
:108750002667AF763444BD554AADC3BC588ED19F11
:108760006EEBE7FA7CC8F5D983310A209112180321
:10877000A7772E66B5543C45CBBD42ACD99E508FF1
:10878000EFFB66EAFDD874C904428D5316619F70F1
:108790002004A9153227BB364CCEC5DF5EEDD7FCD1
:1087A0006888E1997AABF3BA85520C4397711E60E1
:1087B000A1142805B3373A26CDDE44CFDFFD56ECB1
:1087C000E9986089FBBB72AA06638F7214409D51C1
:1087D0002225AB343006B9174EEFC7FE5CCCD5DD91
:1087E0006AA9E3B8788AF19B87730E6295501C41A1
:1087F000A3352A24B1163807CFFF46EEDDDC54CD71
:10880000EBB962A8F99A708B088481951AA793B680
:108810002CC2A5D33EE1B7F04008C919522BDB3A70
:10882000644EED5F766DFF7C899400859BB712A640
:10883000ADD224C3BFF136E0C1184809D33B5A2A50
:10884000E55E6C4FF77D7E6C0AA583B41886919720
:108850002EE3A7F23CC0B5D14229CB38500AD91B30
:10886000666FEF7E744CFD5D8BB502A49996108700
:10887000AFF326E2BDD034C1C3394A28D11A580B10
:10888000E77F6E6EF55C7C4D0CC685D71EE597F4D0
:108890002880A1913AA3B3B2444ACD5B5669DF78F0
:1088A000600CE91D722FFB3E8DD604C79FF516E4C0
:1088B000A9902081BBB332A2C55A4C4BD7795E68D0
:1088C000E11C680DF33F7A2E0EE787F61CC495D5A0
:1088D0002AA1A3B03882B193466BCF7A5448DD59B0
:1088E000622DEB3C700EF91F8FF706E69DD414C580
:1088F000ABB122A0B9923083C77B4E6AD5585C4990
:10890000E33D6A2CF11E780FC8890008048A00082C
:108910000C8A00086D795461736B303200000000DE
:108920006D795461736B3033000000006D795461D0
:10893000736B30340000000064656661756C7454BC
:1089400061736B004E554C4C2020202020202000CD
:10895000454E434F44452020202020004D414E5598
:10896000414C2020202020004E554C4C202020201F
:1089700020000000544F5020202020200000000044
:10898000465249433A2020202000000053544F50C3
:10899000202020200000000046554C4C5F564953D3
:1089A000202020004150415254202020000000008F
:1089B000464F4C4C4F5720202000000048414C4669
:1089C0005F564953202000004F50454E21210000A2
:1089D00047494D42414C5F4D4F44453A000000002D
:1089E0004348415349535F4D4F44453A000000000E
:1089F00050495443483A0000434150564F4C543A72
:108A000000000000434C4F53454400004552524F74
:108A100052000000348A000800000020E401000039
:108A2000F8080008BC8A0008E4010020AC410000FE
:108A3000A46100080114320182103324F42A901337
:108A4000014D0314FFFF12640C434D01A66C13F09B
:108A5000891B08F8041AE0041AD0041A80041A6862
:108A6000041AA4041AB0041A74041A8C041A4404D4
:108A70001A5C041A50041A98041ABC041AC8041385
:108A8000048A1B080C0401841AAA01C1100DE741D5
:108A90006B3A58A08B3A7D04017C160240AB03412F
:108AA0001009055308065804070F1608108209110B
:0C8AB000160A15800B16450C18010D006D
:040000050800018965
:00000001FF
