Component: ARM Compiler 5.06 update 7 (build 960) Tool: armlink [4d3601]

==============================================================================

Section Cross References

    startup_stm32f407xx.o(RESET) refers to startup_stm32f407xx.o(STACK) for __initial_sp
    startup_stm32f407xx.o(RESET) refers to startup_stm32f407xx.o(.text) for Reset_Handler
    startup_stm32f407xx.o(RESET) refers to stm32f4xx_it.o(i.NMI_Handler) for NMI_Handler
    startup_stm32f407xx.o(RESET) refers to stm32f4xx_it.o(i.HardFault_Handler) for HardFault_Handler
    startup_stm32f407xx.o(RESET) refers to stm32f4xx_it.o(i.MemManage_Handler) for MemManage_Handler
    startup_stm32f407xx.o(RESET) refers to stm32f4xx_it.o(i.BusFault_Handler) for BusFault_Handler
    startup_stm32f407xx.o(RESET) refers to stm32f4xx_it.o(i.UsageFault_Handler) for UsageFault_Handler
    startup_stm32f407xx.o(RESET) refers to port.o(.emb_text) for SVC_Handler
    startup_stm32f407xx.o(RESET) refers to stm32f4xx_it.o(i.DebugMon_Handler) for DebugMon_Handler
    startup_stm32f407xx.o(RESET) refers to stm32f4xx_it.o(i.SysTick_Handler) for SysTick_Handler
    startup_stm32f407xx.o(RESET) refers to stm32f4xx_it.o(i.EXTI4_IRQHandler) for EXTI4_IRQHandler
    startup_stm32f407xx.o(RESET) refers to stm32f4xx_it.o(i.CAN1_TX_IRQHandler) for CAN1_TX_IRQHandler
    startup_stm32f407xx.o(RESET) refers to stm32f4xx_it.o(i.CAN1_RX0_IRQHandler) for CAN1_RX0_IRQHandler
    startup_stm32f407xx.o(RESET) refers to stm32f4xx_it.o(i.EXTI9_5_IRQHandler) for EXTI9_5_IRQHandler
    startup_stm32f407xx.o(RESET) refers to stm32f4xx_it.o(i.TIM1_UP_TIM10_IRQHandler) for TIM1_UP_TIM10_IRQHandler
    startup_stm32f407xx.o(RESET) refers to stm32f4xx_it.o(i.USART1_IRQHandler) for USART1_IRQHandler
    startup_stm32f407xx.o(RESET) refers to stm32f4xx_it.o(i.DMA2_Stream1_IRQHandler) for DMA2_Stream1_IRQHandler
    startup_stm32f407xx.o(RESET) refers to stm32f4xx_it.o(i.DMA2_Stream2_IRQHandler) for DMA2_Stream2_IRQHandler
==============================================================================

Removing Unused input sections from the image.

    Removing startup_stm32f407xx.o(HEAP), (512 bytes).
    Removing main.o(.rev16_text), (4 bytes).
    Removing main.o(.revsh_text), (4 bytes).
    Removing main.o(.rrx_text), (6 bytes).
    Removing gpio.o(.rev16_text), (4 bytes).
    Removing gpio.o(.revsh_text), (4 bytes).
    Removing gpio.o(.rrx_text), (6 bytes).
    Removing freertos.o(.rev16_text), (4 bytes).
    Removing freertos.o(.revsh_text), (4 bytes).
    Removing freertos.o(.rrx_text), (6 bytes).
    Removing freertos.o(i.StartTask02), (10 bytes).
    Removing freertos.o(i.StartTask03), (10 bytes).
    Removing freertos.o(i.StartTask04), (10 bytes).
    Removing freertos.o(i.StartTask05), (10 bytes).
    Removing freertos.o(.data), (4 bytes).
    Removing can.o(.rev16_text), (4 bytes).
    Removing can.o(.revsh_text), (4 bytes).
    Removing can.o(.rrx_text), (6 bytes).
==============================================================================

Image Symbol Table

    Local Symbols

    Symbol Name                              Value     Ov Type        Size  Object(Section)

    ../Drivers/STM32F4xx_HAL_Driver/Src/stm32f4xx_hal.c 0x00000000   Number         0  stm32f4xx_hal.o ABSOLUTE
    ../Drivers/STM32F4xx_HAL_Driver/Src/stm32f4xx_hal_can.c 0x00000000   Number         0  stm32f4xx_hal_can.o ABSOLUTE
    ../Drivers/STM32F4xx_HAL_Driver/Src/stm32f4xx_hal_cortex.c 0x00000000   Number         0  stm32f4xx_hal_cortex.o ABSOLUTE
    ../Drivers/STM32F4xx_HAL_Driver/Src/stm32f4xx_hal_dma.c 0x00000000   Number         0  stm32f4xx_hal_dma.o ABSOLUTE
    ../Drivers/STM32F4xx_HAL_Driver/Src/stm32f4xx_hal_dma_ex.c 0x00000000   Number         0  stm32f4xx_hal_dma_ex.o ABSOLUTE
    ../Drivers/STM32F4xx_HAL_Driver/Src/stm32f4xx_hal_exti.c 0x00000000   Number         0  stm32f4xx_hal_exti.o ABSOLUTE
    ../Drivers/STM32F4xx_HAL_Driver/Src/stm32f4xx_hal_flash.c 0x00000000   Number         0  stm32f4xx_hal_flash.o ABSOLUTE
    ../Drivers/STM32F4xx_HAL_Driver/Src/stm32f4xx_hal_flash_ex.c 0x00000000   Number         0  stm32f4xx_hal_flash_ex.o ABSOLUTE
    ../Drivers/STM32F4xx_HAL_Driver/Src/stm32f4xx_hal_flash_ramfunc.c 0x00000000   Number         0  stm32f4xx_hal_flash_ramfunc.o ABSOLUTE
    ../Drivers/STM32F4xx_HAL_Driver/Src/stm32f4xx_hal_gpio.c 0x00000000   Number         0  stm32f4xx_hal_gpio.o ABSOLUTE
    ../Drivers/STM32F4xx_HAL_Driver/Src/stm32f4xx_hal_pwr.c 0x00000000   Number         0  stm32f4xx_hal_pwr.o ABSOLUTE
    ../Drivers/STM32F4xx_HAL_Driver/Src/stm32f4xx_hal_pwr_ex.c 0x00000000   Number         0  stm32f4xx_hal_pwr_ex.o ABSOLUTE
    ../Drivers/STM32F4xx_HAL_Driver/Src/stm32f4xx_hal_rcc.c 0x00000000   Number         0  stm32f4xx_hal_rcc.o ABSOLUTE
    ../Drivers/STM32F4xx_HAL_Driver/Src/stm32f4xx_hal_rcc_ex.c 0x00000000   Number         0  stm32f4xx_hal_rcc_ex.o ABSOLUTE
    ../Drivers/STM32F4xx_HAL_Driver/Src/stm32f4xx_hal_spi.c 0x00000000   Number         0  stm32f4xx_hal_spi.o ABSOLUTE
    ../Drivers/STM32F4xx_HAL_Driver/Src/stm32f4xx_hal_tim.c 0x00000000   Number         0  stm32f4xx_hal_tim.o ABSOLUTE
    ../Drivers/STM32F4xx_HAL_Driver/Src/stm32f4xx_hal_tim_ex.c 0x00000000   Number         0  stm32f4xx_hal_tim_ex.o ABSOLUTE
    ../Drivers/STM32F4xx_HAL_Driver/Src/stm32f4xx_hal_uart.c 0x00000000   Number         0  stm32f4xx_hal_uart.o ABSOLUTE
    ../Middlewares/Third_Party/FreeRTOS/Source/CMSIS_RTOS/cmsis_os.c 0x00000000   Number         0  cmsis_os.o ABSOLUTE
    ../Middlewares/Third_Party/FreeRTOS/Source/croutine.c 0x00000000   Number         0  croutine.o ABSOLUTE
    ../Middlewares/Third_Party/FreeRTOS/Source/event_groups.c 0x00000000   Number         0  event_groups.o ABSOLUTE
    ../Middlewares/Third_Party/FreeRTOS/Source/list.c 0x00000000   Number         0  list.o ABSOLUTE
    ../Middlewares/Third_Party/FreeRTOS/Source/portable/MemMang/heap_4.c 0x00000000   Number         0  heap_4.o ABSOLUTE
    ../Middlewares/Third_Party/FreeRTOS/Source/portable/RVDS/ARM_CM4F/port.c 0x00000000   Number         0  port.o ABSOLUTE
    ../Middlewares/Third_Party/FreeRTOS/Source/queue.c 0x00000000   Number         0  queue.o ABSOLUTE
    ../Middlewares/Third_Party/FreeRTOS/Source/stream_buffer.c 0x00000000   Number         0  stream_buffer.o ABSOLUTE
    ../Middlewares/Third_Party/FreeRTOS/Source/tasks.c 0x00000000   Number         0  tasks.o ABSOLUTE
    ../Middlewares/Third_Party/FreeRTOS/Source/timers.c 0x00000000   Number         0  timers.o ABSOLUTE
    ../Src/can.c                             0x00000000   Number         0  can.o ABSOLUTE
    ../Src/dma.c                             0x00000000   Number         0  dma.o ABSOLUTE
    ../Src/freertos.c                        0x00000000   Number         0  freertos.o ABSOLUTE
    ../Src/gpio.c                            0x00000000   Number         0  gpio.o ABSOLUTE
    ../Src/main.c                            0x00000000   Number         0  main.o ABSOLUTE
    ../Src/spi.c                             0x00000000   Number         0  spi.o ABSOLUTE
    ../Src/stm32f4xx_hal_msp.c               0x00000000   Number         0  stm32f4xx_hal_msp.o ABSOLUTE
    ../Src/stm32f4xx_it.c                    0x00000000   Number         0  stm32f4xx_it.o ABSOLUTE
    ../Src/system_stm32f4xx.c                0x00000000   Number         0  system_stm32f4xx.o ABSOLUTE
    ../Src/tim.c                             0x00000000   Number         0  tim.o ABSOLUTE
    ../Src/usart.c                           0x00000000   Number         0  usart.o ABSOLUTE
    ../clib/../cmprslib/zerorunl2.c          0x00000000   Number         0  __dczerorl2.o ABSOLUTE
    ../clib/microlib/division.c              0x00000000   Number         0  uidiv.o ABSOLUTE
    ../clib/microlib/division.c              0x00000000   Number         0  uldiv.o ABSOLUTE
    ../clib/microlib/init/entry.s            0x00000000   Number         0  entry11a.o ABSOLUTE
    ../clib/microlib/init/entry.s            0x00000000   Number         0  entry.o ABSOLUTE
    ../clib/microlib/init/entry.s            0x00000000   Number         0  entry2.o ABSOLUTE
    ../clib/microlib/init/entry.s            0x00000000   Number         0  entry12b.o ABSOLUTE
    ../clib/microlib/init/entry.s            0x00000000   Number         0  entry5.o ABSOLUTE
    ../clib/microlib/init/entry.s            0x00000000   Number         0  entry11b.o ABSOLUTE
    ../clib/microlib/init/entry.s            0x00000000   Number         0  entry7b.o ABSOLUTE
    ../clib/microlib/init/entry.s            0x00000000   Number         0  entry7a.o ABSOLUTE
    ../clib/microlib/init/entry.s            0x00000000   Number         0  entry12a.o ABSOLUTE
    ../clib/microlib/init/entry.s            0x00000000   Number         0  entry8a.o ABSOLUTE
    ../clib/microlib/init/entry.s            0x00000000   Number         0  entry8b.o ABSOLUTE
    ../clib/microlib/init/entry.s            0x00000000   Number         0  entry9a.o ABSOLUTE
    ../clib/microlib/init/entry.s            0x00000000   Number         0  entry9b.o ABSOLUTE
    ../clib/microlib/init/entry.s            0x00000000   Number         0  entry10a.o ABSOLUTE
    ../clib/microlib/init/entry.s            0x00000000   Number         0  entry10b.o ABSOLUTE
    ../clib/microlib/longlong.c              0x00000000   Number         0  llsshr.o ABSOLUTE
    ../clib/microlib/longlong.c              0x00000000   Number         0  llushr.o ABSOLUTE
    ../clib/microlib/longlong.c              0x00000000   Number         0  llshl.o ABSOLUTE
    ../clib/microlib/printf/printf.c         0x00000000   Number         0  printf4.o ABSOLUTE
    ../clib/microlib/printf/printf.c         0x00000000   Number         0  printf0.o ABSOLUTE
    ../clib/microlib/printf/printf.c         0x00000000   Number         0  printf5.o ABSOLUTE
    ../clib/microlib/printf/printf.c         0x00000000   Number         0  printf6.o ABSOLUTE
    ../clib/microlib/printf/printf.c         0x00000000   Number         0  printf7.o ABSOLUTE
    ../clib/microlib/printf/printf.c         0x00000000   Number         0  printfa.o ABSOLUTE
    ../clib/microlib/printf/printf.c         0x00000000   Number         0  printf2.o ABSOLUTE
    ../clib/microlib/printf/printf.c         0x00000000   Number         0  printf1.o ABSOLUTE
    ../clib/microlib/printf/printf.c         0x00000000   Number         0  printf3.o ABSOLUTE
    ../clib/microlib/printf/printf.c         0x00000000   Number         0  printfb.o ABSOLUTE
    ../clib/microlib/printf/printf.c         0x00000000   Number         0  printf8.o ABSOLUTE
    ../clib/microlib/printf/stubs.s          0x00000000   Number         0  stubs.o ABSOLUTE
    ../clib/microlib/stdio/streams.c         0x00000000   Number         0  stdout.o ABSOLUTE
    ../clib/microlib/string/memcpy.c         0x00000000   Number         0  memcpyb.o ABSOLUTE
    ../clib/microlib/string/memcpy.c         0x00000000   Number         0  memcpya.o ABSOLUTE
    ../clib/microlib/string/memset.c         0x00000000   Number         0  memset.o ABSOLUTE
    ../clib/microlib/string/memset.c         0x00000000   Number         0  memseta.o ABSOLUTE
    ../clib/microlib/stubs.s                 0x00000000   Number         0  iusefp.o ABSOLUTE
    ../fplib/microlib/d2f.c                  0x00000000   Number         0  d2f.o ABSOLUTE
    ../fplib/microlib/f2d.c                  0x00000000   Number         0  f2d.o ABSOLUTE
    ../fplib/microlib/fpadd.c                0x00000000   Number         0  dadd.o ABSOLUTE
    ../fplib/microlib/fpdiv.c                0x00000000   Number         0  ddiv.o ABSOLUTE
    ../fplib/microlib/fpepilogue.c           0x00000000   Number         0  fepilogue.o ABSOLUTE
    ../fplib/microlib/fpepilogue.c           0x00000000   Number         0  depilogue.o ABSOLUTE
    ../fplib/microlib/fpfix.c                0x00000000   Number         0  dfixul.o ABSOLUTE
    ../fplib/microlib/fpflt.c                0x00000000   Number         0  dflti.o ABSOLUTE
    ../fplib/microlib/fpmul.c                0x00000000   Number         0  dmul.o ABSOLUTE
    ../fplib/microlib/fpneg.c                0x00000000   Number         0  dneg.o ABSOLUTE
    ..\Drivers\STM32F4xx_HAL_Driver\Src\stm32f4xx_hal.c 0x00000000   Number         0  stm32f4xx_hal.o ABSOLUTE
    ..\Drivers\STM32F4xx_HAL_Driver\Src\stm32f4xx_hal_can.c 0x00000000   Number         0  stm32f4xx_hal_can.o ABSOLUTE
    ..\Drivers\STM32F4xx_HAL_Driver\Src\stm32f4xx_hal_cortex.c 0x00000000   Number         0  stm32f4xx_hal_cortex.o ABSOLUTE
    ..\Drivers\STM32F4xx_HAL_Driver\Src\stm32f4xx_hal_dma.c 0x00000000   Number         0  stm32f4xx_hal_dma.o ABSOLUTE
    ..\Drivers\STM32F4xx_HAL_Driver\Src\stm32f4xx_hal_dma_ex.c 0x00000000   Number         0  stm32f4xx_hal_dma_ex.o ABSOLUTE
    ..\Drivers\STM32F4xx_HAL_Driver\Src\stm32f4xx_hal_exti.c 0x00000000   Number         0  stm32f4xx_hal_exti.o ABSOLUTE
    ..\Drivers\STM32F4xx_HAL_Driver\Src\stm32f4xx_hal_flash.c 0x00000000   Number         0  stm32f4xx_hal_flash.o ABSOLUTE
    ..\Drivers\STM32F4xx_HAL_Driver\Src\stm32f4xx_hal_flash_ex.c 0x00000000   Number         0  stm32f4xx_hal_flash_ex.o ABSOLUTE
    ..\Drivers\STM32F4xx_HAL_Driver\Src\stm32f4xx_hal_flash_ramfunc.c 0x00000000   Number         0  stm32f4xx_hal_flash_ramfunc.o ABSOLUTE
    ..\Drivers\STM32F4xx_HAL_Driver\Src\stm32f4xx_hal_gpio.c 0x00000000   Number         0  stm32f4xx_hal_gpio.o ABSOLUTE
    ..\Drivers\STM32F4xx_HAL_Driver\Src\stm32f4xx_hal_pwr.c 0x00000000   Number         0  stm32f4xx_hal_pwr.o ABSOLUTE
    ..\Drivers\STM32F4xx_HAL_Driver\Src\stm32f4xx_hal_pwr_ex.c 0x00000000   Number         0  stm32f4xx_hal_pwr_ex.o ABSOLUTE
    ..\Drivers\STM32F4xx_HAL_Driver\Src\stm32f4xx_hal_rcc.c 0x00000000   Number         0  stm32f4xx_hal_rcc.o ABSOLUTE
    ..\Drivers\STM32F4xx_HAL_Driver\Src\stm32f4xx_hal_rcc_ex.c 0x00000000   Number         0  stm32f4xx_hal_rcc_ex.o ABSOLUTE
    ..\Drivers\STM32F4xx_HAL_Driver\Src\stm32f4xx_hal_spi.c 0x00000000   Number         0  stm32f4xx_hal_spi.o ABSOLUTE
    ..\Drivers\STM32F4xx_HAL_Driver\Src\stm32f4xx_hal_tim.c 0x00000000   Number         0  stm32f4xx_hal_tim.o ABSOLUTE
    ..\Drivers\STM32F4xx_HAL_Driver\Src\stm32f4xx_hal_tim_ex.c 0x00000000   Number         0  stm32f4xx_hal_tim_ex.o ABSOLUTE
    ..\Drivers\STM32F4xx_HAL_Driver\Src\stm32f4xx_hal_uart.c 0x00000000   Number         0  stm32f4xx_hal_uart.o ABSOLUTE
    ..\Middlewares\Third_Party\FreeRTOS\Source\CMSIS_RTOS\cmsis_os.c 0x00000000   Number         0  cmsis_os.o ABSOLUTE
    ..\Middlewares\Third_Party\FreeRTOS\Source\portable\RVDS\ARM_CM4F\port.c 0x00000000   Number         0  port.o ABSOLUTE
    ..\Src\can.c                             0x00000000   Number         0  can.o ABSOLUTE
    ..\Src\dma.c                             0x00000000   Number         0  dma.o ABSOLUTE
    ..\Src\freertos.c                        0x00000000   Number         0  freertos.o ABSOLUTE
    ..\Src\gpio.c                            0x00000000   Number         0  gpio.o ABSOLUTE
    ..\Src\main.c                            0x00000000   Number         0  main.o ABSOLUTE
    ..\Src\spi.c                             0x00000000   Number         0  spi.o ABSOLUTE
    ..\Src\stm32f4xx_hal_msp.c               0x00000000   Number         0  stm32f4xx_hal_msp.o ABSOLUTE
    ..\Src\stm32f4xx_it.c                    0x00000000   Number         0  stm32f4xx_it.o ABSOLUTE
    ..\Src\system_stm32f4xx.c                0x00000000   Number         0  system_stm32f4xx.o ABSOLUTE
    ..\Src\tim.c                             0x00000000   Number         0  tim.o ABSOLUTE
    ..\Src\usart.c                           0x00000000   Number         0  usart.o ABSOLUTE
    ..\TASK\myTask02.c                       0x00000000   Number         0  mytask02.o ABSOLUTE
    ..\TASK\myTask03.c                       0x00000000   Number         0  mytask03.o ABSOLUTE
    ..\TASK\myTask04.c                       0x00000000   Number         0  mytask04.o ABSOLUTE
    ..\\TASK\\myTask02.c                     0x00000000   Number         0  mytask02.o ABSOLUTE
    ..\\TASK\\myTask03.c                     0x00000000   Number         0  mytask03.o ABSOLUTE
    ..\\TASK\\myTask04.c                     0x00000000   Number         0  mytask04.o ABSOLUTE
    ..\\bsp\\STMGood.c                       0x00000000   Number         0  stmgood.o ABSOLUTE
    ..\\bsp\\bsp_can.c                       0x00000000   Number         0  bsp_can.o ABSOLUTE
    ..\\bsp\\bsp_usart.c                     0x00000000   Number         0  bsp_usart.o ABSOLUTE
    ..\\component\\devices\\BMI088Middleware.c 0x00000000   Number         0  bmi088middleware.o ABSOLUTE
    ..\\component\\devices\\BMI088driver.c   0x00000000   Number         0  bmi088driver.o ABSOLUTE
    ..\\judg\\RM_Task.c                      0x00000000   Number         0  rm_task.o ABSOLUTE
    ..\\judg\\crc.c                          0x00000000   Number         0  crc.o ABSOLUTE
    ..\\judg\\judge.c                        0x00000000   Number         0  judge.o ABSOLUTE
    ..\bsp\STMGood.c                         0x00000000   Number         0  stmgood.o ABSOLUTE
    ..\bsp\bsp_can.c                         0x00000000   Number         0  bsp_can.o ABSOLUTE
    ..\bsp\bsp_usart.c                       0x00000000   Number         0  bsp_usart.o ABSOLUTE
    ..\component\devices\BMI088Middleware.c  0x00000000   Number         0  bmi088middleware.o ABSOLUTE
    ..\component\devices\BMI088driver.c      0x00000000   Number         0  bmi088driver.o ABSOLUTE
    ..\judg\RM_Task.c                        0x00000000   Number         0  rm_task.o ABSOLUTE
    ..\judg\crc.c                            0x00000000   Number         0  crc.o ABSOLUTE
    ..\judg\judge.c                          0x00000000   Number         0  judge.o ABSOLUTE
    cdrcmple.s                               0x00000000   Number         0  cdrcmple.o ABSOLUTE
    dc.s                                     0x00000000   Number         0  dc.o ABSOLUTE
    handlers.s                               0x00000000   Number         0  handlers.o ABSOLUTE
    init.s                                   0x00000000   Number         0  init.o ABSOLUTE
    startup_stm32f407xx.s                    0x00000000   Number         0  startup_stm32f407xx.o ABSOLUTE
    RESET                                    0x08000000   Section      392  startup_stm32f407xx.o(RESET)
    .ARM.Collect$$$$00000000                 0x08000188   Section        0  entry.o(.ARM.Collect$$$$00000000)
    .ARM.Collect$$$$00000001                 0x08000188   Section        4  entry2.o(.ARM.Collect$$$$00000001)
    .ARM.Collect$$$$00000004                 0x0800018c   Section        4  entry5.o(.ARM.Collect$$$$00000004)
    .ARM.Collect$$$$00000008                 0x08000190   Section        0  entry7b.o(.ARM.Collect$$$$00000008)
    .ARM.Collect$$$$0000000A                 0x08000190   Section        0  entry8b.o(.ARM.Collect$$$$0000000A)
    .ARM.Collect$$$$0000000B                 0x08000190   Section        8  entry9a.o(.ARM.Collect$$$$0000000B)
    .ARM.Collect$$$$0000000E                 0x08000198   Section        4  entry12b.o(.ARM.Collect$$$$0000000E)
    .ARM.Collect$$$$0000000F                 0x0800019c   Section        0  entry10a.o(.ARM.Collect$$$$0000000F)
    .ARM.Collect$$$$00000011                 0x0800019c   Section        0  entry11a.o(.ARM.Collect$$$$00000011)
    .ARM.Collect$$$$00002712                 0x0800019c   Section        4  entry2.o(.ARM.Collect$$$$00002712)
    __lit__00000000                          0x0800019c   Data           4  entry2.o(.ARM.Collect$$$$00002712)
    .emb_text                                0x080001a0   Section      190  port.o(.emb_text)
    $v0                                      0x080001a0   Number         0  port.o(.emb_text)
    .text                                    0x08000260   Section       36  startup_stm32f407xx.o(.text)
    $v0                                      0x08000260   Number         0  startup_stm32f407xx.o(.text)
    .text                                    0x08000284   Section        0  uldiv.o(.text)
    .text                                    0x080002e6   Section        0  memcpya.o(.text)
    .text                                    0x0800030a   Section        0  memseta.o(.text)
    .text                                    0x0800032e   Section        0  dadd.o(.text)
    .text                                    0x0800047c   Section        0  dmul.o(.text)
    .text                                    0x08000560   Section        0  dflti.o(.text)
    .text                                    0x08000582   Section        0  f2d.o(.text)
    .text                                    0x080005a8   Section        0  d2f.o(.text)
    .text                                    0x080005e0   Section        0  uidiv.o(.text)
    .text                                    0x0800060c   Section        0  llshl.o(.text)
    .text                                    0x0800062a   Section        0  llushr.o(.text)
    .text                                    0x0800064a   Section        0  llsshr.o(.text)
    .text                                    0x0800066e   Section        0  iusefp.o(.text)
    .text                                    0x0800066e   Section        0  fepilogue.o(.text)
    .text                                    0x080006dc   Section        0  depilogue.o(.text)
    .text                                    0x08000796   Section        0  ddiv.o(.text)
    .text                                    0x08000874   Section        0  dfixul.o(.text)
    .text                                    0x080008a4   Section       48  cdrcmple.o(.text)
    .text                                    0x080008d4   Section       36  init.o(.text)
    .text                                    0x080008f8   Section        0  __dczerorl2.o(.text)
    i.AddFloatdata                           0x08000950   Section        0  judge.o(i.AddFloatdata)
    AddFloatdata                             0x08000951   Thumb Code   138  judge.o(i.AddFloatdata)
    i.Add_Five_Picture                       0x080009e0   Section        0  judge.o(i.Add_Five_Picture)
    Add_Five_Picture                         0x080009e1   Thumb Code   184  judge.o(i.Add_Five_Picture)
    i.Add_Seven_Picture                      0x08000a98   Section        0  judge.o(i.Add_Seven_Picture)
    Add_Seven_Picture                        0x08000a99   Thumb Code   184  judge.o(i.Add_Seven_Picture)
    i.Append_CRC16_Check_Sum                 0x08000b50   Section        0  crc.o(i.Append_CRC16_Check_Sum)
    i.Append_CRC8_Check_Sum                  0x08000b78   Section        0  crc.o(i.Append_CRC8_Check_Sum)
    i.BMI088_ACCEL_NS_H                      0x08000b94   Section        0  bmi088middleware.o(i.BMI088_ACCEL_NS_H)
    i.BMI088_ACCEL_NS_L                      0x08000ba4   Section        0  bmi088middleware.o(i.BMI088_ACCEL_NS_L)
    i.BMI088_GPIO_init                       0x08000bb4   Section        0  bmi088middleware.o(i.BMI088_GPIO_init)
    i.BMI088_GYRO_NS_H                       0x08000bb8   Section        0  bmi088middleware.o(i.BMI088_GYRO_NS_H)
    i.BMI088_GYRO_NS_L                       0x08000bc8   Section        0  bmi088middleware.o(i.BMI088_GYRO_NS_L)
    i.BMI088_com_init                        0x08000bd8   Section        0  bmi088middleware.o(i.BMI088_com_init)
    i.BMI088_delay_ms                        0x08000bda   Section        0  bmi088middleware.o(i.BMI088_delay_ms)
    i.BMI088_delay_us                        0x08000bf2   Section        0  bmi088middleware.o(i.BMI088_delay_us)
    i.BMI088_init                            0x08000c20   Section        0  bmi088driver.o(i.BMI088_init)
    i.BMI088_read                            0x08000c38   Section        0  bmi088driver.o(i.BMI088_read)
    i.BMI088_read_muli_reg                   0x08000d90   Section        0  bmi088driver.o(i.BMI088_read_muli_reg)
    BMI088_read_muli_reg                     0x08000d91   Thumb Code    36  bmi088driver.o(i.BMI088_read_muli_reg)
    i.BMI088_read_single_reg                 0x08000db4   Section        0  bmi088driver.o(i.BMI088_read_single_reg)
    BMI088_read_single_reg                   0x08000db5   Thumb Code    22  bmi088driver.o(i.BMI088_read_single_reg)
    i.BMI088_read_write_byte                 0x08000dcc   Section        0  bmi088middleware.o(i.BMI088_read_write_byte)
    i.BMI088_write_single_reg                0x08000dec   Section        0  bmi088driver.o(i.BMI088_write_single_reg)
    BMI088_write_single_reg                  0x08000ded   Thumb Code    18  bmi088driver.o(i.BMI088_write_single_reg)
    i.BusFault_Handler                       0x08000dfe   Section        0  stm32f4xx_it.o(i.BusFault_Handler)
    i.CAN1_RX0_IRQHandler                    0x08000e00   Section        0  stm32f4xx_it.o(i.CAN1_RX0_IRQHandler)
    i.CAN1_TX_IRQHandler                     0x08000e0c   Section        0  stm32f4xx_it.o(i.CAN1_TX_IRQHandler)
    i.CAN2_RX0_IRQHandler                    0x08000e18   Section        0  stm32f4xx_it.o(i.CAN2_RX0_IRQHandler)
    i.CAN2_TX_IRQHandler                     0x08000e24   Section        0  stm32f4xx_it.o(i.CAN2_TX_IRQHandler)
    i.CANFilter_Enable                       0x08000e30   Section        0  bsp_can.o(i.CANFilter_Enable)
    i.CAN_Enable                             0x08000e98   Section        0  bsp_can.o(i.CAN_Enable)
    i.CAN_Send_bytes                         0x08000eb4   Section        0  bsp_can.o(i.CAN_Send_bytes)
    i.CharacteFRIC_stateShow                 0x08000f0c   Section        0  judge.o(i.CharacteFRIC_stateShow)
    i.CharacterFRIC_MODEShow                 0x08001090   Section        0  judge.o(i.CharacterFRIC_MODEShow)
    i.CharacterFricSPEEDShow                 0x080011b4   Section        0  judge.o(i.CharacterFricSPEEDShow)
    i.CharacterFricTEMPShow                  0x0800128c   Section        0  judge.o(i.CharacterFricTEMPShow)
    i.CharacterGimbal_FULL_VISION_Show       0x08001360   Section        0  judge.o(i.CharacterGimbal_FULL_VISION_Show)
    i.CharacterGimbal_HALF_VISION_Show       0x0800142c   Section        0  judge.o(i.CharacterGimbal_HALF_VISION_Show)
    i.CharacterGimbal_HOIST_Show             0x080014f8   Section        0  judge.o(i.CharacterGimbal_HOIST_Show)
    i.CharacterGimbal_MNAUALShow             0x080015c4   Section        0  judge.o(i.CharacterGimbal_MNAUALShow)
    i.CharacterGimbal_NULL_Show              0x08001690   Section        0  judge.o(i.CharacterGimbal_NULL_Show)
    i.CharacterPitchShow                     0x0800175c   Section        0  judge.o(i.CharacterPitchShow)
    i.Character_CHASSIS_APART_Show           0x08001880   Section        0  judge.o(i.Character_CHASSIS_APART_Show)
    i.Character_CHASSIS_FOLLOW_Show          0x0800194c   Section        0  judge.o(i.Character_CHASSIS_FOLLOW_Show)
    i.Character_CHASSIS_NULL_Show            0x08001a18   Section        0  judge.o(i.Character_CHASSIS_NULL_Show)
    i.Character_CHASSIS_STOP_Show            0x08001ae4   Section        0  judge.o(i.Character_CHASSIS_STOP_Show)
    i.Character_CHASSIS_TOP_Show             0x08001bb0   Section        0  judge.o(i.Character_CHASSIS_TOP_Show)
    i.CheckID                                0x08001c7c   Section        0  judge.o(i.CheckID)
    i.Collision_Border                       0x08001c90   Section        0  judge.o(i.Collision_Border)
    i.Command                                0x08001d90   Section        0  stmgood.o(i.Command)
    i.CompStr                                0x08001f98   Section        0  stmgood.o(i.CompStr)
    i.CopyStr                                0x08001fc8   Section        0  stmgood.o(i.CopyStr)
    i.Crosshair                              0x08001fe0   Section        0  judge.o(i.Crosshair)
    i.Crosshair1                             0x080021bc   Section        0  judge.o(i.Crosshair1)
    i.DMA2_Stream1_IRQHandler                0x08002364   Section        0  stm32f4xx_it.o(i.DMA2_Stream1_IRQHandler)
    i.DMA2_Stream2_IRQHandler                0x08002370   Section        0  stm32f4xx_it.o(i.DMA2_Stream2_IRQHandler)
    i.DMA2_Stream3_IRQHandler                0x0800237c   Section        0  stm32f4xx_it.o(i.DMA2_Stream3_IRQHandler)
    i.DMA_CalcBaseAndBitshift                0x08002388   Section        0  stm32f4xx_hal_dma.o(i.DMA_CalcBaseAndBitshift)
    DMA_CalcBaseAndBitshift                  0x08002389   Thumb Code    34  stm32f4xx_hal_dma.o(i.DMA_CalcBaseAndBitshift)
    i.DMA_CheckFifoParam                     0x080023b0   Section        0  stm32f4xx_hal_dma.o(i.DMA_CheckFifoParam)
    DMA_CheckFifoParam                       0x080023b1   Thumb Code    84  stm32f4xx_hal_dma.o(i.DMA_CheckFifoParam)
    i.DMA_SetConfig                          0x08002404   Section        0  stm32f4xx_hal_dma.o(i.DMA_SetConfig)
    DMA_SetConfig                            0x08002405   Thumb Code    40  stm32f4xx_hal_dma.o(i.DMA_SetConfig)
    i.DealStr                                0x0800242c   Section        0  stmgood.o(i.DealStr)
    i.Dealdata                               0x080024b4   Section        0  stmgood.o(i.Dealdata)
    i.DebugMon_Handler                       0x08002544   Section        0  stm32f4xx_it.o(i.DebugMon_Handler)
    i.DrawCapVolRectangle                    0x08002548   Section        0  judge.o(i.DrawCapVolRectangle)
    i.Draw_CIRCLE_mode                       0x08002988   Section        0  judge.o(i.Draw_CIRCLE_mode)
    i.EXTI4_IRQHandler                       0x08002b1c   Section        0  stm32f4xx_it.o(i.EXTI4_IRQHandler)
    i.EXTI9_5_IRQHandler                     0x08002b22   Section        0  stm32f4xx_it.o(i.EXTI9_5_IRQHandler)
    i.Error_Handler                          0x08002b28   Section        0  main.o(i.Error_Handler)
    i.FirstSpace                             0x08002b2a   Section        0  stmgood.o(i.FirstSpace)
    i.FloatDataShow                          0x08002b44   Section        0  judge.o(i.FloatDataShow)
    i.Get_CRC16_Check_Sum                    0x08002d9c   Section        0  crc.o(i.Get_CRC16_Check_Sum)
    i.Get_CRC8_Check_Sum                     0x08002dc8   Section        0  crc.o(i.Get_CRC8_Check_Sum)
    i.HAL_CAN_ActivateNotification           0x08002de4   Section        0  stm32f4xx_hal_can.o(i.HAL_CAN_ActivateNotification)
    i.HAL_CAN_AddTxMessage                   0x08002e08   Section        0  stm32f4xx_hal_can.o(i.HAL_CAN_AddTxMessage)
    i.HAL_CAN_ConfigFilter                   0x08002ee4   Section        0  stm32f4xx_hal_can.o(i.HAL_CAN_ConfigFilter)
    i.HAL_CAN_ErrorCallback                  0x08002ff0   Section        0  stm32f4xx_hal_can.o(i.HAL_CAN_ErrorCallback)
    i.HAL_CAN_GetRxMessage                   0x08002ff2   Section        0  stm32f4xx_hal_can.o(i.HAL_CAN_GetRxMessage)
    i.HAL_CAN_IRQHandler                     0x080030da   Section        0  stm32f4xx_hal_can.o(i.HAL_CAN_IRQHandler)
    i.HAL_CAN_Init                           0x080032d6   Section        0  stm32f4xx_hal_can.o(i.HAL_CAN_Init)
    i.HAL_CAN_MspInit                        0x080033f0   Section        0  can.o(i.HAL_CAN_MspInit)
    i.HAL_CAN_RxFifo0FullCallback            0x0800350c   Section        0  stm32f4xx_hal_can.o(i.HAL_CAN_RxFifo0FullCallback)
    i.HAL_CAN_RxFifo0MsgPendingCallback      0x08003510   Section        0  bsp_can.o(i.HAL_CAN_RxFifo0MsgPendingCallback)
    i.HAL_CAN_RxFifo1FullCallback            0x08003618   Section        0  stm32f4xx_hal_can.o(i.HAL_CAN_RxFifo1FullCallback)
    i.HAL_CAN_RxFifo1MsgPendingCallback      0x0800361a   Section        0  stm32f4xx_hal_can.o(i.HAL_CAN_RxFifo1MsgPendingCallback)
    i.HAL_CAN_SleepCallback                  0x0800361c   Section        0  stm32f4xx_hal_can.o(i.HAL_CAN_SleepCallback)
    i.HAL_CAN_Start                          0x08003620   Section        0  stm32f4xx_hal_can.o(i.HAL_CAN_Start)
    i.HAL_CAN_TxMailbox0AbortCallback        0x08003678   Section        0  stm32f4xx_hal_can.o(i.HAL_CAN_TxMailbox0AbortCallback)
    i.HAL_CAN_TxMailbox0CompleteCallback     0x0800367a   Section        0  stm32f4xx_hal_can.o(i.HAL_CAN_TxMailbox0CompleteCallback)
    i.HAL_CAN_TxMailbox1AbortCallback        0x0800367c   Section        0  stm32f4xx_hal_can.o(i.HAL_CAN_TxMailbox1AbortCallback)
    i.HAL_CAN_TxMailbox1CompleteCallback     0x0800367e   Section        0  stm32f4xx_hal_can.o(i.HAL_CAN_TxMailbox1CompleteCallback)
    i.HAL_CAN_TxMailbox2AbortCallback        0x08003680   Section        0  stm32f4xx_hal_can.o(i.HAL_CAN_TxMailbox2AbortCallback)
    i.HAL_CAN_TxMailbox2CompleteCallback     0x08003682   Section        0  stm32f4xx_hal_can.o(i.HAL_CAN_TxMailbox2CompleteCallback)
    i.HAL_CAN_WakeUpFromRxMsgCallback        0x08003684   Section        0  stm32f4xx_hal_can.o(i.HAL_CAN_WakeUpFromRxMsgCallback)
    i.HAL_DMA_Abort_IT                       0x08003686   Section        0  stm32f4xx_hal_dma.o(i.HAL_DMA_Abort_IT)
    i.HAL_DMA_IRQHandler                     0x080036ac   Section        0  stm32f4xx_hal_dma.o(i.HAL_DMA_IRQHandler)
    i.HAL_DMA_Init                           0x0800384c   Section        0  stm32f4xx_hal_dma.o(i.HAL_DMA_Init)
    i.HAL_DMA_Start_IT                       0x08003920   Section        0  stm32f4xx_hal_dma.o(i.HAL_DMA_Start_IT)
    i.HAL_GPIO_EXTI_Callback                 0x0800398e   Section        0  stm32f4xx_hal_gpio.o(i.HAL_GPIO_EXTI_Callback)
    i.HAL_GPIO_EXTI_IRQHandler               0x08003990   Section        0  stm32f4xx_hal_gpio.o(i.HAL_GPIO_EXTI_IRQHandler)
    i.HAL_GPIO_Init                          0x080039a8   Section        0  stm32f4xx_hal_gpio.o(i.HAL_GPIO_Init)
    i.HAL_GPIO_WritePin                      0x08003b60   Section        0  stm32f4xx_hal_gpio.o(i.HAL_GPIO_WritePin)
    i.HAL_GetTick                            0x08003b6c   Section        0  stm32f4xx_hal.o(i.HAL_GetTick)
    i.HAL_IncTick                            0x08003b78   Section        0  stm32f4xx_hal.o(i.HAL_IncTick)
    i.HAL_Init                               0x08003b88   Section        0  stm32f4xx_hal.o(i.HAL_Init)
    i.HAL_InitTick                           0x08003bbc   Section        0  stm32f4xx_hal.o(i.HAL_InitTick)
    i.HAL_MspInit                            0x08003bfc   Section        0  stm32f4xx_hal_msp.o(i.HAL_MspInit)
    i.HAL_NVIC_EnableIRQ                     0x08003c34   Section        0  stm32f4xx_hal_cortex.o(i.HAL_NVIC_EnableIRQ)
    i.HAL_NVIC_SetPriority                   0x08003c50   Section        0  stm32f4xx_hal_cortex.o(i.HAL_NVIC_SetPriority)
    i.HAL_NVIC_SetPriorityGrouping           0x08003c90   Section        0  stm32f4xx_hal_cortex.o(i.HAL_NVIC_SetPriorityGrouping)
    i.HAL_RCC_ClockConfig                    0x08003cb4   Section        0  stm32f4xx_hal_rcc.o(i.HAL_RCC_ClockConfig)
    i.HAL_RCC_GetPCLK1Freq                   0x08003de8   Section        0  stm32f4xx_hal_rcc.o(i.HAL_RCC_GetPCLK1Freq)
    i.HAL_RCC_GetPCLK2Freq                   0x08003e08   Section        0  stm32f4xx_hal_rcc.o(i.HAL_RCC_GetPCLK2Freq)
    i.HAL_RCC_GetSysClockFreq                0x08003e28   Section        0  stm32f4xx_hal_rcc.o(i.HAL_RCC_GetSysClockFreq)
    i.HAL_RCC_OscConfig                      0x08003e8c   Section        0  stm32f4xx_hal_rcc.o(i.HAL_RCC_OscConfig)
    i.HAL_SPI_Init                           0x080041e8   Section        0  stm32f4xx_hal_spi.o(i.HAL_SPI_Init)
    i.HAL_SPI_MspInit                        0x08004268   Section        0  spi.o(i.HAL_SPI_MspInit)
    i.HAL_SPI_TransmitReceive                0x08004368   Section        0  stm32f4xx_hal_spi.o(i.HAL_SPI_TransmitReceive)
    i.HAL_SYSTICK_Config                     0x0800454a   Section        0  stm32f4xx_hal_cortex.o(i.HAL_SYSTICK_Config)
    i.HAL_TIMEx_BreakCallback                0x08004572   Section        0  stm32f4xx_hal_tim_ex.o(i.HAL_TIMEx_BreakCallback)
    i.HAL_TIMEx_CommutCallback               0x08004574   Section        0  stm32f4xx_hal_tim_ex.o(i.HAL_TIMEx_CommutCallback)
    i.HAL_TIM_Base_Init                      0x08004576   Section        0  stm32f4xx_hal_tim.o(i.HAL_TIM_Base_Init)
    i.HAL_TIM_Base_MspInit                   0x080045ac   Section        0  tim.o(i.HAL_TIM_Base_MspInit)
    i.HAL_TIM_IC_CaptureCallback             0x080045e8   Section        0  stm32f4xx_hal_tim.o(i.HAL_TIM_IC_CaptureCallback)
    i.HAL_TIM_IRQHandler                     0x080045ea   Section        0  stm32f4xx_hal_tim.o(i.HAL_TIM_IRQHandler)
    i.HAL_TIM_MspPostInit                    0x08004750   Section        0  tim.o(i.HAL_TIM_MspPostInit)
    i.HAL_TIM_OC_DelayElapsedCallback        0x080047a4   Section        0  stm32f4xx_hal_tim.o(i.HAL_TIM_OC_DelayElapsedCallback)
    i.HAL_TIM_PWM_ConfigChannel              0x080047a6   Section        0  stm32f4xx_hal_tim.o(i.HAL_TIM_PWM_ConfigChannel)
    i.HAL_TIM_PWM_Init                       0x08004876   Section        0  stm32f4xx_hal_tim.o(i.HAL_TIM_PWM_Init)
    i.HAL_TIM_PWM_MspInit                    0x080048ac   Section        0  stm32f4xx_hal_tim.o(i.HAL_TIM_PWM_MspInit)
    i.HAL_TIM_PWM_PulseFinishedCallback      0x080048ae   Section        0  stm32f4xx_hal_tim.o(i.HAL_TIM_PWM_PulseFinishedCallback)
    i.HAL_TIM_PeriodElapsedCallback          0x080048b0   Section        0  stm32f4xx_hal_tim.o(i.HAL_TIM_PeriodElapsedCallback)
    i.HAL_TIM_TriggerCallback                0x080048b2   Section        0  stm32f4xx_hal_tim.o(i.HAL_TIM_TriggerCallback)
    i.HAL_UART_ErrorCallback                 0x080048b4   Section        0  bsp_usart.o(i.HAL_UART_ErrorCallback)
    i.HAL_UART_IRQHandler                    0x080048c8   Section        0  stm32f4xx_hal_uart.o(i.HAL_UART_IRQHandler)
    i.HAL_UART_Init                          0x080049dc   Section        0  stm32f4xx_hal_uart.o(i.HAL_UART_Init)
    i.HAL_UART_MspInit                       0x08004a40   Section        0  usart.o(i.HAL_UART_MspInit)
    i.HAL_UART_Receive_DMA                   0x08004b64   Section        0  stm32f4xx_hal_uart.o(i.HAL_UART_Receive_DMA)
    i.HAL_UART_Receive_IT                    0x08004bfc   Section        0  stm32f4xx_hal_uart.o(i.HAL_UART_Receive_IT)
    i.HAL_UART_RxCpltCallback                0x08004c50   Section        0  bsp_usart.o(i.HAL_UART_RxCpltCallback)
    i.HAL_UART_RxHalfCpltCallback            0x08004cbc   Section        0  stm32f4xx_hal_uart.o(i.HAL_UART_RxHalfCpltCallback)
    i.HAL_UART_Transmit_IT                   0x08004cbe   Section        0  stm32f4xx_hal_uart.o(i.HAL_UART_Transmit_IT)
    i.HAL_UART_TxCpltCallback                0x08004cfc   Section        0  stm32f4xx_hal_uart.o(i.HAL_UART_TxCpltCallback)
    i.HardFault_Handler                      0x08004cfe   Section        0  stm32f4xx_it.o(i.HardFault_Handler)
    i.JudgeData                              0x08004d00   Section        0  judge.o(i.JudgeData)
    i.MX_CAN1_Init                           0x08004f2c   Section        0  can.o(i.MX_CAN1_Init)
    i.MX_CAN2_Init                           0x08004f74   Section        0  can.o(i.MX_CAN2_Init)
    i.MX_DMA_Init                            0x08004fc0   Section        0  dma.o(i.MX_DMA_Init)
    i.MX_FREERTOS_Init                       0x0800500c   Section        0  freertos.o(i.MX_FREERTOS_Init)
    i.MX_GPIO_Init                           0x08005074   Section        0  gpio.o(i.MX_GPIO_Init)
    i.MX_SPI1_Init                           0x080051e8   Section        0  spi.o(i.MX_SPI1_Init)
    i.MX_TIM10_Init                          0x08005230   Section        0  tim.o(i.MX_TIM10_Init)
    i.MX_USART1_UART_Init                    0x08005294   Section        0  usart.o(i.MX_USART1_UART_Init)
    i.MX_USART6_UART_Init                    0x080052cc   Section        0  usart.o(i.MX_USART6_UART_Init)
    i.MY_CAN_Init                            0x08005304   Section        0  bsp_can.o(i.MY_CAN_Init)
    i.MY_USART_Init                          0x08005320   Section        0  bsp_usart.o(i.MY_USART_Init)
    i.MemManage_Handler                      0x08005350   Section        0  stm32f4xx_it.o(i.MemManage_Handler)
    i.NMI_Handler                            0x08005352   Section        0  stm32f4xx_it.o(i.NMI_Handler)
    i.SPI_EndRxTxTransaction                 0x08005354   Section        0  stm32f4xx_hal_spi.o(i.SPI_EndRxTxTransaction)
    SPI_EndRxTxTransaction                   0x08005355   Thumb Code    80  stm32f4xx_hal_spi.o(i.SPI_EndRxTxTransaction)
    i.SPI_WaitFlagStateUntilTimeout          0x080053ac   Section        0  stm32f4xx_hal_spi.o(i.SPI_WaitFlagStateUntilTimeout)
    SPI_WaitFlagStateUntilTimeout            0x080053ad   Thumb Code   148  stm32f4xx_hal_spi.o(i.SPI_WaitFlagStateUntilTimeout)
    i.SplitStr                               0x08005440   Section        0  stmgood.o(i.SplitStr)
    i.StartDefaultTask                       0x08005490   Section        0  freertos.o(i.StartDefaultTask)
    i.StartTask02                            0x0800549a   Section        0  mytask02.o(i.StartTask02)
    i.StartTask03                            0x080054a8   Section        0  mytask03.o(i.StartTask03)
    i.StartTask04                            0x080054d4   Section        0  mytask04.o(i.StartTask04)
    i.Start_RM_Task                          0x080054e4   Section        0  rm_task.o(i.Start_RM_Task)
    i.Start_UI_Task                          0x080056a4   Section        0  rm_task.o(i.Start_UI_Task)
    i.StrToFloat                             0x080058ac   Section        0  stmgood.o(i.StrToFloat)
    i.Strlen                                 0x080059e0   Section        0  stmgood.o(i.Strlen)
    i.SubStr                                 0x080059f0   Section        0  stmgood.o(i.SubStr)
    i.SysTick_Handler                        0x08005a18   Section        0  stm32f4xx_it.o(i.SysTick_Handler)
    i.SystemClock_Config                     0x08005a30   Section        0  main.o(i.SystemClock_Config)
    i.SystemInit                             0x08005ab4   Section        0  system_stm32f4xx.o(i.SystemInit)
    i.TIM1_UP_TIM10_IRQHandler               0x08005b08   Section        0  stm32f4xx_it.o(i.TIM1_UP_TIM10_IRQHandler)
    i.TIM_Base_SetConfig                     0x08005b14   Section        0  stm32f4xx_hal_tim.o(i.TIM_Base_SetConfig)
    i.TIM_OC1_SetConfig                      0x08005bdc   Section        0  stm32f4xx_hal_tim.o(i.TIM_OC1_SetConfig)
    TIM_OC1_SetConfig                        0x08005bdd   Thumb Code    88  stm32f4xx_hal_tim.o(i.TIM_OC1_SetConfig)
    i.TIM_OC2_SetConfig                      0x08005c3c   Section        0  stm32f4xx_hal_tim.o(i.TIM_OC2_SetConfig)
    i.TIM_OC3_SetConfig                      0x08005ca8   Section        0  stm32f4xx_hal_tim.o(i.TIM_OC3_SetConfig)
    TIM_OC3_SetConfig                        0x08005ca9   Thumb Code    96  stm32f4xx_hal_tim.o(i.TIM_OC3_SetConfig)
    i.TIM_OC4_SetConfig                      0x08005d10   Section        0  stm32f4xx_hal_tim.o(i.TIM_OC4_SetConfig)
    TIM_OC4_SetConfig                        0x08005d11   Thumb Code    70  stm32f4xx_hal_tim.o(i.TIM_OC4_SetConfig)
    i.Two_byte_send_id                       0x08005d60   Section        0  judge.o(i.Two_byte_send_id)
    i.UART_DMAAbortOnError                   0x08005dd0   Section        0  stm32f4xx_hal_uart.o(i.UART_DMAAbortOnError)
    UART_DMAAbortOnError                     0x08005dd1   Thumb Code    16  stm32f4xx_hal_uart.o(i.UART_DMAAbortOnError)
    i.UART_DMAError                          0x08005de0   Section        0  stm32f4xx_hal_uart.o(i.UART_DMAError)
    UART_DMAError                            0x08005de1   Thumb Code    74  stm32f4xx_hal_uart.o(i.UART_DMAError)
    i.UART_DMAReceiveCplt                    0x08005e2a   Section        0  stm32f4xx_hal_uart.o(i.UART_DMAReceiveCplt)
    UART_DMAReceiveCplt                      0x08005e2b   Thumb Code    60  stm32f4xx_hal_uart.o(i.UART_DMAReceiveCplt)
    i.UART_DMARxHalfCplt                     0x08005e66   Section        0  stm32f4xx_hal_uart.o(i.UART_DMARxHalfCplt)
    UART_DMARxHalfCplt                       0x08005e67   Thumb Code    10  stm32f4xx_hal_uart.o(i.UART_DMARxHalfCplt)
    i.UART_EndRxTransfer                     0x08005e70   Section        0  stm32f4xx_hal_uart.o(i.UART_EndRxTransfer)
    UART_EndRxTransfer                       0x08005e71   Thumb Code    28  stm32f4xx_hal_uart.o(i.UART_EndRxTransfer)
    i.UART_EndTxTransfer                     0x08005e8c   Section        0  stm32f4xx_hal_uart.o(i.UART_EndTxTransfer)
    UART_EndTxTransfer                       0x08005e8d   Thumb Code    18  stm32f4xx_hal_uart.o(i.UART_EndTxTransfer)
    i.UART_Receive_IT                        0x08005e9e   Section        0  stm32f4xx_hal_uart.o(i.UART_Receive_IT)
    UART_Receive_IT                          0x08005e9f   Thumb Code   150  stm32f4xx_hal_uart.o(i.UART_Receive_IT)
    i.UART_SetConfig                         0x08005f34   Section        0  stm32f4xx_hal_uart.o(i.UART_SetConfig)
    UART_SetConfig                           0x08005f35   Thumb Code   286  stm32f4xx_hal_uart.o(i.UART_SetConfig)
    i.UART_Transmit_IT                       0x0800605c   Section        0  stm32f4xx_hal_uart.o(i.UART_Transmit_IT)
    UART_Transmit_IT                         0x0800605d   Thumb Code    98  stm32f4xx_hal_uart.o(i.UART_Transmit_IT)
    i.USART1_IRQHandler                      0x080060c0   Section        0  stm32f4xx_it.o(i.USART1_IRQHandler)
    i.USART6_IRQHandler                      0x080060cc   Section        0  stm32f4xx_it.o(i.USART6_IRQHandler)
    i.USART_Enable                           0x080060d8   Section        0  bsp_usart.o(i.USART_Enable)
    i.UsageFault_Handler                     0x080060ee   Section        0  stm32f4xx_it.o(i.UsageFault_Handler)
    i.Verify_CRC16_Check_Sum                 0x080060f0   Section        0  crc.o(i.Verify_CRC16_Check_Sum)
    i.Verify_CRC8_Check_Sum                  0x0800612c   Section        0  crc.o(i.Verify_CRC8_Check_Sum)
    i.__0printf                              0x08006154   Section        0  printfa.o(i.__0printf)
    i.__NVIC_SetPriority                     0x08006174   Section        0  stm32f4xx_hal_cortex.o(i.__NVIC_SetPriority)
    __NVIC_SetPriority                       0x08006175   Thumb Code    32  stm32f4xx_hal_cortex.o(i.__NVIC_SetPriority)
    i.__scatterload_copy                     0x08006194   Section       14  handlers.o(i.__scatterload_copy)
    i.__scatterload_null                     0x080061a2   Section        2  handlers.o(i.__scatterload_null)
    i.__scatterload_zeroinit                 0x080061a4   Section       14  handlers.o(i.__scatterload_zeroinit)
    i._fp_digits                             0x080061b4   Section        0  printfa.o(i._fp_digits)
    _fp_digits                               0x080061b5   Thumb Code   366  printfa.o(i._fp_digits)
    i._printf_core                           0x08006338   Section        0  printfa.o(i._printf_core)
    _printf_core                             0x08006339   Thumb Code  1704  printfa.o(i._printf_core)
    i._printf_post_padding                   0x080069ec   Section        0  printfa.o(i._printf_post_padding)
    _printf_post_padding                     0x080069ed   Thumb Code    36  printfa.o(i._printf_post_padding)
    i._printf_pre_padding                    0x08006a10   Section        0  printfa.o(i._printf_pre_padding)
    _printf_pre_padding                      0x08006a11   Thumb Code    46  printfa.o(i._printf_pre_padding)
    i.bmi088_accel_init                      0x08006a40   Section        0  bmi088driver.o(i.bmi088_accel_init)
    i.bmi088_gyro_init                       0x08006b50   Section        0  bmi088driver.o(i.bmi088_gyro_init)
    i.cmd                                    0x08006c2c   Section        0  stmgood.o(i.cmd)
    i.fputc                                  0x08006d00   Section        0  bsp_usart.o(i.fputc)
    i.main                                   0x08006d14   Section        0  main.o(i.main)
    i.makeFreeRtosPriority                   0x08006d56   Section        0  cmsis_os.o(i.makeFreeRtosPriority)
    makeFreeRtosPriority                     0x08006d57   Thumb Code    12  cmsis_os.o(i.makeFreeRtosPriority)
    i.multi1                                 0x08006d64   Section        0  stmgood.o(i.multi1)
    i.multi2                                 0x08006dd0   Section        0  stmgood.o(i.multi2)
    i.osDelay                                0x08006e28   Section        0  cmsis_os.o(i.osDelay)
    i.osKernelStart                          0x08006e36   Section        0  cmsis_os.o(i.osKernelStart)
    i.osThreadCreate                         0x08006e40   Section        0  cmsis_os.o(i.osThreadCreate)
    i.prvAddCurrentTaskToDelayedList         0x08006e94   Section        0  tasks.o(i.prvAddCurrentTaskToDelayedList)
    prvAddCurrentTaskToDelayedList           0x08006e95   Thumb Code   102  tasks.o(i.prvAddCurrentTaskToDelayedList)
    i.prvAddNewTaskToReadyList               0x08006f04   Section        0  tasks.o(i.prvAddNewTaskToReadyList)
    prvAddNewTaskToReadyList                 0x08006f05   Thumb Code   196  tasks.o(i.prvAddNewTaskToReadyList)
    i.prvCheckForValidListAndQueue           0x08006fd4   Section        0  timers.o(i.prvCheckForValidListAndQueue)
    prvCheckForValidListAndQueue             0x08006fd5   Thumb Code    72  timers.o(i.prvCheckForValidListAndQueue)
    i.prvCopyDataFromQueue                   0x0800702c   Section        0  queue.o(i.prvCopyDataFromQueue)
    prvCopyDataFromQueue                     0x0800702d   Thumb Code    38  queue.o(i.prvCopyDataFromQueue)
    i.prvCopyDataToQueue                     0x08007052   Section        0  queue.o(i.prvCopyDataToQueue)
    prvCopyDataToQueue                       0x08007053   Thumb Code   108  queue.o(i.prvCopyDataToQueue)
    i.prvDeleteTCB                           0x080070be   Section        0  tasks.o(i.prvDeleteTCB)
    prvDeleteTCB                             0x080070bf   Thumb Code    52  tasks.o(i.prvDeleteTCB)
    i.prvHeapInit                            0x080070f4   Section        0  heap_4.o(i.prvHeapInit)
    prvHeapInit                              0x080070f5   Thumb Code    66  heap_4.o(i.prvHeapInit)
    i.prvIdleTask                            0x08007140   Section        0  tasks.o(i.prvIdleTask)
    prvIdleTask                              0x08007141   Thumb Code    82  tasks.o(i.prvIdleTask)
    i.prvInitialiseNewQueue                  0x080071a0   Section        0  queue.o(i.prvInitialiseNewQueue)
    prvInitialiseNewQueue                    0x080071a1   Thumb Code    34  queue.o(i.prvInitialiseNewQueue)
    i.prvInitialiseNewTask                   0x080071c4   Section        0  tasks.o(i.prvInitialiseNewTask)
    prvInitialiseNewTask                     0x080071c5   Thumb Code   176  tasks.o(i.prvInitialiseNewTask)
    i.prvInsertBlockIntoFreeList             0x08007274   Section        0  heap_4.o(i.prvInsertBlockIntoFreeList)
    prvInsertBlockIntoFreeList               0x08007275   Thumb Code    72  heap_4.o(i.prvInsertBlockIntoFreeList)
    i.prvInsertTimerInActiveList             0x080072c0   Section        0  timers.o(i.prvInsertTimerInActiveList)
    prvInsertTimerInActiveList               0x080072c1   Thumb Code    52  timers.o(i.prvInsertTimerInActiveList)
    i.prvIsQueueEmpty                        0x080072f8   Section        0  queue.o(i.prvIsQueueEmpty)
    prvIsQueueEmpty                          0x080072f9   Thumb Code    28  queue.o(i.prvIsQueueEmpty)
    i.prvProcessReceivedCommands             0x08007314   Section        0  timers.o(i.prvProcessReceivedCommands)
    prvProcessReceivedCommands               0x08007315   Thumb Code   234  timers.o(i.prvProcessReceivedCommands)
    i.prvProcessTimerOrBlockTask             0x08007404   Section        0  timers.o(i.prvProcessTimerOrBlockTask)
    prvProcessTimerOrBlockTask               0x08007405   Thumb Code   182  timers.o(i.prvProcessTimerOrBlockTask)
    i.prvResetNextTaskUnblockTime            0x080074c4   Section        0  tasks.o(i.prvResetNextTaskUnblockTime)
    prvResetNextTaskUnblockTime              0x080074c5   Thumb Code    26  tasks.o(i.prvResetNextTaskUnblockTime)
    i.prvSampleTimeNow                       0x080074e4   Section        0  timers.o(i.prvSampleTimeNow)
    prvSampleTimeNow                         0x080074e5   Thumb Code    36  timers.o(i.prvSampleTimeNow)
    i.prvSwitchTimerLists                    0x0800750c   Section        0  timers.o(i.prvSwitchTimerLists)
    prvSwitchTimerLists                      0x0800750d   Thumb Code   104  timers.o(i.prvSwitchTimerLists)
    i.prvTaskExitError                       0x08007578   Section        0  port.o(i.prvTaskExitError)
    prvTaskExitError                         0x08007579   Thumb Code    36  port.o(i.prvTaskExitError)
    i.prvTimerTask                           0x080075a0   Section        0  timers.o(i.prvTimerTask)
    prvTimerTask                             0x080075a1   Thumb Code    32  timers.o(i.prvTimerTask)
    i.prvUnlockQueue                         0x080075c4   Section        0  queue.o(i.prvUnlockQueue)
    prvUnlockQueue                           0x080075c5   Thumb Code   106  queue.o(i.prvUnlockQueue)
    i.pvPortMalloc                           0x08007630   Section        0  heap_4.o(i.pvPortMalloc)
    i.pxPortInitialiseStack                  0x08007708   Section        0  port.o(i.pxPortInitialiseStack)
    i.uxListRemove                           0x08007734   Section        0  list.o(i.uxListRemove)
    i.vApplicationGetIdleTaskMemory          0x0800775c   Section        0  freertos.o(i.vApplicationGetIdleTaskMemory)
    i.vApplicationGetTimerTaskMemory         0x08007770   Section        0  freertos.o(i.vApplicationGetTimerTaskMemory)
    i.vApplicationStackOverflowHook          0x08007784   Section        0  freertos.o(i.vApplicationStackOverflowHook)
    i.vListInitialise                        0x08007786   Section        0  list.o(i.vListInitialise)
    i.vListInitialiseItem                    0x0800779c   Section        0  list.o(i.vListInitialiseItem)
    i.vListInsert                            0x080077a2   Section        0  list.o(i.vListInsert)
    i.vListInsertEnd                         0x080077d2   Section        0  list.o(i.vListInsertEnd)
    i.vPortEnterCritical                     0x080077ec   Section        0  port.o(i.vPortEnterCritical)
    i.vPortExitCritical                      0x0800782c   Section        0  port.o(i.vPortExitCritical)
    i.vPortFree                              0x08007854   Section        0  heap_4.o(i.vPortFree)
    i.vPortSetupTimerInterrupt               0x080078b0   Section        0  port.o(i.vPortSetupTimerInterrupt)
    i.vPortValidateInterruptPriority         0x080078d4   Section        0  port.o(i.vPortValidateInterruptPriority)
    i.vQueueAddToRegistry                    0x08007928   Section        0  queue.o(i.vQueueAddToRegistry)
    i.vQueueWaitForMessageRestricted         0x08007950   Section        0  queue.o(i.vQueueWaitForMessageRestricted)
    i.vTaskDelay                             0x08007994   Section        0  tasks.o(i.vTaskDelay)
    i.vTaskInternalSetTimeOutState           0x080079e0   Section        0  tasks.o(i.vTaskInternalSetTimeOutState)
    i.vTaskMissedYield                       0x080079f0   Section        0  tasks.o(i.vTaskMissedYield)
    i.vTaskPlaceOnEventList                  0x080079fc   Section        0  tasks.o(i.vTaskPlaceOnEventList)
    i.vTaskPlaceOnEventListRestricted        0x08007a2c   Section        0  tasks.o(i.vTaskPlaceOnEventListRestricted)
    i.vTaskStartScheduler                    0x08007a64   Section        0  tasks.o(i.vTaskStartScheduler)
    i.vTaskSuspendAll                        0x08007aec   Section        0  tasks.o(i.vTaskSuspendAll)
    i.vTaskSwitchContext                     0x08007afc   Section        0  tasks.o(i.vTaskSwitchContext)
    i.xPortStartScheduler                    0x08007b70   Section        0  port.o(i.xPortStartScheduler)
    i.xPortSysTickHandler                    0x08007c64   Section        0  port.o(i.xPortSysTickHandler)
    i.xQueueGenericCreateStatic              0x08007c90   Section        0  queue.o(i.xQueueGenericCreateStatic)
    i.xQueueGenericReset                     0x08007cf8   Section        0  queue.o(i.xQueueGenericReset)
    i.xQueueGenericSend                      0x08007d80   Section        0  queue.o(i.xQueueGenericSend)
    i.xQueueGenericSendFromISR               0x08007ee0   Section        0  queue.o(i.xQueueGenericSendFromISR)
    i.xQueueReceive                          0x08007f9c   Section        0  queue.o(i.xQueueReceive)
    i.xTaskCheckForTimeOut                   0x080080d4   Section        0  tasks.o(i.xTaskCheckForTimeOut)
    i.xTaskCreate                            0x08008148   Section        0  tasks.o(i.xTaskCreate)
    i.xTaskCreateStatic                      0x080081a2   Section        0  tasks.o(i.xTaskCreateStatic)
    i.xTaskGetSchedulerState                 0x080081f8   Section        0  tasks.o(i.xTaskGetSchedulerState)
    i.xTaskGetTickCount                      0x08008214   Section        0  tasks.o(i.xTaskGetTickCount)
    i.xTaskIncrementTick                     0x08008220   Section        0  tasks.o(i.xTaskIncrementTick)
    i.xTaskPriorityDisinherit                0x080082e8   Section        0  tasks.o(i.xTaskPriorityDisinherit)
    i.xTaskRemoveFromEventList               0x08008380   Section        0  tasks.o(i.xTaskRemoveFromEventList)
    i.xTaskResumeAll                         0x080083f4   Section        0  tasks.o(i.xTaskResumeAll)
    i.xTimerCreateTimerTask                  0x080084b8   Section        0  timers.o(i.xTimerCreateTimerTask)
    i.xTimerGenericCommand                   0x08008518   Section        0  timers.o(i.xTimerGenericCommand)
    .constdata                               0x08008578   Section      112  freertos.o(.constdata)
    .constdata                               0x080085e8   Section        8  stm32f4xx_hal_dma.o(.constdata)
    flagBitshiftOffset                       0x080085e8   Data           8  stm32f4xx_hal_dma.o(.constdata)
    .constdata                               0x080085f0   Section       16  system_stm32f4xx.o(.constdata)
    .constdata                               0x08008600   Section        8  system_stm32f4xx.o(.constdata)
    .constdata                               0x08008608   Section      768  crc.o(.constdata)
    .constdata                               0x08008908   Section       12  judge.o(.constdata)
    .conststring                             0x08008914   Section       48  freertos.o(.conststring)
    .conststring                             0x08008944   Section      206  judge.o(.conststring)
    .data                                    0x20000000   Section       16  freertos.o(.data)
    .data                                    0x20000010   Section        4  can.o(.data)
    HAL_RCC_CAN1_CLK_ENABLED                 0x20000010   Data           4  can.o(.data)
    .data                                    0x20000014   Section       12  stm32f4xx_hal.o(.data)
    .data                                    0x20000020   Section        4  system_stm32f4xx.o(.data)
    .data                                    0x20000024   Section        4  bsp_can.o(.data)
    fric_mode_count                          0x20000026   Data           2  bsp_can.o(.data)
    .data                                    0x20000028   Section        1  bsp_usart.o(.data)
    .data                                    0x20000030   Section       72  stmgood.o(.data)
    .data                                    0x20000078   Section        2  crc.o(.data)
    .data                                    0x2000007c   Section      164  judge.o(.data)
    packindex                                0x2000007d   Data           1  judge.o(.data)
    seq                                      0x2000007e   Data           1  judge.o(.data)
    seq                                      0x2000007f   Data           1  judge.o(.data)
    seq                                      0x20000080   Data           1  judge.o(.data)
    seq                                      0x20000081   Data           1  judge.o(.data)
    seq                                      0x20000082   Data           1  judge.o(.data)
    seq                                      0x20000083   Data           1  judge.o(.data)
    seq                                      0x20000084   Data           1  judge.o(.data)
    seq                                      0x20000085   Data           1  judge.o(.data)
    seq                                      0x20000086   Data           1  judge.o(.data)
    seq                                      0x20000087   Data           1  judge.o(.data)
    datalength                               0x2000008c   Data           2  judge.o(.data)
    name_Crosshair                           0x2000008e   Data           2  judge.o(.data)
    name_FloatDataShow                       0x20000090   Data           2  judge.o(.data)
    name_Rectangle                           0x20000092   Data           2  judge.o(.data)
    HeaderIndex                              0x200000a8   Data           4  judge.o(.data)
    dataIndex                                0x200000ac   Data           4  judge.o(.data)
    InfoStartReceive                         0x200000b0   Data           4  judge.o(.data)
    .data                                    0x20000120   Section        4  judge.o(.data)
    .data                                    0x20000124   Section       20  rm_task.o(.data)
    isInit                                   0x20000124   Data           1  rm_task.o(.data)
    fric_last_mode                           0x20000126   Data           2  rm_task.o(.data)
    .data                                    0x20000138   Section       60  tasks.o(.data)
    pxDelayedTaskList                        0x2000013c   Data           4  tasks.o(.data)
    pxOverflowDelayedTaskList                0x20000140   Data           4  tasks.o(.data)
    uxDeletedTasksWaitingCleanUp             0x20000144   Data           4  tasks.o(.data)
    uxCurrentNumberOfTasks                   0x20000148   Data           4  tasks.o(.data)
    xTickCount                               0x2000014c   Data           4  tasks.o(.data)
    uxTopReadyPriority                       0x20000150   Data           4  tasks.o(.data)
    xSchedulerRunning                        0x20000154   Data           4  tasks.o(.data)
    uxPendedTicks                            0x20000158   Data           4  tasks.o(.data)
    xYieldPending                            0x2000015c   Data           4  tasks.o(.data)
    xNumOfOverflows                          0x20000160   Data           4  tasks.o(.data)
    uxTaskNumber                             0x20000164   Data           4  tasks.o(.data)
    xNextTaskUnblockTime                     0x20000168   Data           4  tasks.o(.data)
    xIdleTaskHandle                          0x2000016c   Data           4  tasks.o(.data)
    uxSchedulerSuspended                     0x20000170   Data           4  tasks.o(.data)
    .data                                    0x20000174   Section       20  timers.o(.data)
    pxCurrentTimerList                       0x20000174   Data           4  timers.o(.data)
    pxOverflowTimerList                      0x20000178   Data           4  timers.o(.data)
    xTimerQueue                              0x2000017c   Data           4  timers.o(.data)
    xTimerTaskHandle                         0x20000180   Data           4  timers.o(.data)
    xLastTime                                0x20000184   Data           4  timers.o(.data)
    .data                                    0x20000188   Section       24  heap_4.o(.data)
    pxEnd                                    0x20000188   Data           4  heap_4.o(.data)
    xFreeBytesRemaining                      0x2000018c   Data           4  heap_4.o(.data)
    xMinimumEverFreeBytesRemaining           0x20000190   Data           4  heap_4.o(.data)
    xBlockAllocatedBit                       0x20000194   Data           4  heap_4.o(.data)
    xStart                                   0x20000198   Data           8  heap_4.o(.data)
    .data                                    0x200001a0   Section       12  port.o(.data)
    ucMaxSysCallPriority                     0x200001a0   Data           1  port.o(.data)
    uxCriticalNesting                        0x200001a4   Data           4  port.o(.data)
    ulMaxPRIGROUPValue                       0x200001a8   Data           4  port.o(.data)
    .data                                    0x200001ac   Section        8  mytask03.o(.data)
    .data                                    0x200001b4   Section       44  bmi088driver.o(.data)
    write_BMI088_accel_reg_data_error        0x200001bc   Data          18  bmi088driver.o(.data)
    write_BMI088_gyro_reg_data_error         0x200001ce   Data          18  bmi088driver.o(.data)
    .data                                    0x200001e0   Section        4  stdout.o(.data)
    .bss                                     0x200001e4   Section     1208  freertos.o(.bss)
    xIdleTaskTCBBuffer                       0x200001e4   Data          92  freertos.o(.bss)
    xIdleStack                               0x20000240   Data         512  freertos.o(.bss)
    xTimerTaskTCBBuffer                      0x20000440   Data          92  freertos.o(.bss)
    xTimerStack                              0x2000049c   Data         512  freertos.o(.bss)
    .bss                                     0x2000069c   Section       80  can.o(.bss)
    .bss                                     0x200006ec   Section      280  spi.o(.bss)
    .bss                                     0x20000804   Section       64  tim.o(.bss)
    .bss                                     0x20000844   Section      224  usart.o(.bss)
    .bss                                     0x20000924   Section       40  bsp_can.o(.bss)
    .bss                                     0x2000094c   Section       30  bsp_usart.o(.bss)
    .bss                                     0x20000970   Section     1104  stmgood.o(.bss)
    .bss                                     0x20000dc0   Section     4180  judge.o(.bss)
    .bss                                     0x20001e14   Section       64  queue.o(.bss)
    .bss                                     0x20001e54   Section      240  tasks.o(.bss)
    pxReadyTasksLists                        0x20001e54   Data         140  tasks.o(.bss)
    xDelayedTaskList1                        0x20001ee0   Data          20  tasks.o(.bss)
    xDelayedTaskList2                        0x20001ef4   Data          20  tasks.o(.bss)
    xPendingReadyList                        0x20001f08   Data          20  tasks.o(.bss)
    xTasksWaitingTermination                 0x20001f1c   Data          20  tasks.o(.bss)
    xSuspendedTaskList                       0x20001f30   Data          20  tasks.o(.bss)
    .bss                                     0x20001f44   Section      240  timers.o(.bss)
    xActiveTimerList1                        0x20001f44   Data          20  timers.o(.bss)
    xActiveTimerList2                        0x20001f58   Data          20  timers.o(.bss)
    xStaticTimerQueue                        0x20001f6c   Data          80  timers.o(.bss)
    ucStaticTimerQueueStorage                0x20001fbc   Data         120  timers.o(.bss)
    .bss                                     0x20002034   Section     8000  heap_4.o(.bss)
    ucHeap                                   0x20002034   Data        8000  heap_4.o(.bss)
    .bss                                     0x20003f74   Section       24  mytask03.o(.bss)
    STACK                                    0x20003f90   Section     1024  startup_stm32f407xx.o(STACK)

    Global Symbols

    Symbol Name                              Value     Ov Type        Size  Object(Section)

    BuildAttributes$$THM_ISAv4$E$P$D$K$B$S$7EM$VFPi3$EXTD16$VFPS$VFMA$PE$A:L22UL41UL21$X:L11$S22US41US21$IEEE1$IW$USESV6$~STKCKD$USESV7$~SHL$OTIME$ROPI$EBA8$MICROLIB$REQ8$PRES8$EABIv2 0x00000000   Number         0  anon$$obj.o ABSOLUTE
    __ARM_use_no_argv                        0x00000000   Number         0  main.o ABSOLUTE
    _printf_a                                0x00000000   Number         0  stubs.o ABSOLUTE
    _printf_c                                0x00000000   Number         0  stubs.o ABSOLUTE
    _printf_charcount                        0x00000000   Number         0  stubs.o ABSOLUTE
    _printf_d                                0x00000000   Number         0  stubs.o ABSOLUTE
    _printf_e                                0x00000000   Number         0  stubs.o ABSOLUTE
    _printf_f                                0x00000000   Number         0  stubs.o ABSOLUTE
    _printf_flags                            0x00000000   Number         0  stubs.o ABSOLUTE
    _printf_fp_dec                           0x00000000   Number         0  stubs.o ABSOLUTE
    _printf_fp_hex                           0x00000000   Number         0  stubs.o ABSOLUTE
    _printf_g                                0x00000000   Number         0  stubs.o ABSOLUTE
    _printf_i                                0x00000000   Number         0  stubs.o ABSOLUTE
    _printf_int_dec                          0x00000000   Number         0  stubs.o ABSOLUTE
    _printf_l                                0x00000000   Number         0  stubs.o ABSOLUTE
    _printf_lc                               0x00000000   Number         0  stubs.o ABSOLUTE
    _printf_ll                               0x00000000   Number         0  stubs.o ABSOLUTE
    _printf_lld                              0x00000000   Number         0  stubs.o ABSOLUTE
    _printf_lli                              0x00000000   Number         0  stubs.o ABSOLUTE
    _printf_llo                              0x00000000   Number         0  stubs.o ABSOLUTE
    _printf_llu                              0x00000000   Number         0  stubs.o ABSOLUTE
    _printf_llx                              0x00000000   Number         0  stubs.o ABSOLUTE
    _printf_longlong_dec                     0x00000000   Number         0  stubs.o ABSOLUTE
    _printf_longlong_hex                     0x00000000   Number         0  stubs.o ABSOLUTE
    _printf_longlong_oct                     0x00000000   Number         0  stubs.o ABSOLUTE
    _printf_ls                               0x00000000   Number         0  stubs.o ABSOLUTE
    _printf_mbtowc                           0x00000000   Number         0  stubs.o ABSOLUTE
    _printf_n                                0x00000000   Number         0  stubs.o ABSOLUTE
    _printf_o                                0x00000000   Number         0  stubs.o ABSOLUTE
    _printf_p                                0x00000000   Number         0  stubs.o ABSOLUTE
    _printf_percent                          0x00000000   Number         0  stubs.o ABSOLUTE
    _printf_pre_padding                      0x00000000   Number         0  stubs.o ABSOLUTE
    _printf_return_value                     0x00000000   Number         0  stubs.o ABSOLUTE
    _printf_s                                0x00000000   Number         0  stubs.o ABSOLUTE
    _printf_sizespec                         0x00000000   Number         0  stubs.o ABSOLUTE
    _printf_str                              0x00000000   Number         0  stubs.o ABSOLUTE
    _printf_truncate_signed                  0x00000000   Number         0  stubs.o ABSOLUTE
    _printf_truncate_unsigned                0x00000000   Number         0  stubs.o ABSOLUTE
    _printf_u                                0x00000000   Number         0  stubs.o ABSOLUTE
    _printf_wc                               0x00000000   Number         0  stubs.o ABSOLUTE
    _printf_wctomb                           0x00000000   Number         0  stubs.o ABSOLUTE
    _printf_widthprec                        0x00000000   Number         0  stubs.o ABSOLUTE
    _printf_x                                0x00000000   Number         0  stubs.o ABSOLUTE
    __arm_fini_                               - Undefined Weak Reference
    __cpp_initialize__aeabi_                  - Undefined Weak Reference
    __cxa_finalize                            - Undefined Weak Reference
    _clock_init                               - Undefined Weak Reference
    _microlib_exit                            - Undefined Weak Reference
    __Vectors_Size                           0x00000188   Number         0  startup_stm32f407xx.o ABSOLUTE
    __Vectors                                0x08000000   Data           4  startup_stm32f407xx.o(RESET)
    __Vectors_End                            0x08000188   Data           0  startup_stm32f407xx.o(RESET)
    __main                                   0x08000189   Thumb Code     0  entry.o(.ARM.Collect$$$$00000000)
    _main_stk                                0x08000189   Thumb Code     0  entry2.o(.ARM.Collect$$$$00000001)
    _main_scatterload                        0x0800018d   Thumb Code     0  entry5.o(.ARM.Collect$$$$00000004)
    __main_after_scatterload                 0x08000191   Thumb Code     0  entry5.o(.ARM.Collect$$$$00000004)
    _main_clock                              0x08000191   Thumb Code     0  entry7b.o(.ARM.Collect$$$$00000008)
    _main_cpp_init                           0x08000191   Thumb Code     0  entry8b.o(.ARM.Collect$$$$0000000A)
    _main_init                               0x08000191   Thumb Code     0  entry9a.o(.ARM.Collect$$$$0000000B)
    __rt_lib_shutdown_fini                   0x08000199   Thumb Code     0  entry12b.o(.ARM.Collect$$$$0000000E)
    __rt_final_cpp                           0x0800019d   Thumb Code     0  entry10a.o(.ARM.Collect$$$$0000000F)
    __rt_final_exit                          0x0800019d   Thumb Code     0  entry11a.o(.ARM.Collect$$$$00000011)
    SVC_Handler                              0x080001a1   Thumb Code    28  port.o(.emb_text)
    __asm___6_port_c_39a90d8d__prvStartFirstTask 0x080001c1   Thumb Code    36  port.o(.emb_text)
    __asm___6_port_c_39a90d8d__prvEnableVFP  0x080001e9   Thumb Code    16  port.o(.emb_text)
    PendSV_Handler                           0x080001fd   Thumb Code    88  port.o(.emb_text)
    vPortGetIPSR                             0x08000259   Thumb Code     6  port.o(.emb_text)
    Reset_Handler                            0x08000261   Thumb Code     8  startup_stm32f407xx.o(.text)
    ADC_IRQHandler                           0x0800027b   Thumb Code     0  startup_stm32f407xx.o(.text)
    CAN1_RX1_IRQHandler                      0x0800027b   Thumb Code     0  startup_stm32f407xx.o(.text)
    CAN1_SCE_IRQHandler                      0x0800027b   Thumb Code     0  startup_stm32f407xx.o(.text)
    CAN2_RX1_IRQHandler                      0x0800027b   Thumb Code     0  startup_stm32f407xx.o(.text)
    CAN2_SCE_IRQHandler                      0x0800027b   Thumb Code     0  startup_stm32f407xx.o(.text)
    DCMI_IRQHandler                          0x0800027b   Thumb Code     0  startup_stm32f407xx.o(.text)
    DMA1_Stream0_IRQHandler                  0x0800027b   Thumb Code     0  startup_stm32f407xx.o(.text)
    DMA1_Stream1_IRQHandler                  0x0800027b   Thumb Code     0  startup_stm32f407xx.o(.text)
    DMA1_Stream2_IRQHandler                  0x0800027b   Thumb Code     0  startup_stm32f407xx.o(.text)
    DMA1_Stream3_IRQHandler                  0x0800027b   Thumb Code     0  startup_stm32f407xx.o(.text)
    DMA1_Stream4_IRQHandler                  0x0800027b   Thumb Code     0  startup_stm32f407xx.o(.text)
    DMA1_Stream5_IRQHandler                  0x0800027b   Thumb Code     0  startup_stm32f407xx.o(.text)
    DMA1_Stream6_IRQHandler                  0x0800027b   Thumb Code     0  startup_stm32f407xx.o(.text)
    DMA1_Stream7_IRQHandler                  0x0800027b   Thumb Code     0  startup_stm32f407xx.o(.text)
    DMA2_Stream0_IRQHandler                  0x0800027b   Thumb Code     0  startup_stm32f407xx.o(.text)
    DMA2_Stream4_IRQHandler                  0x0800027b   Thumb Code     0  startup_stm32f407xx.o(.text)
    DMA2_Stream5_IRQHandler                  0x0800027b   Thumb Code     0  startup_stm32f407xx.o(.text)
    DMA2_Stream6_IRQHandler                  0x0800027b   Thumb Code     0  startup_stm32f407xx.o(.text)
    DMA2_Stream7_IRQHandler                  0x0800027b   Thumb Code     0  startup_stm32f407xx.o(.text)
    ETH_IRQHandler                           0x0800027b   Thumb Code     0  startup_stm32f407xx.o(.text)
    ETH_WKUP_IRQHandler                      0x0800027b   Thumb Code     0  startup_stm32f407xx.o(.text)
    EXTI0_IRQHandler                         0x0800027b   Thumb Code     0  startup_stm32f407xx.o(.text)
    EXTI15_10_IRQHandler                     0x0800027b   Thumb Code     0  startup_stm32f407xx.o(.text)
    EXTI1_IRQHandler                         0x0800027b   Thumb Code     0  startup_stm32f407xx.o(.text)
    EXTI2_IRQHandler                         0x0800027b   Thumb Code     0  startup_stm32f407xx.o(.text)
    EXTI3_IRQHandler                         0x0800027b   Thumb Code     0  startup_stm32f407xx.o(.text)
    FLASH_IRQHandler                         0x0800027b   Thumb Code     0  startup_stm32f407xx.o(.text)
    FMC_IRQHandler                           0x0800027b   Thumb Code     0  startup_stm32f407xx.o(.text)
    FPU_IRQHandler                           0x0800027b   Thumb Code     0  startup_stm32f407xx.o(.text)
    HASH_RNG_IRQHandler                      0x0800027b   Thumb Code     0  startup_stm32f407xx.o(.text)
    I2C1_ER_IRQHandler                       0x0800027b   Thumb Code     0  startup_stm32f407xx.o(.text)
    I2C1_EV_IRQHandler                       0x0800027b   Thumb Code     0  startup_stm32f407xx.o(.text)
    I2C2_ER_IRQHandler                       0x0800027b   Thumb Code     0  startup_stm32f407xx.o(.text)
    I2C2_EV_IRQHandler                       0x0800027b   Thumb Code     0  startup_stm32f407xx.o(.text)
    I2C3_ER_IRQHandler                       0x0800027b   Thumb Code     0  startup_stm32f407xx.o(.text)
    I2C3_EV_IRQHandler                       0x0800027b   Thumb Code     0  startup_stm32f407xx.o(.text)
    OTG_FS_IRQHandler                        0x0800027b   Thumb Code     0  startup_stm32f407xx.o(.text)
    OTG_FS_WKUP_IRQHandler                   0x0800027b   Thumb Code     0  startup_stm32f407xx.o(.text)
    OTG_HS_EP1_IN_IRQHandler                 0x0800027b   Thumb Code     0  startup_stm32f407xx.o(.text)
    OTG_HS_EP1_OUT_IRQHandler                0x0800027b   Thumb Code     0  startup_stm32f407xx.o(.text)
    OTG_HS_IRQHandler                        0x0800027b   Thumb Code     0  startup_stm32f407xx.o(.text)
    OTG_HS_WKUP_IRQHandler                   0x0800027b   Thumb Code     0  startup_stm32f407xx.o(.text)
    PVD_IRQHandler                           0x0800027b   Thumb Code     0  startup_stm32f407xx.o(.text)
    RCC_IRQHandler                           0x0800027b   Thumb Code     0  startup_stm32f407xx.o(.text)
    RTC_Alarm_IRQHandler                     0x0800027b   Thumb Code     0  startup_stm32f407xx.o(.text)
    RTC_WKUP_IRQHandler                      0x0800027b   Thumb Code     0  startup_stm32f407xx.o(.text)
    SDIO_IRQHandler                          0x0800027b   Thumb Code     0  startup_stm32f407xx.o(.text)
    SPI1_IRQHandler                          0x0800027b   Thumb Code     0  startup_stm32f407xx.o(.text)
    SPI2_IRQHandler                          0x0800027b   Thumb Code     0  startup_stm32f407xx.o(.text)
    SPI3_IRQHandler                          0x0800027b   Thumb Code     0  startup_stm32f407xx.o(.text)
    TAMP_STAMP_IRQHandler                    0x0800027b   Thumb Code     0  startup_stm32f407xx.o(.text)
    TIM1_BRK_TIM9_IRQHandler                 0x0800027b   Thumb Code     0  startup_stm32f407xx.o(.text)
    TIM1_CC_IRQHandler                       0x0800027b   Thumb Code     0  startup_stm32f407xx.o(.text)
    TIM1_TRG_COM_TIM11_IRQHandler            0x0800027b   Thumb Code     0  startup_stm32f407xx.o(.text)
    TIM2_IRQHandler                          0x0800027b   Thumb Code     0  startup_stm32f407xx.o(.text)
    TIM3_IRQHandler                          0x0800027b   Thumb Code     0  startup_stm32f407xx.o(.text)
    TIM4_IRQHandler                          0x0800027b   Thumb Code     0  startup_stm32f407xx.o(.text)
    TIM5_IRQHandler                          0x0800027b   Thumb Code     0  startup_stm32f407xx.o(.text)
    TIM6_DAC_IRQHandler                      0x0800027b   Thumb Code     0  startup_stm32f407xx.o(.text)
    TIM7_IRQHandler                          0x0800027b   Thumb Code     0  startup_stm32f407xx.o(.text)
    TIM8_BRK_TIM12_IRQHandler                0x0800027b   Thumb Code     0  startup_stm32f407xx.o(.text)
    TIM8_CC_IRQHandler                       0x0800027b   Thumb Code     0  startup_stm32f407xx.o(.text)
    TIM8_TRG_COM_TIM14_IRQHandler            0x0800027b   Thumb Code     0  startup_stm32f407xx.o(.text)
    TIM8_UP_TIM13_IRQHandler                 0x0800027b   Thumb Code     0  startup_stm32f407xx.o(.text)
    UART4_IRQHandler                         0x0800027b   Thumb Code     0  startup_stm32f407xx.o(.text)
    UART5_IRQHandler                         0x0800027b   Thumb Code     0  startup_stm32f407xx.o(.text)
    USART2_IRQHandler                        0x0800027b   Thumb Code     0  startup_stm32f407xx.o(.text)
    USART3_IRQHandler                        0x0800027b   Thumb Code     0  startup_stm32f407xx.o(.text)
    WWDG_IRQHandler                          0x0800027b   Thumb Code     0  startup_stm32f407xx.o(.text)
    __aeabi_uldivmod                         0x08000285   Thumb Code    98  uldiv.o(.text)
    __aeabi_memcpy                           0x080002e7   Thumb Code    36  memcpya.o(.text)
    __aeabi_memcpy4                          0x080002e7   Thumb Code     0  memcpya.o(.text)
    __aeabi_memcpy8                          0x080002e7   Thumb Code     0  memcpya.o(.text)
    __aeabi_memset                           0x0800030b   Thumb Code    14  memseta.o(.text)
    __aeabi_memset4                          0x0800030b   Thumb Code     0  memseta.o(.text)
    __aeabi_memset8                          0x0800030b   Thumb Code     0  memseta.o(.text)
    __aeabi_memclr                           0x08000319   Thumb Code     4  memseta.o(.text)
    __aeabi_memclr4                          0x08000319   Thumb Code     0  memseta.o(.text)
    __aeabi_memclr8                          0x08000319   Thumb Code     0  memseta.o(.text)
    memset                                   0x0800031d   Thumb Code    18  memseta.o(.text)
    __aeabi_dadd                             0x0800032f   Thumb Code   322  dadd.o(.text)
    __aeabi_dsub                             0x08000471   Thumb Code     6  dadd.o(.text)
    __aeabi_drsub                            0x08000477   Thumb Code     6  dadd.o(.text)
    __aeabi_dmul                             0x0800047d   Thumb Code   228  dmul.o(.text)
    __aeabi_i2d                              0x08000561   Thumb Code    34  dflti.o(.text)
    __aeabi_f2d                              0x08000583   Thumb Code    38  f2d.o(.text)
    __aeabi_d2f                              0x080005a9   Thumb Code    56  d2f.o(.text)
    __aeabi_uidiv                            0x080005e1   Thumb Code     0  uidiv.o(.text)
    __aeabi_uidivmod                         0x080005e1   Thumb Code    44  uidiv.o(.text)
    __aeabi_llsl                             0x0800060d   Thumb Code    30  llshl.o(.text)
    _ll_shift_l                              0x0800060d   Thumb Code     0  llshl.o(.text)
    __aeabi_llsr                             0x0800062b   Thumb Code    32  llushr.o(.text)
    _ll_ushift_r                             0x0800062b   Thumb Code     0  llushr.o(.text)
    __aeabi_lasr                             0x0800064b   Thumb Code    36  llsshr.o(.text)
    _ll_sshift_r                             0x0800064b   Thumb Code     0  llsshr.o(.text)
    __I$use$fp                               0x0800066f   Thumb Code     0  iusefp.o(.text)
    _float_round                             0x0800066f   Thumb Code    18  fepilogue.o(.text)
    _float_epilogue                          0x08000681   Thumb Code    92  fepilogue.o(.text)
    _double_round                            0x080006dd   Thumb Code    30  depilogue.o(.text)
    _double_epilogue                         0x080006fb   Thumb Code   156  depilogue.o(.text)
    __aeabi_ddiv                             0x08000797   Thumb Code   222  ddiv.o(.text)
    __aeabi_d2ulz                            0x08000875   Thumb Code    48  dfixul.o(.text)
    __aeabi_cdrcmple                         0x080008a5   Thumb Code    48  cdrcmple.o(.text)
    __scatterload                            0x080008d5   Thumb Code    28  init.o(.text)
    __scatterload_rt2                        0x080008d5   Thumb Code     0  init.o(.text)
    __decompress                             0x080008f9   Thumb Code     0  __dczerorl2.o(.text)
    __decompress1                            0x080008f9   Thumb Code    86  __dczerorl2.o(.text)
    Append_CRC16_Check_Sum                   0x08000b51   Thumb Code    36  crc.o(i.Append_CRC16_Check_Sum)
    Append_CRC8_Check_Sum                    0x08000b79   Thumb Code    28  crc.o(i.Append_CRC8_Check_Sum)
    BMI088_ACCEL_NS_H                        0x08000b95   Thumb Code    10  bmi088middleware.o(i.BMI088_ACCEL_NS_H)
    BMI088_ACCEL_NS_L                        0x08000ba5   Thumb Code    10  bmi088middleware.o(i.BMI088_ACCEL_NS_L)
    BMI088_GPIO_init                         0x08000bb5   Thumb Code     2  bmi088middleware.o(i.BMI088_GPIO_init)
    BMI088_GYRO_NS_H                         0x08000bb9   Thumb Code    10  bmi088middleware.o(i.BMI088_GYRO_NS_H)
    BMI088_GYRO_NS_L                         0x08000bc9   Thumb Code    10  bmi088middleware.o(i.BMI088_GYRO_NS_L)
    BMI088_com_init                          0x08000bd9   Thumb Code     2  bmi088middleware.o(i.BMI088_com_init)
    BMI088_delay_ms                          0x08000bdb   Thumb Code    24  bmi088middleware.o(i.BMI088_delay_ms)
    BMI088_delay_us                          0x08000bf3   Thumb Code    46  bmi088middleware.o(i.BMI088_delay_us)
    BMI088_init                              0x08000c21   Thumb Code    24  bmi088driver.o(i.BMI088_init)
    BMI088_read                              0x08000c39   Thumb Code   340  bmi088driver.o(i.BMI088_read)
    BMI088_read_write_byte                   0x08000dcd   Thumb Code    28  bmi088middleware.o(i.BMI088_read_write_byte)
    BusFault_Handler                         0x08000dff   Thumb Code     2  stm32f4xx_it.o(i.BusFault_Handler)
    CAN1_RX0_IRQHandler                      0x08000e01   Thumb Code     6  stm32f4xx_it.o(i.CAN1_RX0_IRQHandler)
    CAN1_TX_IRQHandler                       0x08000e0d   Thumb Code     6  stm32f4xx_it.o(i.CAN1_TX_IRQHandler)
    CAN2_RX0_IRQHandler                      0x08000e19   Thumb Code     6  stm32f4xx_it.o(i.CAN2_RX0_IRQHandler)
    CAN2_TX_IRQHandler                       0x08000e25   Thumb Code     6  stm32f4xx_it.o(i.CAN2_TX_IRQHandler)
    CANFilter_Enable                         0x08000e31   Thumb Code    86  bsp_can.o(i.CANFilter_Enable)
    CAN_Enable                               0x08000e99   Thumb Code    26  bsp_can.o(i.CAN_Enable)
    CAN_Send_bytes                           0x08000eb5   Thumb Code    84  bsp_can.o(i.CAN_Send_bytes)
    CharacteFRIC_stateShow                   0x08000f0d   Thumb Code   362  judge.o(i.CharacteFRIC_stateShow)
    CharacterFRIC_MODEShow                   0x08001091   Thumb Code   278  judge.o(i.CharacterFRIC_MODEShow)
    CharacterFricSPEEDShow                   0x080011b5   Thumb Code   190  judge.o(i.CharacterFricSPEEDShow)
    CharacterFricTEMPShow                    0x0800128d   Thumb Code   192  judge.o(i.CharacterFricTEMPShow)
    CharacterGimbal_FULL_VISION_Show         0x08001361   Thumb Code   182  judge.o(i.CharacterGimbal_FULL_VISION_Show)
    CharacterGimbal_HALF_VISION_Show         0x0800142d   Thumb Code   180  judge.o(i.CharacterGimbal_HALF_VISION_Show)
    CharacterGimbal_HOIST_Show               0x080014f9   Thumb Code   180  judge.o(i.CharacterGimbal_HOIST_Show)
    CharacterGimbal_MNAUALShow               0x080015c5   Thumb Code   180  judge.o(i.CharacterGimbal_MNAUALShow)
    CharacterGimbal_NULL_Show                0x08001691   Thumb Code   178  judge.o(i.CharacterGimbal_NULL_Show)
    CharacterPitchShow                       0x0800175d   Thumb Code   280  judge.o(i.CharacterPitchShow)
    Character_CHASSIS_APART_Show             0x08001881   Thumb Code   180  judge.o(i.Character_CHASSIS_APART_Show)
    Character_CHASSIS_FOLLOW_Show            0x0800194d   Thumb Code   180  judge.o(i.Character_CHASSIS_FOLLOW_Show)
    Character_CHASSIS_NULL_Show              0x08001a19   Thumb Code   180  judge.o(i.Character_CHASSIS_NULL_Show)
    Character_CHASSIS_STOP_Show              0x08001ae5   Thumb Code   180  judge.o(i.Character_CHASSIS_STOP_Show)
    Character_CHASSIS_TOP_Show               0x08001bb1   Thumb Code   178  judge.o(i.Character_CHASSIS_TOP_Show)
    CheckID                                  0x08001c7d   Thumb Code    10  judge.o(i.CheckID)
    Collision_Border                         0x08001c91   Thumb Code   242  judge.o(i.Collision_Border)
    Command                                  0x08001d91   Thumb Code   390  stmgood.o(i.Command)
    CompStr                                  0x08001f99   Thumb Code    48  stmgood.o(i.CompStr)
    CopyStr                                  0x08001fc9   Thumb Code    22  stmgood.o(i.CopyStr)
    Crosshair                                0x08001fe1   Thumb Code   458  judge.o(i.Crosshair)
    Crosshair1                               0x080021bd   Thumb Code   410  judge.o(i.Crosshair1)
    DMA2_Stream1_IRQHandler                  0x08002365   Thumb Code     6  stm32f4xx_it.o(i.DMA2_Stream1_IRQHandler)
    DMA2_Stream2_IRQHandler                  0x08002371   Thumb Code     6  stm32f4xx_it.o(i.DMA2_Stream2_IRQHandler)
    DMA2_Stream3_IRQHandler                  0x0800237d   Thumb Code     6  stm32f4xx_it.o(i.DMA2_Stream3_IRQHandler)
    DealStr                                  0x0800242d   Thumb Code   128  stmgood.o(i.DealStr)
    Dealdata                                 0x080024b5   Thumb Code   134  stmgood.o(i.Dealdata)
    DebugMon_Handler                         0x08002545   Thumb Code     2  stm32f4xx_it.o(i.DebugMon_Handler)
    DrawCapVolRectangle                      0x08002549   Thumb Code  1078  judge.o(i.DrawCapVolRectangle)
    Draw_CIRCLE_mode                         0x08002989   Thumb Code   390  judge.o(i.Draw_CIRCLE_mode)
    EXTI4_IRQHandler                         0x08002b1d   Thumb Code     6  stm32f4xx_it.o(i.EXTI4_IRQHandler)
    EXTI9_5_IRQHandler                       0x08002b23   Thumb Code     6  stm32f4xx_it.o(i.EXTI9_5_IRQHandler)
    Error_Handler                            0x08002b29   Thumb Code     2  main.o(i.Error_Handler)
    FirstSpace                               0x08002b2b   Thumb Code    24  stmgood.o(i.FirstSpace)
    FloatDataShow                            0x08002b45   Thumb Code   584  judge.o(i.FloatDataShow)
    Get_CRC16_Check_Sum                      0x08002d9d   Thumb Code    38  crc.o(i.Get_CRC16_Check_Sum)
    Get_CRC8_Check_Sum                       0x08002dc9   Thumb Code    24  crc.o(i.Get_CRC8_Check_Sum)
    HAL_CAN_ActivateNotification             0x08002de5   Thumb Code    36  stm32f4xx_hal_can.o(i.HAL_CAN_ActivateNotification)
    HAL_CAN_AddTxMessage                     0x08002e09   Thumb Code   220  stm32f4xx_hal_can.o(i.HAL_CAN_AddTxMessage)
    HAL_CAN_ConfigFilter                     0x08002ee5   Thumb Code   262  stm32f4xx_hal_can.o(i.HAL_CAN_ConfigFilter)
    HAL_CAN_ErrorCallback                    0x08002ff1   Thumb Code     2  stm32f4xx_hal_can.o(i.HAL_CAN_ErrorCallback)
    HAL_CAN_GetRxMessage                     0x08002ff3   Thumb Code   232  stm32f4xx_hal_can.o(i.HAL_CAN_GetRxMessage)
    HAL_CAN_IRQHandler                       0x080030db   Thumb Code   508  stm32f4xx_hal_can.o(i.HAL_CAN_IRQHandler)
    HAL_CAN_Init                             0x080032d7   Thumb Code   282  stm32f4xx_hal_can.o(i.HAL_CAN_Init)
    HAL_CAN_MspInit                          0x080033f1   Thumb Code   258  can.o(i.HAL_CAN_MspInit)
    HAL_CAN_RxFifo0FullCallback              0x0800350d   Thumb Code     2  stm32f4xx_hal_can.o(i.HAL_CAN_RxFifo0FullCallback)
    HAL_CAN_RxFifo0MsgPendingCallback        0x08003511   Thumb Code   238  bsp_can.o(i.HAL_CAN_RxFifo0MsgPendingCallback)
    HAL_CAN_RxFifo1FullCallback              0x08003619   Thumb Code     2  stm32f4xx_hal_can.o(i.HAL_CAN_RxFifo1FullCallback)
    HAL_CAN_RxFifo1MsgPendingCallback        0x0800361b   Thumb Code     2  stm32f4xx_hal_can.o(i.HAL_CAN_RxFifo1MsgPendingCallback)
    HAL_CAN_SleepCallback                    0x0800361d   Thumb Code     2  stm32f4xx_hal_can.o(i.HAL_CAN_SleepCallback)
    HAL_CAN_Start                            0x08003621   Thumb Code    88  stm32f4xx_hal_can.o(i.HAL_CAN_Start)
    HAL_CAN_TxMailbox0AbortCallback          0x08003679   Thumb Code     2  stm32f4xx_hal_can.o(i.HAL_CAN_TxMailbox0AbortCallback)
    HAL_CAN_TxMailbox0CompleteCallback       0x0800367b   Thumb Code     2  stm32f4xx_hal_can.o(i.HAL_CAN_TxMailbox0CompleteCallback)
    HAL_CAN_TxMailbox1AbortCallback          0x0800367d   Thumb Code     2  stm32f4xx_hal_can.o(i.HAL_CAN_TxMailbox1AbortCallback)
    HAL_CAN_TxMailbox1CompleteCallback       0x0800367f   Thumb Code     2  stm32f4xx_hal_can.o(i.HAL_CAN_TxMailbox1CompleteCallback)
    HAL_CAN_TxMailbox2AbortCallback          0x08003681   Thumb Code     2  stm32f4xx_hal_can.o(i.HAL_CAN_TxMailbox2AbortCallback)
    HAL_CAN_TxMailbox2CompleteCallback       0x08003683   Thumb Code     2  stm32f4xx_hal_can.o(i.HAL_CAN_TxMailbox2CompleteCallback)
    HAL_CAN_WakeUpFromRxMsgCallback          0x08003685   Thumb Code     2  stm32f4xx_hal_can.o(i.HAL_CAN_WakeUpFromRxMsgCallback)
    HAL_DMA_Abort_IT                         0x08003687   Thumb Code    36  stm32f4xx_hal_dma.o(i.HAL_DMA_Abort_IT)
    HAL_DMA_IRQHandler                       0x080036ad   Thumb Code   412  stm32f4xx_hal_dma.o(i.HAL_DMA_IRQHandler)
    HAL_DMA_Init                             0x0800384d   Thumb Code   206  stm32f4xx_hal_dma.o(i.HAL_DMA_Init)
    HAL_DMA_Start_IT                         0x08003921   Thumb Code   110  stm32f4xx_hal_dma.o(i.HAL_DMA_Start_IT)
    HAL_GPIO_EXTI_Callback                   0x0800398f   Thumb Code     2  stm32f4xx_hal_gpio.o(i.HAL_GPIO_EXTI_Callback)
    HAL_GPIO_EXTI_IRQHandler                 0x08003991   Thumb Code    18  stm32f4xx_hal_gpio.o(i.HAL_GPIO_EXTI_IRQHandler)
    HAL_GPIO_Init                            0x080039a9   Thumb Code   394  stm32f4xx_hal_gpio.o(i.HAL_GPIO_Init)
    HAL_GPIO_WritePin                        0x08003b61   Thumb Code    10  stm32f4xx_hal_gpio.o(i.HAL_GPIO_WritePin)
    HAL_GetTick                              0x08003b6d   Thumb Code     6  stm32f4xx_hal.o(i.HAL_GetTick)
    HAL_IncTick                              0x08003b79   Thumb Code    12  stm32f4xx_hal.o(i.HAL_IncTick)
    HAL_Init                                 0x08003b89   Thumb Code    48  stm32f4xx_hal.o(i.HAL_Init)
    HAL_InitTick                             0x08003bbd   Thumb Code    54  stm32f4xx_hal.o(i.HAL_InitTick)
    HAL_MspInit                              0x08003bfd   Thumb Code    52  stm32f4xx_hal_msp.o(i.HAL_MspInit)
    HAL_NVIC_EnableIRQ                       0x08003c35   Thumb Code    26  stm32f4xx_hal_cortex.o(i.HAL_NVIC_EnableIRQ)
    HAL_NVIC_SetPriority                     0x08003c51   Thumb Code    60  stm32f4xx_hal_cortex.o(i.HAL_NVIC_SetPriority)
    HAL_NVIC_SetPriorityGrouping             0x08003c91   Thumb Code    26  stm32f4xx_hal_cortex.o(i.HAL_NVIC_SetPriorityGrouping)
    HAL_RCC_ClockConfig                      0x08003cb5   Thumb Code   288  stm32f4xx_hal_rcc.o(i.HAL_RCC_ClockConfig)
    HAL_RCC_GetPCLK1Freq                     0x08003de9   Thumb Code    20  stm32f4xx_hal_rcc.o(i.HAL_RCC_GetPCLK1Freq)
    HAL_RCC_GetPCLK2Freq                     0x08003e09   Thumb Code    20  stm32f4xx_hal_rcc.o(i.HAL_RCC_GetPCLK2Freq)
    HAL_RCC_GetSysClockFreq                  0x08003e29   Thumb Code    88  stm32f4xx_hal_rcc.o(i.HAL_RCC_GetSysClockFreq)
    HAL_RCC_OscConfig                        0x08003e8d   Thumb Code   840  stm32f4xx_hal_rcc.o(i.HAL_RCC_OscConfig)
    HAL_SPI_Init                             0x080041e9   Thumb Code   128  stm32f4xx_hal_spi.o(i.HAL_SPI_Init)
    HAL_SPI_MspInit                          0x08004269   Thumb Code   232  spi.o(i.HAL_SPI_MspInit)
    HAL_SPI_TransmitReceive                  0x08004369   Thumb Code   482  stm32f4xx_hal_spi.o(i.HAL_SPI_TransmitReceive)
    HAL_SYSTICK_Config                       0x0800454b   Thumb Code    40  stm32f4xx_hal_cortex.o(i.HAL_SYSTICK_Config)
    HAL_TIMEx_BreakCallback                  0x08004573   Thumb Code     2  stm32f4xx_hal_tim_ex.o(i.HAL_TIMEx_BreakCallback)
    HAL_TIMEx_CommutCallback                 0x08004575   Thumb Code     2  stm32f4xx_hal_tim_ex.o(i.HAL_TIMEx_CommutCallback)
    HAL_TIM_Base_Init                        0x08004577   Thumb Code    54  stm32f4xx_hal_tim.o(i.HAL_TIM_Base_Init)
    HAL_TIM_Base_MspInit                     0x080045ad   Thumb Code    50  tim.o(i.HAL_TIM_Base_MspInit)
    HAL_TIM_IC_CaptureCallback               0x080045e9   Thumb Code     2  stm32f4xx_hal_tim.o(i.HAL_TIM_IC_CaptureCallback)
    HAL_TIM_IRQHandler                       0x080045eb   Thumb Code   358  stm32f4xx_hal_tim.o(i.HAL_TIM_IRQHandler)
    HAL_TIM_MspPostInit                      0x08004751   Thumb Code    70  tim.o(i.HAL_TIM_MspPostInit)
    HAL_TIM_OC_DelayElapsedCallback          0x080047a5   Thumb Code     2  stm32f4xx_hal_tim.o(i.HAL_TIM_OC_DelayElapsedCallback)
    HAL_TIM_PWM_ConfigChannel                0x080047a7   Thumb Code   208  stm32f4xx_hal_tim.o(i.HAL_TIM_PWM_ConfigChannel)
    HAL_TIM_PWM_Init                         0x08004877   Thumb Code    54  stm32f4xx_hal_tim.o(i.HAL_TIM_PWM_Init)
    HAL_TIM_PWM_MspInit                      0x080048ad   Thumb Code     2  stm32f4xx_hal_tim.o(i.HAL_TIM_PWM_MspInit)
    HAL_TIM_PWM_PulseFinishedCallback        0x080048af   Thumb Code     2  stm32f4xx_hal_tim.o(i.HAL_TIM_PWM_PulseFinishedCallback)
    HAL_TIM_PeriodElapsedCallback            0x080048b1   Thumb Code     2  stm32f4xx_hal_tim.o(i.HAL_TIM_PeriodElapsedCallback)
    HAL_TIM_TriggerCallback                  0x080048b3   Thumb Code     2  stm32f4xx_hal_tim.o(i.HAL_TIM_TriggerCallback)
    HAL_UART_ErrorCallback                   0x080048b5   Thumb Code    18  bsp_usart.o(i.HAL_UART_ErrorCallback)
    HAL_UART_IRQHandler                      0x080048c9   Thumb Code   270  stm32f4xx_hal_uart.o(i.HAL_UART_IRQHandler)
    HAL_UART_Init                            0x080049dd   Thumb Code    98  stm32f4xx_hal_uart.o(i.HAL_UART_Init)
    HAL_UART_MspInit                         0x08004a41   Thumb Code   258  usart.o(i.HAL_UART_MspInit)
    HAL_UART_Receive_DMA                     0x08004b65   Thumb Code   138  stm32f4xx_hal_uart.o(i.HAL_UART_Receive_DMA)
    HAL_UART_Receive_IT                      0x08004bfd   Thumb Code    82  stm32f4xx_hal_uart.o(i.HAL_UART_Receive_IT)
    HAL_UART_RxCpltCallback                  0x08004c51   Thumb Code    82  bsp_usart.o(i.HAL_UART_RxCpltCallback)
    HAL_UART_RxHalfCpltCallback              0x08004cbd   Thumb Code     2  stm32f4xx_hal_uart.o(i.HAL_UART_RxHalfCpltCallback)
    HAL_UART_Transmit_IT                     0x08004cbf   Thumb Code    62  stm32f4xx_hal_uart.o(i.HAL_UART_Transmit_IT)
    HAL_UART_TxCpltCallback                  0x08004cfd   Thumb Code     2  stm32f4xx_hal_uart.o(i.HAL_UART_TxCpltCallback)
    HardFault_Handler                        0x08004cff   Thumb Code     2  stm32f4xx_it.o(i.HardFault_Handler)
    JudgeData                                0x08004d01   Thumb Code   544  judge.o(i.JudgeData)
    MX_CAN1_Init                             0x08004f2d   Thumb Code    62  can.o(i.MX_CAN1_Init)
    MX_CAN2_Init                             0x08004f75   Thumb Code    66  can.o(i.MX_CAN2_Init)
    MX_DMA_Init                              0x08004fc1   Thumb Code    72  dma.o(i.MX_DMA_Init)
    MX_FREERTOS_Init                         0x0800500d   Thumb Code    96  freertos.o(i.MX_FREERTOS_Init)
    MX_GPIO_Init                             0x08005075   Thumb Code   338  gpio.o(i.MX_GPIO_Init)
    MX_SPI1_Init                             0x080051e9   Thumb Code    64  spi.o(i.MX_SPI1_Init)
    MX_TIM10_Init                            0x08005231   Thumb Code    92  tim.o(i.MX_TIM10_Init)
    MX_USART1_UART_Init                      0x08005295   Thumb Code    48  usart.o(i.MX_USART1_UART_Init)
    MX_USART6_UART_Init                      0x080052cd   Thumb Code    48  usart.o(i.MX_USART6_UART_Init)
    MY_CAN_Init                              0x08005305   Thumb Code    18  bsp_can.o(i.MY_CAN_Init)
    MY_USART_Init                            0x08005321   Thumb Code    32  bsp_usart.o(i.MY_USART_Init)
    MemManage_Handler                        0x08005351   Thumb Code     2  stm32f4xx_it.o(i.MemManage_Handler)
    NMI_Handler                              0x08005353   Thumb Code     2  stm32f4xx_it.o(i.NMI_Handler)
    SplitStr                                 0x08005441   Thumb Code    80  stmgood.o(i.SplitStr)
    StartDefaultTask                         0x08005491   Thumb Code    10  freertos.o(i.StartDefaultTask)
    StartTask02                              0x0800549b   Thumb Code    12  mytask02.o(i.StartTask02)
    StartTask03                              0x080054a9   Thumb Code    34  mytask03.o(i.StartTask03)
    StartTask04                              0x080054d5   Thumb Code    16  mytask04.o(i.StartTask04)
    Start_RM_Task                            0x080054e5   Thumb Code   410  rm_task.o(i.Start_RM_Task)
    Start_UI_Task                            0x080056a5   Thumb Code   506  rm_task.o(i.Start_UI_Task)
    StrToFloat                               0x080058ad   Thumb Code   282  stmgood.o(i.StrToFloat)
    Strlen                                   0x080059e1   Thumb Code    16  stmgood.o(i.Strlen)
    SubStr                                   0x080059f1   Thumb Code    34  stmgood.o(i.SubStr)
    SysTick_Handler                          0x08005a19   Thumb Code    24  stm32f4xx_it.o(i.SysTick_Handler)
    SystemClock_Config                       0x08005a31   Thumb Code   124  main.o(i.SystemClock_Config)
    SystemInit                               0x08005ab5   Thumb Code    66  system_stm32f4xx.o(i.SystemInit)
    TIM1_UP_TIM10_IRQHandler                 0x08005b09   Thumb Code     6  stm32f4xx_it.o(i.TIM1_UP_TIM10_IRQHandler)
    TIM_Base_SetConfig                       0x08005b15   Thumb Code   156  stm32f4xx_hal_tim.o(i.TIM_Base_SetConfig)
    TIM_OC2_SetConfig                        0x08005c3d   Thumb Code    98  stm32f4xx_hal_tim.o(i.TIM_OC2_SetConfig)
    Two_byte_send_id                         0x08005d61   Thumb Code   108  judge.o(i.Two_byte_send_id)
    USART1_IRQHandler                        0x080060c1   Thumb Code     6  stm32f4xx_it.o(i.USART1_IRQHandler)
    USART6_IRQHandler                        0x080060cd   Thumb Code     6  stm32f4xx_it.o(i.USART6_IRQHandler)
    USART_Enable                             0x080060d9   Thumb Code    22  bsp_usart.o(i.USART_Enable)
    UsageFault_Handler                       0x080060ef   Thumb Code     2  stm32f4xx_it.o(i.UsageFault_Handler)
    Verify_CRC16_Check_Sum                   0x080060f1   Thumb Code    54  crc.o(i.Verify_CRC16_Check_Sum)
    Verify_CRC8_Check_Sum                    0x0800612d   Thumb Code    38  crc.o(i.Verify_CRC8_Check_Sum)
    __0printf                                0x08006155   Thumb Code    22  printfa.o(i.__0printf)
    __1printf                                0x08006155   Thumb Code     0  printfa.o(i.__0printf)
    __2printf                                0x08006155   Thumb Code     0  printfa.o(i.__0printf)
    __c89printf                              0x08006155   Thumb Code     0  printfa.o(i.__0printf)
    printf                                   0x08006155   Thumb Code     0  printfa.o(i.__0printf)
    __scatterload_copy                       0x08006195   Thumb Code    14  handlers.o(i.__scatterload_copy)
    __scatterload_null                       0x080061a3   Thumb Code     2  handlers.o(i.__scatterload_null)
    __scatterload_zeroinit                   0x080061a5   Thumb Code    14  handlers.o(i.__scatterload_zeroinit)
    bmi088_accel_init                        0x08006a41   Thumb Code   266  bmi088driver.o(i.bmi088_accel_init)
    bmi088_gyro_init                         0x08006b51   Thumb Code   214  bmi088driver.o(i.bmi088_gyro_init)
    cmd                                      0x08006c2d   Thumb Code   156  stmgood.o(i.cmd)
    fputc                                    0x08006d01   Thumb Code    14  bsp_usart.o(i.fputc)
    main                                     0x08006d15   Thumb Code    66  main.o(i.main)
    multi1                                   0x08006d65   Thumb Code    66  stmgood.o(i.multi1)
    multi2                                   0x08006dd1   Thumb Code    58  stmgood.o(i.multi2)
    osDelay                                  0x08006e29   Thumb Code    14  cmsis_os.o(i.osDelay)
    osKernelStart                            0x08006e37   Thumb Code    10  cmsis_os.o(i.osKernelStart)
    osThreadCreate                           0x08006e41   Thumb Code    84  cmsis_os.o(i.osThreadCreate)
    pvPortMalloc                             0x08007631   Thumb Code   210  heap_4.o(i.pvPortMalloc)
    pxPortInitialiseStack                    0x08007709   Thumb Code    40  port.o(i.pxPortInitialiseStack)
    uxListRemove                             0x08007735   Thumb Code    38  list.o(i.uxListRemove)
    vApplicationGetIdleTaskMemory            0x0800775d   Thumb Code    16  freertos.o(i.vApplicationGetIdleTaskMemory)
    vApplicationGetTimerTaskMemory           0x08007771   Thumb Code    16  freertos.o(i.vApplicationGetTimerTaskMemory)
    vApplicationStackOverflowHook            0x08007785   Thumb Code     2  freertos.o(i.vApplicationStackOverflowHook)
    vListInitialise                          0x08007787   Thumb Code    22  list.o(i.vListInitialise)
    vListInitialiseItem                      0x0800779d   Thumb Code     6  list.o(i.vListInitialiseItem)
    vListInsert                              0x080077a3   Thumb Code    48  list.o(i.vListInsert)
    vListInsertEnd                           0x080077d3   Thumb Code    24  list.o(i.vListInsertEnd)
    vPortEnterCritical                       0x080077ed   Thumb Code    54  port.o(i.vPortEnterCritical)
    vPortExitCritical                        0x0800782d   Thumb Code    34  port.o(i.vPortExitCritical)
    vPortFree                                0x08007855   Thumb Code    88  heap_4.o(i.vPortFree)
    vPortSetupTimerInterrupt                 0x080078b1   Thumb Code    32  port.o(i.vPortSetupTimerInterrupt)
    vPortValidateInterruptPriority           0x080078d5   Thumb Code    74  port.o(i.vPortValidateInterruptPriority)
    vQueueAddToRegistry                      0x08007929   Thumb Code    34  queue.o(i.vQueueAddToRegistry)
    vQueueWaitForMessageRestricted           0x08007951   Thumb Code    68  queue.o(i.vQueueWaitForMessageRestricted)
    vTaskDelay                               0x08007995   Thumb Code    66  tasks.o(i.vTaskDelay)
    vTaskInternalSetTimeOutState             0x080079e1   Thumb Code    12  tasks.o(i.vTaskInternalSetTimeOutState)
    vTaskMissedYield                         0x080079f1   Thumb Code     8  tasks.o(i.vTaskMissedYield)
    vTaskPlaceOnEventList                    0x080079fd   Thumb Code    44  tasks.o(i.vTaskPlaceOnEventList)
    vTaskPlaceOnEventListRestricted          0x08007a2d   Thumb Code    52  tasks.o(i.vTaskPlaceOnEventListRestricted)
    vTaskStartScheduler                      0x08007a65   Thumb Code   118  tasks.o(i.vTaskStartScheduler)
    vTaskSuspendAll                          0x08007aed   Thumb Code    10  tasks.o(i.vTaskSuspendAll)
    vTaskSwitchContext                       0x08007afd   Thumb Code   106  tasks.o(i.vTaskSwitchContext)
    xPortStartScheduler                      0x08007b71   Thumb Code   222  port.o(i.xPortStartScheduler)
    xPortSysTickHandler                      0x08007c65   Thumb Code    38  port.o(i.xPortSysTickHandler)
    xQueueGenericCreateStatic                0x08007c91   Thumb Code   102  queue.o(i.xQueueGenericCreateStatic)
    xQueueGenericReset                       0x08007cf9   Thumb Code   132  queue.o(i.xQueueGenericReset)
    xQueueGenericSend                        0x08007d81   Thumb Code   346  queue.o(i.xQueueGenericSend)
    xQueueGenericSendFromISR                 0x08007ee1   Thumb Code   188  queue.o(i.xQueueGenericSendFromISR)
    xQueueReceive                            0x08007f9d   Thumb Code   308  queue.o(i.xQueueReceive)
    xTaskCheckForTimeOut                     0x080080d5   Thumb Code   112  tasks.o(i.xTaskCheckForTimeOut)
    xTaskCreate                              0x08008149   Thumb Code    90  tasks.o(i.xTaskCreate)
    xTaskCreateStatic                        0x080081a3   Thumb Code    86  tasks.o(i.xTaskCreateStatic)
    xTaskGetSchedulerState                   0x080081f9   Thumb Code    22  tasks.o(i.xTaskGetSchedulerState)
    xTaskGetTickCount                        0x08008215   Thumb Code     6  tasks.o(i.xTaskGetTickCount)
    xTaskIncrementTick                       0x08008221   Thumb Code   192  tasks.o(i.xTaskIncrementTick)
    xTaskPriorityDisinherit                  0x080082e9   Thumb Code   144  tasks.o(i.xTaskPriorityDisinherit)
    xTaskRemoveFromEventList                 0x08008381   Thumb Code   108  tasks.o(i.xTaskRemoveFromEventList)
    xTaskResumeAll                           0x080083f5   Thumb Code   182  tasks.o(i.xTaskResumeAll)
    xTimerCreateTimerTask                    0x080084b9   Thumb Code    78  timers.o(i.xTimerCreateTimerTask)
    xTimerGenericCommand                     0x08008519   Thumb Code    92  timers.o(i.xTimerGenericCommand)
    AHBPrescTable                            0x080085f0   Data          16  system_stm32f4xx.o(.constdata)
    APBPrescTable                            0x08008600   Data           8  system_stm32f4xx.o(.constdata)
    CRC8_TAB                                 0x08008608   Data         256  crc.o(.constdata)
    wCRC_Table                               0x08008708   Data         512  crc.o(.constdata)
    Region$$Table$$Base                      0x08008a14   Number         0  anon$$obj.o(Region$$Table)
    Region$$Table$$Limit                     0x08008a34   Number         0  anon$$obj.o(Region$$Table)
    defaultTaskHandle                        0x20000000   Data           4  freertos.o(.data)
    myTask02Handle                           0x20000004   Data           4  freertos.o(.data)
    myTask03Handle                           0x20000008   Data           4  freertos.o(.data)
    myTask04Handle                           0x2000000c   Data           4  freertos.o(.data)
    uwTickFreq                               0x20000014   Data           1  stm32f4xx_hal.o(.data)
    uwTickPrio                               0x20000018   Data           4  stm32f4xx_hal.o(.data)
    uwTick                                   0x2000001c   Data           4  stm32f4xx_hal.o(.data)
    SystemCoreClock                          0x20000020   Data           4  system_stm32f4xx.o(.data)
    fric_change_mode_flag                    0x20000024   Data           1  bsp_can.o(.data)
    last_fric_mode                           0x20000025   Data           1  bsp_can.o(.data)
    uart6_rx_buffer                          0x20000028   Data           1  bsp_usart.o(.data)
    Count                                    0x20000030   Data           1  stmgood.o(.data)
    P1                                       0x20000038   Data           8  stmgood.o(.data)
    I1                                       0x20000040   Data           8  stmgood.o(.data)
    D1                                       0x20000048   Data           8  stmgood.o(.data)
    S1                                       0x20000050   Data           8  stmgood.o(.data)
    P2                                       0x20000058   Data           8  stmgood.o(.data)
    I2                                       0x20000060   Data           8  stmgood.o(.data)
    D2                                       0x20000068   Data           8  stmgood.o(.data)
    S2                                       0x20000070   Data           8  stmgood.o(.data)
    CRC_INIT                                 0x20000078   Data           2  crc.o(.data)
    PowerReciveNewDataSignal                 0x2000007c   Data           1  judge.o(.data)
    Judge_GameResult                         0x20000088   Data           1  judge.o(.data)
    Judge_BuffMusk                           0x20000089   Data           1  judge.o(.data)
    Judge_RobotHurt                          0x2000008a   Data           1  judge.o(.data)
    datatype                                 0x20000094   Data           2  judge.o(.data)
    w2data                                   0x20000096   Data           2  judge.o(.data)
    Judge_AerialRobotEnergy                  0x20000098   Data           2  judge.o(.data)
    Judge_RefereeWarning                     0x2000009a   Data           2  judge.o(.data)
    Judge_BulletRemaining                    0x2000009c   Data           2  judge.o(.data)
    Judge_GameState                          0x2000009e   Data           3  judge.o(.data)
    Judge_SupplyProjectileBooking            0x200000a1   Data           3  judge.o(.data)
    JudgeReceivedNewData                     0x200000a4   Data           4  judge.o(.data)
    fps                                      0x200000b4   Data           4  judge.o(.data)
    Robot_ID                                 0x200000b8   Data           4  judge.o(.data)
    w4data                                   0x200000bc   Data           4  judge.o(.data)
    Judge_EventData                          0x200000c0   Data           4  judge.o(.data)
    Judge_SupplyProjectileAction             0x200000c4   Data           4  judge.o(.data)
    Judge_StudentInfoHeader                  0x200000c8   Data           6  judge.o(.data)
    Judge_ShootData                          0x200000ce   Data           7  judge.o(.data)
    cha                                      0x200000d8   Data          72  judge.o(.data)
    JudgeSendFresh                           0x20000120   Data           4  judge.o(.data)
    data2bytes                               0x20000128   Data           2  rm_task.o(.data)
    data4bytes                               0x2000012c   Data           4  rm_task.o(.data)
    candata                                  0x20000130   Data           8  rm_task.o(.data)
    pxCurrentTCB                             0x20000138   Data           4  tasks.o(.data)
    temp                                     0x200001ac   Data           4  mytask03.o(.data)
    chas                                     0x200001b0   Data           4  mytask03.o(.data)
    BMI088_ACCEL_SEN                         0x200001b4   Data           4  bmi088driver.o(.data)
    BMI088_GYRO_SEN                          0x200001b8   Data           4  bmi088driver.o(.data)
    __stdout                                 0x200001e0   Data           4  stdout.o(.data)
    hcan1                                    0x2000069c   Data          40  can.o(.bss)
    hcan2                                    0x200006c4   Data          40  can.o(.bss)
    hspi1                                    0x200006ec   Data          88  spi.o(.bss)
    hdma_spi1_rx                             0x20000744   Data          96  spi.o(.bss)
    hdma_spi1_tx                             0x200007a4   Data          96  spi.o(.bss)
    htim10                                   0x20000804   Data          64  tim.o(.bss)
    huart1                                   0x20000844   Data          64  usart.o(.bss)
    huart6                                   0x20000884   Data          64  usart.o(.bss)
    hdma_usart6_rx                           0x200008c4   Data          96  usart.o(.bss)
    uiRx                                     0x20000924   Data          40  bsp_can.o(.bss)
    uart1_rx_buffer                          0x2000094c   Data          30  bsp_usart.o(.bss)
    Cmd1                                     0x20000970   Data          20  stmgood.o(.bss)
    Cmd2                                     0x20000984   Data          80  stmgood.o(.bss)
    Data                                     0x200009d4   Data         100  stmgood.o(.bss)
    Str1                                     0x20000a38   Data         100  stmgood.o(.bss)
    xx                                       0x20000aa0   Data         800  stmgood.o(.bss)
    JudgeReceivedNewDataSignal               0x20000dc0   Data          16  judge.o(.bss)
    HeaderData                               0x20000dd0   Data          20  judge.o(.bss)
    ReceiveData                              0x20000de4   Data         255  judge.o(.bss)
    UpData                                   0x20000ee3   Data         128  judge.o(.bss)
    UpData0                                  0x20000f63   Data         128  judge.o(.bss)
    UpData1                                  0x20000fe3   Data         112  judge.o(.bss)
    UpData2                                  0x20001053   Data         112  judge.o(.bss)
    UpData3                                  0x200010c3   Data         112  judge.o(.bss)
    UpData4                                  0x20001133   Data         112  judge.o(.bss)
    UpData5                                  0x200011a3   Data         112  judge.o(.bss)
    UpData6                                  0x20001213   Data         112  judge.o(.bss)
    UpData7                                  0x20001283   Data         112  judge.o(.bss)
    UpData8                                  0x200012f3   Data         112  judge.o(.bss)
    UpData9                                  0x20001363   Data         112  judge.o(.bss)
    UpData10                                 0x200013d3   Data         112  judge.o(.bss)
    UpData11                                 0x20001443   Data         112  judge.o(.bss)
    UpData12                                 0x200014b3   Data         112  judge.o(.bss)
    UpData13                                 0x20001523   Data         112  judge.o(.bss)
    UpData14                                 0x20001593   Data         120  judge.o(.bss)
    UpData15                                 0x2000160b   Data         128  judge.o(.bss)
    Judge_GameRobotSurvivors                 0x2000168b   Data          28  judge.o(.bss)
    Judge_GameRobotState                     0x200016a7   Data          27  judge.o(.bss)
    Judge_PowerHeatData                      0x200016c2   Data          16  judge.o(.bss)
    Judge_GameRobotPos                       0x200016d2   Data          16  judge.o(.bss)
    Judge_RobotInterfaceData                 0x200016e2   Data         112  judge.o(.bss)
    Judge_ClientDrawSeven                    0x20001752   Data         105  judge.o(.bss)
    Judge_ClientCharacter                    0x200017bb   Data          45  judge.o(.bss)
    Judge_ClientCharacter_chassis_state      0x200017e8   Data          45  judge.o(.bss)
    Judge_ClientCharacter_gimbal_state       0x20001815   Data          45  judge.o(.bss)
    Judge_ClientCharacter_fric_state         0x20001842   Data          45  judge.o(.bss)
    UpData17                                 0x2000186f   Data         112  judge.o(.bss)
    UpData18                                 0x200018df   Data         112  judge.o(.bss)
    UpData19                                 0x2000194f   Data         112  judge.o(.bss)
    UpData20                                 0x200019bf   Data         112  judge.o(.bss)
    UpData21                                 0x20001a2f   Data         112  judge.o(.bss)
    UpData22                                 0x20001a9f   Data         112  judge.o(.bss)
    UpData23                                 0x20001b0f   Data         112  judge.o(.bss)
    Judge_ClientDrawSeven_crosshair1         0x20001b7f   Data         105  judge.o(.bss)
    Judge_ClientDrawFive_Collision_Border    0x20001be8   Data          75  judge.o(.bss)
    Judge_ClientDrawFive_float_data          0x20001c33   Data          75  judge.o(.bss)
    UpData16                                 0x20001c7e   Data         128  judge.o(.bss)
    Judge_ClientDrawFive_STATE               0x20001cfe   Data          75  judge.o(.bss)
    UpData24                                 0x20001d49   Data         128  judge.o(.bss)
    Judge_ClientDrawFive_MODE_CIRCLE         0x20001dc9   Data          75  judge.o(.bss)
    xQueueRegistry                           0x20001e14   Data          64  queue.o(.bss)
    gyro                                     0x20003f74   Data          12  mytask03.o(.bss)
    accel                                    0x20003f80   Data          12  mytask03.o(.bss)
    __initial_sp                             0x20004390   Data           0  startup_stm32f407xx.o(STACK)



==============================================================================

Memory Map of the image

  Image Entry point : 0x08000189

  Load Region LR_IROM1 (Base: 0x08000000, Size: 0x00008c18, Max: 0x00100000, ABSOLUTE, COMPRESSED[0x00008abc])

    Execution Region ER_IROM1 (Exec base: 0x08000000, Load base: 0x08000000, Size: 0x00008a34, Max: 0x00100000, ABSOLUTE)

    Exec Addr    Load Addr    Size         Type   Attr      Idx    E Section Name        Object

    0x08000000   0x08000000   0x00000188   Data   RO            3    RESET               startup_stm32f407xx.o
    0x08000188   0x08000188   0x00000000   Code   RO         6512  * .ARM.Collect$$$$00000000  mc_w.l(entry.o)
    0x08000188   0x08000188   0x00000004   Code   RO         6798    .ARM.Collect$$$$00000001  mc_w.l(entry2.o)
    0x0800018c   0x0800018c   0x00000004   Code   RO         6801    .ARM.Collect$$$$00000004  mc_w.l(entry5.o)
    0x08000190   0x08000190   0x00000000   Code   RO         6803    .ARM.Collect$$$$00000008  mc_w.l(entry7b.o)
    0x08000190   0x08000190   0x00000000   Code   RO         6805    .ARM.Collect$$$$0000000A  mc_w.l(entry8b.o)
    0x08000190   0x08000190   0x00000008   Code   RO         6806    .ARM.Collect$$$$0000000B  mc_w.l(entry9a.o)
    0x08000198   0x08000198   0x00000004   Code   RO         6813    .ARM.Collect$$$$0000000E  mc_w.l(entry12b.o)
    0x0800019c   0x0800019c   0x00000000   Code   RO         6808    .ARM.Collect$$$$0000000F  mc_w.l(entry10a.o)
    0x0800019c   0x0800019c   0x00000000   Code   RO         6810    .ARM.Collect$$$$00000011  mc_w.l(entry11a.o)
    0x0800019c   0x0800019c   0x00000004   Code   RO         6799    .ARM.Collect$$$$00002712  mc_w.l(entry2.o)
    0x080001a0   0x080001a0   0x000000be   Code   RO         6135    .emb_text           port.o
    0x0800025e   0x0800025e   0x00000002   PAD
    0x08000260   0x08000260   0x00000024   Code   RO            4    .text               startup_stm32f407xx.o
    0x08000284   0x08000284   0x00000062   Code   RO         6515    .text               mc_w.l(uldiv.o)
    0x080002e6   0x080002e6   0x00000024   Code   RO         6517    .text               mc_w.l(memcpya.o)
    0x0800030a   0x0800030a   0x00000024   Code   RO         6521    .text               mc_w.l(memseta.o)
    0x0800032e   0x0800032e   0x0000014e   Code   RO         6786    .text               mf_w.l(dadd.o)
    0x0800047c   0x0800047c   0x000000e4   Code   RO         6788    .text               mf_w.l(dmul.o)
    0x08000560   0x08000560   0x00000022   Code   RO         6792    .text               mf_w.l(dflti.o)
    0x08000582   0x08000582   0x00000026   Code   RO         6794    .text               mf_w.l(f2d.o)
    0x080005a8   0x080005a8   0x00000038   Code   RO         6796    .text               mf_w.l(d2f.o)
    0x080005e0   0x080005e0   0x0000002c   Code   RO         6815    .text               mc_w.l(uidiv.o)
    0x0800060c   0x0800060c   0x0000001e   Code   RO         6817    .text               mc_w.l(llshl.o)
    0x0800062a   0x0800062a   0x00000020   Code   RO         6819    .text               mc_w.l(llushr.o)
    0x0800064a   0x0800064a   0x00000024   Code   RO         6821    .text               mc_w.l(llsshr.o)
    0x0800066e   0x0800066e   0x00000000   Code   RO         6823    .text               mc_w.l(iusefp.o)
    0x0800066e   0x0800066e   0x0000006e   Code   RO         6824    .text               mf_w.l(fepilogue.o)
    0x080006dc   0x080006dc   0x000000ba   Code   RO         6826    .text               mf_w.l(depilogue.o)
    0x08000796   0x08000796   0x000000de   Code   RO         6828    .text               mf_w.l(ddiv.o)
    0x08000874   0x08000874   0x00000030   Code   RO         6830    .text               mf_w.l(dfixul.o)
    0x080008a4   0x080008a4   0x00000030   Code   RO         6832    .text               mf_w.l(cdrcmple.o)
    0x080008d4   0x080008d4   0x00000024   Code   RO         6834    .text               mc_w.l(init.o)
    0x080008f8   0x080008f8   0x00000056   Code   RO         6844    .text               mc_w.l(__dczerorl2.o)
    0x0800094e   0x0800094e   0x00000002   PAD
    0x08000950   0x08000950   0x00000090   Code   RO         4379    i.AddFloatdata      judge.o
    0x080009e0   0x080009e0   0x000000b8   Code   RO         4380    i.Add_Five_Picture  judge.o
    0x08000a98   0x08000a98   0x000000b8   Code   RO         4381    i.Add_Seven_Picture  judge.o
    0x08000b50   0x08000b50   0x00000028   Code   RO         4318    i.Append_CRC16_Check_Sum  crc.o
    0x08000b78   0x08000b78   0x0000001c   Code   RO         4319    i.Append_CRC8_Check_Sum  crc.o
    0x08000b94   0x08000b94   0x00000010   Code   RO         6442    i.BMI088_ACCEL_NS_H  bmi088middleware.o
    0x08000ba4   0x08000ba4   0x00000010   Code   RO         6443    i.BMI088_ACCEL_NS_L  bmi088middleware.o
    0x08000bb4   0x08000bb4   0x00000002   Code   RO         6444    i.BMI088_GPIO_init  bmi088middleware.o
    0x08000bb6   0x08000bb6   0x00000002   PAD
    0x08000bb8   0x08000bb8   0x00000010   Code   RO         6445    i.BMI088_GYRO_NS_H  bmi088middleware.o
    0x08000bc8   0x08000bc8   0x00000010   Code   RO         6446    i.BMI088_GYRO_NS_L  bmi088middleware.o
    0x08000bd8   0x08000bd8   0x00000002   Code   RO         6447    i.BMI088_com_init   bmi088middleware.o
    0x08000bda   0x08000bda   0x00000018   Code   RO         6448    i.BMI088_delay_ms   bmi088middleware.o
    0x08000bf2   0x08000bf2   0x0000002e   Code   RO         6449    i.BMI088_delay_us   bmi088middleware.o
    0x08000c20   0x08000c20   0x00000018   Code   RO         6304    i.BMI088_init       bmi088driver.o
    0x08000c38   0x08000c38   0x00000158   Code   RO         6305    i.BMI088_read       bmi088driver.o
    0x08000d90   0x08000d90   0x00000024   Code   RO         6306    i.BMI088_read_muli_reg  bmi088driver.o
    0x08000db4   0x08000db4   0x00000016   Code   RO         6307    i.BMI088_read_single_reg  bmi088driver.o
    0x08000dca   0x08000dca   0x00000002   PAD
    0x08000dcc   0x08000dcc   0x00000020   Code   RO         6450    i.BMI088_read_write_byte  bmi088middleware.o
    0x08000dec   0x08000dec   0x00000012   Code   RO         6308    i.BMI088_write_single_reg  bmi088driver.o
    0x08000dfe   0x08000dfe   0x00000002   Code   RO          561    i.BusFault_Handler  stm32f4xx_it.o
    0x08000e00   0x08000e00   0x0000000c   Code   RO          562    i.CAN1_RX0_IRQHandler  stm32f4xx_it.o
    0x08000e0c   0x08000e0c   0x0000000c   Code   RO          563    i.CAN1_TX_IRQHandler  stm32f4xx_it.o
    0x08000e18   0x08000e18   0x0000000c   Code   RO          564    i.CAN2_RX0_IRQHandler  stm32f4xx_it.o
    0x08000e24   0x08000e24   0x0000000c   Code   RO          565    i.CAN2_TX_IRQHandler  stm32f4xx_it.o
    0x08000e30   0x08000e30   0x00000068   Code   RO         3803    i.CANFilter_Enable  bsp_can.o
    0x08000e98   0x08000e98   0x0000001a   Code   RO         3804    i.CAN_Enable        bsp_can.o
    0x08000eb2   0x08000eb2   0x00000002   PAD
    0x08000eb4   0x08000eb4   0x00000058   Code   RO         3805    i.CAN_Send_bytes    bsp_can.o
    0x08000f0c   0x08000f0c   0x00000184   Code   RO         4382    i.CharacteFRIC_stateShow  judge.o
    0x08001090   0x08001090   0x00000124   Code   RO         4386    i.CharacterFRIC_MODEShow  judge.o
    0x080011b4   0x080011b4   0x000000d8   Code   RO         4387    i.CharacterFricSPEEDShow  judge.o
    0x0800128c   0x0800128c   0x000000d4   Code   RO         4388    i.CharacterFricTEMPShow  judge.o
    0x08001360   0x08001360   0x000000cc   Code   RO         4391    i.CharacterGimbal_FULL_VISION_Show  judge.o
    0x0800142c   0x0800142c   0x000000cc   Code   RO         4392    i.CharacterGimbal_HALF_VISION_Show  judge.o
    0x080014f8   0x080014f8   0x000000cc   Code   RO         4393    i.CharacterGimbal_HOIST_Show  judge.o
    0x080015c4   0x080015c4   0x000000cc   Code   RO         4394    i.CharacterGimbal_MNAUALShow  judge.o
    0x08001690   0x08001690   0x000000cc   Code   RO         4395    i.CharacterGimbal_NULL_Show  judge.o
    0x0800175c   0x0800175c   0x00000124   Code   RO         4396    i.CharacterPitchShow  judge.o
    0x08001880   0x08001880   0x000000cc   Code   RO         4397    i.Character_CHASSIS_APART_Show  judge.o
    0x0800194c   0x0800194c   0x000000cc   Code   RO         4398    i.Character_CHASSIS_FOLLOW_Show  judge.o
    0x08001a18   0x08001a18   0x000000cc   Code   RO         4399    i.Character_CHASSIS_NULL_Show  judge.o
    0x08001ae4   0x08001ae4   0x000000cc   Code   RO         4400    i.Character_CHASSIS_STOP_Show  judge.o
    0x08001bb0   0x08001bb0   0x000000cc   Code   RO         4401    i.Character_CHASSIS_TOP_Show  judge.o
    0x08001c7c   0x08001c7c   0x00000014   Code   RO         4402    i.CheckID           judge.o
    0x08001c90   0x08001c90   0x00000100   Code   RO         4403    i.Collision_Border  judge.o
    0x08001d90   0x08001d90   0x00000208   Code   RO         3930    i.Command           stmgood.o
    0x08001f98   0x08001f98   0x00000030   Code   RO         3931    i.CompStr           stmgood.o
    0x08001fc8   0x08001fc8   0x00000016   Code   RO         3932    i.CopyStr           stmgood.o
    0x08001fde   0x08001fde   0x00000002   PAD
    0x08001fe0   0x08001fe0   0x000001dc   Code   RO         4404    i.Crosshair         judge.o
    0x080021bc   0x080021bc   0x000001a8   Code   RO         4405    i.Crosshair1        judge.o
    0x08002364   0x08002364   0x0000000c   Code   RO          566    i.DMA2_Stream1_IRQHandler  stm32f4xx_it.o
    0x08002370   0x08002370   0x0000000c   Code   RO          567    i.DMA2_Stream2_IRQHandler  stm32f4xx_it.o
    0x0800237c   0x0800237c   0x0000000c   Code   RO          568    i.DMA2_Stream3_IRQHandler  stm32f4xx_it.o
    0x08002388   0x08002388   0x00000028   Code   RO         1516    i.DMA_CalcBaseAndBitshift  stm32f4xx_hal_dma.o
    0x080023b0   0x080023b0   0x00000054   Code   RO         1517    i.DMA_CheckFifoParam  stm32f4xx_hal_dma.o
    0x08002404   0x08002404   0x00000028   Code   RO         1518    i.DMA_SetConfig     stm32f4xx_hal_dma.o
    0x0800242c   0x0800242c   0x00000088   Code   RO         3933    i.DealStr           stmgood.o
    0x080024b4   0x080024b4   0x00000090   Code   RO         3934    i.Dealdata          stmgood.o
    0x08002544   0x08002544   0x00000002   Code   RO          569    i.DebugMon_Handler  stm32f4xx_it.o
    0x08002546   0x08002546   0x00000002   PAD
    0x08002548   0x08002548   0x00000440   Code   RO         4406    i.DrawCapVolRectangle  judge.o
    0x08002988   0x08002988   0x00000194   Code   RO         4407    i.Draw_CIRCLE_mode  judge.o
    0x08002b1c   0x08002b1c   0x00000006   Code   RO          570    i.EXTI4_IRQHandler  stm32f4xx_it.o
    0x08002b22   0x08002b22   0x00000006   Code   RO          571    i.EXTI9_5_IRQHandler  stm32f4xx_it.o
    0x08002b28   0x08002b28   0x00000002   Code   RO           13    i.Error_Handler     main.o
    0x08002b2a   0x08002b2a   0x00000018   Code   RO         3935    i.FirstSpace        stmgood.o
    0x08002b42   0x08002b42   0x00000002   PAD
    0x08002b44   0x08002b44   0x00000258   Code   RO         4408    i.FloatDataShow     judge.o
    0x08002d9c   0x08002d9c   0x0000002c   Code   RO         4320    i.Get_CRC16_Check_Sum  crc.o
    0x08002dc8   0x08002dc8   0x0000001c   Code   RO         4321    i.Get_CRC8_Check_Sum  crc.o
    0x08002de4   0x08002de4   0x00000024   Code   RO          824    i.HAL_CAN_ActivateNotification  stm32f4xx_hal_can.o
    0x08002e08   0x08002e08   0x000000dc   Code   RO          825    i.HAL_CAN_AddTxMessage  stm32f4xx_hal_can.o
    0x08002ee4   0x08002ee4   0x0000010c   Code   RO          826    i.HAL_CAN_ConfigFilter  stm32f4xx_hal_can.o
    0x08002ff0   0x08002ff0   0x00000002   Code   RO          829    i.HAL_CAN_ErrorCallback  stm32f4xx_hal_can.o
    0x08002ff2   0x08002ff2   0x000000e8   Code   RO          832    i.HAL_CAN_GetRxMessage  stm32f4xx_hal_can.o
    0x080030da   0x080030da   0x000001fc   Code   RO          836    i.HAL_CAN_IRQHandler  stm32f4xx_hal_can.o
    0x080032d6   0x080032d6   0x0000011a   Code   RO          837    i.HAL_CAN_Init      stm32f4xx_hal_can.o
    0x080033f0   0x080033f0   0x0000011c   Code   RO          351    i.HAL_CAN_MspInit   can.o
    0x0800350c   0x0800350c   0x00000002   Code   RO          844    i.HAL_CAN_RxFifo0FullCallback  stm32f4xx_hal_can.o
    0x0800350e   0x0800350e   0x00000002   PAD
    0x08003510   0x08003510   0x00000108   Code   RO         3806    i.HAL_CAN_RxFifo0MsgPendingCallback  bsp_can.o
    0x08003618   0x08003618   0x00000002   Code   RO          846    i.HAL_CAN_RxFifo1FullCallback  stm32f4xx_hal_can.o
    0x0800361a   0x0800361a   0x00000002   Code   RO          847    i.HAL_CAN_RxFifo1MsgPendingCallback  stm32f4xx_hal_can.o
    0x0800361c   0x0800361c   0x00000002   Code   RO          848    i.HAL_CAN_SleepCallback  stm32f4xx_hal_can.o
    0x0800361e   0x0800361e   0x00000002   PAD
    0x08003620   0x08003620   0x00000058   Code   RO          849    i.HAL_CAN_Start     stm32f4xx_hal_can.o
    0x08003678   0x08003678   0x00000002   Code   RO          851    i.HAL_CAN_TxMailbox0AbortCallback  stm32f4xx_hal_can.o
    0x0800367a   0x0800367a   0x00000002   Code   RO          852    i.HAL_CAN_TxMailbox0CompleteCallback  stm32f4xx_hal_can.o
    0x0800367c   0x0800367c   0x00000002   Code   RO          853    i.HAL_CAN_TxMailbox1AbortCallback  stm32f4xx_hal_can.o
    0x0800367e   0x0800367e   0x00000002   Code   RO          854    i.HAL_CAN_TxMailbox1CompleteCallback  stm32f4xx_hal_can.o
    0x08003680   0x08003680   0x00000002   Code   RO          855    i.HAL_CAN_TxMailbox2AbortCallback  stm32f4xx_hal_can.o
    0x08003682   0x08003682   0x00000002   Code   RO          856    i.HAL_CAN_TxMailbox2CompleteCallback  stm32f4xx_hal_can.o
    0x08003684   0x08003684   0x00000002   Code   RO          858    i.HAL_CAN_WakeUpFromRxMsgCallback  stm32f4xx_hal_can.o
    0x08003686   0x08003686   0x00000024   Code   RO         1520    i.HAL_DMA_Abort_IT  stm32f4xx_hal_dma.o
    0x080036aa   0x080036aa   0x00000002   PAD
    0x080036ac   0x080036ac   0x000001a0   Code   RO         1524    i.HAL_DMA_IRQHandler  stm32f4xx_hal_dma.o
    0x0800384c   0x0800384c   0x000000d4   Code   RO         1525    i.HAL_DMA_Init      stm32f4xx_hal_dma.o
    0x08003920   0x08003920   0x0000006e   Code   RO         1529    i.HAL_DMA_Start_IT  stm32f4xx_hal_dma.o
    0x0800398e   0x0800398e   0x00000002   Code   RO         1410    i.HAL_GPIO_EXTI_Callback  stm32f4xx_hal_gpio.o
    0x08003990   0x08003990   0x00000018   Code   RO         1411    i.HAL_GPIO_EXTI_IRQHandler  stm32f4xx_hal_gpio.o
    0x080039a8   0x080039a8   0x000001b8   Code   RO         1412    i.HAL_GPIO_Init     stm32f4xx_hal_gpio.o
    0x08003b60   0x08003b60   0x0000000a   Code   RO         1416    i.HAL_GPIO_WritePin  stm32f4xx_hal_gpio.o
    0x08003b6a   0x08003b6a   0x00000002   PAD
    0x08003b6c   0x08003b6c   0x0000000c   Code   RO         1944    i.HAL_GetTick       stm32f4xx_hal.o
    0x08003b78   0x08003b78   0x00000010   Code   RO         1950    i.HAL_IncTick       stm32f4xx_hal.o
    0x08003b88   0x08003b88   0x00000034   Code   RO         1951    i.HAL_Init          stm32f4xx_hal.o
    0x08003bbc   0x08003bbc   0x00000040   Code   RO         1952    i.HAL_InitTick      stm32f4xx_hal.o
    0x08003bfc   0x08003bfc   0x00000038   Code   RO          697    i.HAL_MspInit       stm32f4xx_hal_msp.o
    0x08003c34   0x08003c34   0x0000001a   Code   RO         1801    i.HAL_NVIC_EnableIRQ  stm32f4xx_hal_cortex.o
    0x08003c4e   0x08003c4e   0x00000002   PAD
    0x08003c50   0x08003c50   0x00000040   Code   RO         1807    i.HAL_NVIC_SetPriority  stm32f4xx_hal_cortex.o
    0x08003c90   0x08003c90   0x00000024   Code   RO         1808    i.HAL_NVIC_SetPriorityGrouping  stm32f4xx_hal_cortex.o
    0x08003cb4   0x08003cb4   0x00000134   Code   RO         1058    i.HAL_RCC_ClockConfig  stm32f4xx_hal_rcc.o
    0x08003de8   0x08003de8   0x00000020   Code   RO         1065    i.HAL_RCC_GetPCLK1Freq  stm32f4xx_hal_rcc.o
    0x08003e08   0x08003e08   0x00000020   Code   RO         1066    i.HAL_RCC_GetPCLK2Freq  stm32f4xx_hal_rcc.o
    0x08003e28   0x08003e28   0x00000064   Code   RO         1067    i.HAL_RCC_GetSysClockFreq  stm32f4xx_hal_rcc.o
    0x08003e8c   0x08003e8c   0x0000035c   Code   RO         1070    i.HAL_RCC_OscConfig  stm32f4xx_hal_rcc.o
    0x080041e8   0x080041e8   0x00000080   Code   RO         2200    i.HAL_SPI_Init      stm32f4xx_hal_spi.o
    0x08004268   0x08004268   0x00000100   Code   RO          424    i.HAL_SPI_MspInit   spi.o
    0x08004368   0x08004368   0x000001e2   Code   RO         2209    i.HAL_SPI_TransmitReceive  stm32f4xx_hal_spi.o
    0x0800454a   0x0800454a   0x00000028   Code   RO         1812    i.HAL_SYSTICK_Config  stm32f4xx_hal_cortex.o
    0x08004572   0x08004572   0x00000002   Code   RO         3188    i.HAL_TIMEx_BreakCallback  stm32f4xx_hal_tim_ex.o
    0x08004574   0x08004574   0x00000002   Code   RO         3189    i.HAL_TIMEx_CommutCallback  stm32f4xx_hal_tim_ex.o
    0x08004576   0x08004576   0x00000036   Code   RO         2513    i.HAL_TIM_Base_Init  stm32f4xx_hal_tim.o
    0x080045ac   0x080045ac   0x0000003c   Code   RO          466    i.HAL_TIM_Base_MspInit  tim.o
    0x080045e8   0x080045e8   0x00000002   Code   RO         2542    i.HAL_TIM_IC_CaptureCallback  stm32f4xx_hal_tim.o
    0x080045ea   0x080045ea   0x00000166   Code   RO         2556    i.HAL_TIM_IRQHandler  stm32f4xx_hal_tim.o
    0x08004750   0x08004750   0x00000054   Code   RO          467    i.HAL_TIM_MspPostInit  tim.o
    0x080047a4   0x080047a4   0x00000002   Code   RO         2559    i.HAL_TIM_OC_DelayElapsedCallback  stm32f4xx_hal_tim.o
    0x080047a6   0x080047a6   0x000000d0   Code   RO         2580    i.HAL_TIM_PWM_ConfigChannel  stm32f4xx_hal_tim.o
    0x08004876   0x08004876   0x00000036   Code   RO         2583    i.HAL_TIM_PWM_Init  stm32f4xx_hal_tim.o
    0x080048ac   0x080048ac   0x00000002   Code   RO         2585    i.HAL_TIM_PWM_MspInit  stm32f4xx_hal_tim.o
    0x080048ae   0x080048ae   0x00000002   Code   RO         2586    i.HAL_TIM_PWM_PulseFinishedCallback  stm32f4xx_hal_tim.o
    0x080048b0   0x080048b0   0x00000002   Code   RO         2594    i.HAL_TIM_PeriodElapsedCallback  stm32f4xx_hal_tim.o
    0x080048b2   0x080048b2   0x00000002   Code   RO         2599    i.HAL_TIM_TriggerCallback  stm32f4xx_hal_tim.o
    0x080048b4   0x080048b4   0x00000012   Code   RO         3855    i.HAL_UART_ErrorCallback  bsp_usart.o
    0x080048c6   0x080048c6   0x00000002   PAD
    0x080048c8   0x080048c8   0x00000114   Code   RO         3463    i.HAL_UART_IRQHandler  stm32f4xx_hal_uart.o
    0x080049dc   0x080049dc   0x00000062   Code   RO         3464    i.HAL_UART_Init     stm32f4xx_hal_uart.o
    0x08004a3e   0x08004a3e   0x00000002   PAD
    0x08004a40   0x08004a40   0x00000124   Code   RO          514    i.HAL_UART_MspInit  usart.o
    0x08004b64   0x08004b64   0x00000098   Code   RO         3468    i.HAL_UART_Receive_DMA  stm32f4xx_hal_uart.o
    0x08004bfc   0x08004bfc   0x00000052   Code   RO         3469    i.HAL_UART_Receive_IT  stm32f4xx_hal_uart.o
    0x08004c4e   0x08004c4e   0x00000002   PAD
    0x08004c50   0x08004c50   0x0000006c   Code   RO         3856    i.HAL_UART_RxCpltCallback  bsp_usart.o
    0x08004cbc   0x08004cbc   0x00000002   Code   RO         3471    i.HAL_UART_RxHalfCpltCallback  stm32f4xx_hal_uart.o
    0x08004cbe   0x08004cbe   0x0000003e   Code   RO         3474    i.HAL_UART_Transmit_IT  stm32f4xx_hal_uart.o
    0x08004cfc   0x08004cfc   0x00000002   Code   RO         3475    i.HAL_UART_TxCpltCallback  stm32f4xx_hal_uart.o
    0x08004cfe   0x08004cfe   0x00000002   Code   RO          572    i.HardFault_Handler  stm32f4xx_it.o
    0x08004d00   0x08004d00   0x0000022c   Code   RO         4409    i.JudgeData         judge.o
    0x08004f2c   0x08004f2c   0x00000048   Code   RO          352    i.MX_CAN1_Init      can.o
    0x08004f74   0x08004f74   0x0000004c   Code   RO          353    i.MX_CAN2_Init      can.o
    0x08004fc0   0x08004fc0   0x0000004c   Code   RO          399    i.MX_DMA_Init       dma.o
    0x0800500c   0x0800500c   0x00000068   Code   RO          263    i.MX_FREERTOS_Init  freertos.o
    0x08005074   0x08005074   0x00000174   Code   RO          239    i.MX_GPIO_Init      gpio.o
    0x080051e8   0x080051e8   0x00000048   Code   RO          425    i.MX_SPI1_Init      spi.o
    0x08005230   0x08005230   0x00000064   Code   RO          468    i.MX_TIM10_Init     tim.o
    0x08005294   0x08005294   0x00000038   Code   RO          515    i.MX_USART1_UART_Init  usart.o
    0x080052cc   0x080052cc   0x00000038   Code   RO          516    i.MX_USART6_UART_Init  usart.o
    0x08005304   0x08005304   0x0000001c   Code   RO         3807    i.MY_CAN_Init       bsp_can.o
    0x08005320   0x08005320   0x00000030   Code   RO         3857    i.MY_USART_Init     bsp_usart.o
    0x08005350   0x08005350   0x00000002   Code   RO          573    i.MemManage_Handler  stm32f4xx_it.o
    0x08005352   0x08005352   0x00000002   Code   RO          574    i.NMI_Handler       stm32f4xx_it.o
    0x08005354   0x08005354   0x00000058   Code   RO         2238    i.SPI_EndRxTxTransaction  stm32f4xx_hal_spi.o
    0x080053ac   0x080053ac   0x00000094   Code   RO         2243    i.SPI_WaitFlagStateUntilTimeout  stm32f4xx_hal_spi.o
    0x08005440   0x08005440   0x00000050   Code   RO         3936    i.SplitStr          stmgood.o
    0x08005490   0x08005490   0x0000000a   Code   RO          264    i.StartDefaultTask  freertos.o
    0x0800549a   0x0800549a   0x0000000c   Code   RO         6215    i.StartTask02       mytask02.o
    0x080054a6   0x080054a6   0x00000002   PAD
    0x080054a8   0x080054a8   0x0000002c   Code   RO         6245    i.StartTask03       mytask03.o
    0x080054d4   0x080054d4   0x00000010   Code   RO         6276    i.StartTask04       mytask04.o
    0x080054e4   0x080054e4   0x000001c0   Code   RO         4615    i.Start_RM_Task     rm_task.o
    0x080056a4   0x080056a4   0x00000208   Code   RO         4616    i.Start_UI_Task     rm_task.o
    0x080058ac   0x080058ac   0x00000134   Code   RO         3937    i.StrToFloat        stmgood.o
    0x080059e0   0x080059e0   0x00000010   Code   RO         3939    i.Strlen            stmgood.o
    0x080059f0   0x080059f0   0x00000028   Code   RO         3940    i.SubStr            stmgood.o
    0x08005a18   0x08005a18   0x00000018   Code   RO          575    i.SysTick_Handler   stm32f4xx_it.o
    0x08005a30   0x08005a30   0x00000084   Code   RO           14    i.SystemClock_Config  main.o
    0x08005ab4   0x08005ab4   0x00000054   Code   RO         3766    i.SystemInit        system_stm32f4xx.o
    0x08005b08   0x08005b08   0x0000000c   Code   RO          576    i.TIM1_UP_TIM10_IRQHandler  stm32f4xx_it.o
    0x08005b14   0x08005b14   0x000000c8   Code   RO         2601    i.TIM_Base_SetConfig  stm32f4xx_hal_tim.o
    0x08005bdc   0x08005bdc   0x00000060   Code   RO         2614    i.TIM_OC1_SetConfig  stm32f4xx_hal_tim.o
    0x08005c3c   0x08005c3c   0x0000006c   Code   RO         2615    i.TIM_OC2_SetConfig  stm32f4xx_hal_tim.o
    0x08005ca8   0x08005ca8   0x00000068   Code   RO         2616    i.TIM_OC3_SetConfig  stm32f4xx_hal_tim.o
    0x08005d10   0x08005d10   0x00000050   Code   RO         2617    i.TIM_OC4_SetConfig  stm32f4xx_hal_tim.o
    0x08005d60   0x08005d60   0x00000070   Code   RO         4410    i.Two_byte_send_id  judge.o
    0x08005dd0   0x08005dd0   0x00000010   Code   RO         3477    i.UART_DMAAbortOnError  stm32f4xx_hal_uart.o
    0x08005de0   0x08005de0   0x0000004a   Code   RO         3478    i.UART_DMAError     stm32f4xx_hal_uart.o
    0x08005e2a   0x08005e2a   0x0000003c   Code   RO         3479    i.UART_DMAReceiveCplt  stm32f4xx_hal_uart.o
    0x08005e66   0x08005e66   0x0000000a   Code   RO         3481    i.UART_DMARxHalfCplt  stm32f4xx_hal_uart.o
    0x08005e70   0x08005e70   0x0000001c   Code   RO         3487    i.UART_EndRxTransfer  stm32f4xx_hal_uart.o
    0x08005e8c   0x08005e8c   0x00000012   Code   RO         3488    i.UART_EndTxTransfer  stm32f4xx_hal_uart.o
    0x08005e9e   0x08005e9e   0x00000096   Code   RO         3489    i.UART_Receive_IT   stm32f4xx_hal_uart.o
    0x08005f34   0x08005f34   0x00000128   Code   RO         3490    i.UART_SetConfig    stm32f4xx_hal_uart.o
    0x0800605c   0x0800605c   0x00000062   Code   RO         3491    i.UART_Transmit_IT  stm32f4xx_hal_uart.o
    0x080060be   0x080060be   0x00000002   PAD
    0x080060c0   0x080060c0   0x0000000c   Code   RO          577    i.USART1_IRQHandler  stm32f4xx_it.o
    0x080060cc   0x080060cc   0x0000000c   Code   RO          578    i.USART6_IRQHandler  stm32f4xx_it.o
    0x080060d8   0x080060d8   0x00000016   Code   RO         3858    i.USART_Enable      bsp_usart.o
    0x080060ee   0x080060ee   0x00000002   Code   RO          579    i.UsageFault_Handler  stm32f4xx_it.o
    0x080060f0   0x080060f0   0x0000003c   Code   RO         4322    i.Verify_CRC16_Check_Sum  crc.o
    0x0800612c   0x0800612c   0x00000026   Code   RO         4323    i.Verify_CRC8_Check_Sum  crc.o
    0x08006152   0x08006152   0x00000002   PAD
    0x08006154   0x08006154   0x00000020   Code   RO         6758    i.__0printf         mc_w.l(printfa.o)
    0x08006174   0x08006174   0x00000020   Code   RO         1814    i.__NVIC_SetPriority  stm32f4xx_hal_cortex.o
    0x08006194   0x08006194   0x0000000e   Code   RO         6838    i.__scatterload_copy  mc_w.l(handlers.o)
    0x080061a2   0x080061a2   0x00000002   Code   RO         6839    i.__scatterload_null  mc_w.l(handlers.o)
    0x080061a4   0x080061a4   0x0000000e   Code   RO         6840    i.__scatterload_zeroinit  mc_w.l(handlers.o)
    0x080061b2   0x080061b2   0x00000002   PAD
    0x080061b4   0x080061b4   0x00000184   Code   RO         6765    i._fp_digits        mc_w.l(printfa.o)
    0x08006338   0x08006338   0x000006b4   Code   RO         6766    i._printf_core      mc_w.l(printfa.o)
    0x080069ec   0x080069ec   0x00000024   Code   RO         6767    i._printf_post_padding  mc_w.l(printfa.o)
    0x08006a10   0x08006a10   0x0000002e   Code   RO         6768    i._printf_pre_padding  mc_w.l(printfa.o)
    0x08006a3e   0x08006a3e   0x00000002   PAD
    0x08006a40   0x08006a40   0x00000110   Code   RO         6309    i.bmi088_accel_init  bmi088driver.o
    0x08006b50   0x08006b50   0x000000dc   Code   RO         6310    i.bmi088_gyro_init  bmi088driver.o
    0x08006c2c   0x08006c2c   0x000000d4   Code   RO         3947    i.cmd               stmgood.o
    0x08006d00   0x08006d00   0x00000014   Code   RO         3860    i.fputc             bsp_usart.o
    0x08006d14   0x08006d14   0x00000042   Code   RO           15    i.main              main.o
    0x08006d56   0x08006d56   0x0000000c   Code   RO         5716    i.makeFreeRtosPriority  cmsis_os.o
    0x08006d62   0x08006d62   0x00000002   PAD
    0x08006d64   0x08006d64   0x0000006c   Code   RO         3956    i.multi1            stmgood.o
    0x08006dd0   0x08006dd0   0x00000058   Code   RO         3957    i.multi2            stmgood.o
    0x08006e28   0x08006e28   0x0000000e   Code   RO         5718    i.osDelay           cmsis_os.o
    0x08006e36   0x08006e36   0x0000000a   Code   RO         5721    i.osKernelStart     cmsis_os.o
    0x08006e40   0x08006e40   0x00000054   Code   RO         5755    i.osThreadCreate    cmsis_os.o
    0x08006e94   0x08006e94   0x00000070   Code   RO         5208    i.prvAddCurrentTaskToDelayedList  tasks.o
    0x08006f04   0x08006f04   0x000000d0   Code   RO         5209    i.prvAddNewTaskToReadyList  tasks.o
    0x08006fd4   0x08006fd4   0x00000058   Code   RO         5561    i.prvCheckForValidListAndQueue  timers.o
    0x0800702c   0x0800702c   0x00000026   Code   RO         4841    i.prvCopyDataFromQueue  queue.o
    0x08007052   0x08007052   0x0000006c   Code   RO         4842    i.prvCopyDataToQueue  queue.o
    0x080070be   0x080070be   0x00000034   Code   RO         5210    i.prvDeleteTCB      tasks.o
    0x080070f2   0x080070f2   0x00000002   PAD
    0x080070f4   0x080070f4   0x0000004c   Code   RO         6086    i.prvHeapInit       heap_4.o
    0x08007140   0x08007140   0x00000060   Code   RO         5211    i.prvIdleTask       tasks.o
    0x080071a0   0x080071a0   0x00000022   Code   RO         4844    i.prvInitialiseNewQueue  queue.o
    0x080071c2   0x080071c2   0x00000002   PAD
    0x080071c4   0x080071c4   0x000000b0   Code   RO         5212    i.prvInitialiseNewTask  tasks.o
    0x08007274   0x08007274   0x0000004c   Code   RO         6087    i.prvInsertBlockIntoFreeList  heap_4.o
    0x080072c0   0x080072c0   0x00000038   Code   RO         5563    i.prvInsertTimerInActiveList  timers.o
    0x080072f8   0x080072f8   0x0000001c   Code   RO         4845    i.prvIsQueueEmpty   queue.o
    0x08007314   0x08007314   0x000000f0   Code   RO         5564    i.prvProcessReceivedCommands  timers.o
    0x08007404   0x08007404   0x000000c0   Code   RO         5565    i.prvProcessTimerOrBlockTask  timers.o
    0x080074c4   0x080074c4   0x00000020   Code   RO         5214    i.prvResetNextTaskUnblockTime  tasks.o
    0x080074e4   0x080074e4   0x00000028   Code   RO         5566    i.prvSampleTimeNow  timers.o
    0x0800750c   0x0800750c   0x0000006c   Code   RO         5567    i.prvSwitchTimerLists  timers.o
    0x08007578   0x08007578   0x00000028   Code   RO         6136    i.prvTaskExitError  port.o
    0x080075a0   0x080075a0   0x00000024   Code   RO         5568    i.prvTimerTask      timers.o
    0x080075c4   0x080075c4   0x0000006a   Code   RO         4846    i.prvUnlockQueue    queue.o
    0x0800762e   0x0800762e   0x00000002   PAD
    0x08007630   0x08007630   0x000000d8   Code   RO         6088    i.pvPortMalloc      heap_4.o
    0x08007708   0x08007708   0x0000002c   Code   RO         6137    i.pxPortInitialiseStack  port.o
    0x08007734   0x08007734   0x00000026   Code   RO         4801    i.uxListRemove      list.o
    0x0800775a   0x0800775a   0x00000002   PAD
    0x0800775c   0x0800775c   0x00000014   Code   RO          269    i.vApplicationGetIdleTaskMemory  freertos.o
    0x08007770   0x08007770   0x00000014   Code   RO          270    i.vApplicationGetTimerTaskMemory  freertos.o
    0x08007784   0x08007784   0x00000002   Code   RO          271    i.vApplicationStackOverflowHook  freertos.o
    0x08007786   0x08007786   0x00000016   Code   RO         4802    i.vListInitialise   list.o
    0x0800779c   0x0800779c   0x00000006   Code   RO         4803    i.vListInitialiseItem  list.o
    0x080077a2   0x080077a2   0x00000030   Code   RO         4804    i.vListInsert       list.o
    0x080077d2   0x080077d2   0x00000018   Code   RO         4805    i.vListInsertEnd    list.o
    0x080077ea   0x080077ea   0x00000002   PAD
    0x080077ec   0x080077ec   0x00000040   Code   RO         6139    i.vPortEnterCritical  port.o
    0x0800782c   0x0800782c   0x00000028   Code   RO         6140    i.vPortExitCritical  port.o
    0x08007854   0x08007854   0x0000005c   Code   RO         6089    i.vPortFree         heap_4.o
    0x080078b0   0x080078b0   0x00000024   Code   RO         6141    i.vPortSetupTimerInterrupt  port.o
    0x080078d4   0x080078d4   0x00000054   Code   RO         6142    i.vPortValidateInterruptPriority  port.o
    0x08007928   0x08007928   0x00000028   Code   RO         4852    i.vQueueAddToRegistry  queue.o
    0x08007950   0x08007950   0x00000044   Code   RO         4856    i.vQueueWaitForMessageRestricted  queue.o
    0x08007994   0x08007994   0x0000004c   Code   RO         5226    i.vTaskDelay        tasks.o
    0x080079e0   0x080079e0   0x00000010   Code   RO         5231    i.vTaskInternalSetTimeOutState  tasks.o
    0x080079f0   0x080079f0   0x0000000c   Code   RO         5232    i.vTaskMissedYield  tasks.o
    0x080079fc   0x080079fc   0x00000030   Code   RO         5234    i.vTaskPlaceOnEventList  tasks.o
    0x08007a2c   0x08007a2c   0x00000038   Code   RO         5235    i.vTaskPlaceOnEventListRestricted  tasks.o
    0x08007a64   0x08007a64   0x00000088   Code   RO         5243    i.vTaskStartScheduler  tasks.o
    0x08007aec   0x08007aec   0x00000010   Code   RO         5245    i.vTaskSuspendAll   tasks.o
    0x08007afc   0x08007afc   0x00000074   Code   RO         5246    i.vTaskSwitchContext  tasks.o
    0x08007b70   0x08007b70   0x000000f4   Code   RO         6143    i.xPortStartScheduler  port.o
    0x08007c64   0x08007c64   0x0000002c   Code   RO         6144    i.xPortSysTickHandler  port.o
    0x08007c90   0x08007c90   0x00000066   Code   RO         4860    i.xQueueGenericCreateStatic  queue.o
    0x08007cf6   0x08007cf6   0x00000002   PAD
    0x08007cf8   0x08007cf8   0x00000088   Code   RO         4861    i.xQueueGenericReset  queue.o
    0x08007d80   0x08007d80   0x00000160   Code   RO         4862    i.xQueueGenericSend  queue.o
    0x08007ee0   0x08007ee0   0x000000bc   Code   RO         4863    i.xQueueGenericSendFromISR  queue.o
    0x08007f9c   0x08007f9c   0x00000138   Code   RO         4869    i.xQueueReceive     queue.o
    0x080080d4   0x080080d4   0x00000074   Code   RO         5247    i.xTaskCheckForTimeOut  tasks.o
    0x08008148   0x08008148   0x0000005a   Code   RO         5248    i.xTaskCreate       tasks.o
    0x080081a2   0x080081a2   0x00000056   Code   RO         5249    i.xTaskCreateStatic  tasks.o
    0x080081f8   0x080081f8   0x0000001c   Code   RO         5253    i.xTaskGetSchedulerState  tasks.o
    0x08008214   0x08008214   0x0000000c   Code   RO         5254    i.xTaskGetTickCount  tasks.o
    0x08008220   0x08008220   0x000000c8   Code   RO         5256    i.xTaskIncrementTick  tasks.o
    0x080082e8   0x080082e8   0x00000098   Code   RO         5259    i.xTaskPriorityDisinherit  tasks.o
    0x08008380   0x08008380   0x00000074   Code   RO         5261    i.xTaskRemoveFromEventList  tasks.o
    0x080083f4   0x080083f4   0x000000c4   Code   RO         5262    i.xTaskResumeAll    tasks.o
    0x080084b8   0x080084b8   0x00000060   Code   RO         5576    i.xTimerCreateTimerTask  timers.o
    0x08008518   0x08008518   0x00000060   Code   RO         5577    i.xTimerGenericCommand  timers.o
    0x08008578   0x08008578   0x00000070   Data   RO          273    .constdata          freertos.o
    0x080085e8   0x080085e8   0x00000008   Data   RO         1531    .constdata          stm32f4xx_hal_dma.o
    0x080085f0   0x080085f0   0x00000010   Data   RO         3767    .constdata          system_stm32f4xx.o
    0x08008600   0x08008600   0x00000008   Data   RO         3768    .constdata          system_stm32f4xx.o
    0x08008608   0x08008608   0x00000300   Data   RO         4325    .constdata          crc.o
    0x08008908   0x08008908   0x0000000c   Data   RO         4420    .constdata          judge.o
    0x08008914   0x08008914   0x00000030   Data   RO          274    .conststring        freertos.o
    0x08008944   0x08008944   0x000000ce   Data   RO         4421    .conststring        judge.o
    0x08008a12   0x08008a12   0x00000002   PAD
    0x08008a14   0x08008a14   0x00000020   Data   RO         6836    Region$$Table       anon$$obj.o


    Execution Region RW_IRAM2 (Exec base: 0x10000000, Load base: 0x08008abc, Size: 0x00000000, Max: 0x00010000, ABSOLUTE)

    **** No section assigned to this execution region ****


    Execution Region RW_IRAM1 (Exec base: 0x20000000, Load base: 0x08008a34, Size: 0x00004390, Max: 0x00020000, ABSOLUTE, COMPRESSED[0x00000088])

    Exec Addr    Load Addr    Size         Type   Attr      Idx    E Section Name        Object

    0x20000000   COMPRESSED   0x00000010   Data   RW          275    .data               freertos.o
    0x20000010   COMPRESSED   0x00000004   Data   RW          355    .data               can.o
    0x20000014   COMPRESSED   0x0000000c   Data   RW         1958    .data               stm32f4xx_hal.o
    0x20000020   COMPRESSED   0x00000004   Data   RW         3769    .data               system_stm32f4xx.o
    0x20000024   COMPRESSED   0x00000004   Data   RW         3809    .data               bsp_can.o
    0x20000028   COMPRESSED   0x00000001   Data   RW         3862    .data               bsp_usart.o
    0x20000029   COMPRESSED   0x00000007   PAD
    0x20000030   COMPRESSED   0x00000048   Data   RW         3995    .data               stmgood.o
    0x20000078   COMPRESSED   0x00000002   Data   RW         4326    .data               crc.o
    0x2000007a   COMPRESSED   0x00000002   PAD
    0x2000007c   COMPRESSED   0x000000a4   Data   RW         4425    .data               judge.o
    0x20000120   COMPRESSED   0x00000004   Data   RW         4426    .data               judge.o
    0x20000124   COMPRESSED   0x00000014   Data   RW         4618    .data               rm_task.o
    0x20000138   COMPRESSED   0x0000003c   Data   RW         5265    .data               tasks.o
    0x20000174   COMPRESSED   0x00000014   Data   RW         5583    .data               timers.o
    0x20000188   COMPRESSED   0x00000018   Data   RW         6094    .data               heap_4.o
    0x200001a0   COMPRESSED   0x0000000c   Data   RW         6145    .data               port.o
    0x200001ac   COMPRESSED   0x00000008   Data   RW         6247    .data               mytask03.o
    0x200001b4   COMPRESSED   0x0000002c   Data   RW         6311    .data               bmi088driver.o
    0x200001e0   COMPRESSED   0x00000004   Data   RW         6814    .data               mc_w.l(stdout.o)
    0x200001e4        -       0x000004b8   Zero   RW          272    .bss                freertos.o
    0x2000069c        -       0x00000050   Zero   RW          354    .bss                can.o
    0x200006ec        -       0x00000118   Zero   RW          426    .bss                spi.o
    0x20000804        -       0x00000040   Zero   RW          469    .bss                tim.o
    0x20000844        -       0x000000e0   Zero   RW          517    .bss                usart.o
    0x20000924        -       0x00000028   Zero   RW         3808    .bss                bsp_can.o
    0x2000094c        -       0x0000001e   Zero   RW         3861    .bss                bsp_usart.o
    0x2000096a   COMPRESSED   0x00000006   PAD
    0x20000970        -       0x00000450   Zero   RW         3994    .bss                stmgood.o
    0x20000dc0        -       0x00001054   Zero   RW         4411    .bss                judge.o
    0x20001e14        -       0x00000040   Zero   RW         4872    .bss                queue.o
    0x20001e54        -       0x000000f0   Zero   RW         5264    .bss                tasks.o
    0x20001f44        -       0x000000f0   Zero   RW         5582    .bss                timers.o
    0x20002034        -       0x00001f40   Zero   RW         6093    .bss                heap_4.o
    0x20003f74        -       0x00000018   Zero   RW         6246    .bss                mytask03.o
    0x20003f8c   COMPRESSED   0x00000004   PAD
    0x20003f90        -       0x00000400   Zero   RW            1    STACK               startup_stm32f407xx.o


==============================================================================

Image component sizes


      Code (inc. data)   RO Data    RW Data    ZI Data      Debug   Object Name

       936         16          0         44          0       6826   bmi088driver.o
       170         28          0          0          0       4640   bmi088middleware.o
       510         58          0          4         40       3962   bsp_can.o
       216         48          0          1         30       8821   bsp_usart.o
       432         46          0          4         80       2426   can.o
       120          0          0          0          0      25381   cmsis_os.o
       238         20        768          2          0       4552   crc.o
         0          0          0          0          0       7328   croutine.o
        76          4          0          0          0        758   dma.o
         0          0          0          0          0      21280   event_groups.o
       156         16        160         16       1208       3951   freertos.o
       372         34          0          0          0       1143   gpio.o
       460         24          0         24       8000       4663   heap_4.o
      7888        478        218        168       4180      34552   judge.o
       138          0          0          0          0       3434   list.o
       200          8          0          0          0     734620   main.o
        12          0          0          0          0        470   mytask02.o
        44         10          0          8         24       1673   mytask03.o
        16          0          0          0          0        474   mytask04.o
       786         82          0         12          0      11669   port.o
      1512         20          0          0         64      17064   queue.o
       968         52          0         20          0       2690   rm_task.o
       328         32          0          0        280       1851   spi.o
        36          8        392          0       1024        832   startup_stm32f407xx.o
       144         24          0         12          0       8605   stm32f4xx_hal.o
      1658          6          0          0          0      13807   stm32f4xx_hal_can.o
       198         14          0          0          0      33835   stm32f4xx_hal_cortex.o
       938         16          8          0          0       6278   stm32f4xx_hal_dma.o
       476         52          0          0          0       3456   stm32f4xx_hal_gpio.o
        56          4          0          0          0     700822   stm32f4xx_hal_msp.o
      1332         76          0          0          0       5084   stm32f4xx_hal_rcc.o
       846          8          0          0          0       4621   stm32f4xx_hal_spi.o
      1274         80          0          0          0      11434   stm32f4xx_hal_tim.o
         4          0          0          0          0       1529   stm32f4xx_hal_tim_ex.o
      1424         30          0          0          0      11374   stm32f4xx_hal_uart.o
       168         60          0          0          0       8730   stm32f4xx_it.o
      1746        308          0         72       1104      10178   stmgood.o
         0          0          0          0          0        448   stream_buffer.o
        84         18         24          4          0       1087   system_stm32f4xx.o
      2148        156          0         60        240      26336   tasks.o
       244         32          0          0         64       2246   tim.o
       952         80          0         20        240      32031   timers.o
       404         50          0          0        224       2478   usart.o

    ----------------------------------------------------------------------
     29760       1998       1604        480      16812    1789439   Object Totals
         0          0         32          0          0          0   (incl. Generated)
        50          0          2          9         10          0   (incl. Padding)

    ----------------------------------------------------------------------

      Code (inc. data)   RO Data    RW Data    ZI Data      Debug   Library Member Name

        86          0          0          0          0          0   __dczerorl2.o
         0          0          0          0          0          0   entry.o
         0          0          0          0          0          0   entry10a.o
         0          0          0          0          0          0   entry11a.o
         4          0          0          0          0          0   entry12b.o
         8          4          0          0          0          0   entry2.o
         4          0          0          0          0          0   entry5.o
         0          0          0          0          0          0   entry7b.o
         0          0          0          0          0          0   entry8b.o
         8          4          0          0          0          0   entry9a.o
        30          0          0          0          0          0   handlers.o
        36          8          0          0          0         68   init.o
         0          0          0          0          0          0   iusefp.o
        30          0          0          0          0         68   llshl.o
        36          0          0          0          0         68   llsshr.o
        32          0          0          0          0         68   llushr.o
        36          0          0          0          0         68   memcpya.o
        36          0          0          0          0        108   memseta.o
      2218         90          0          0          0        464   printfa.o
         0          0          0          4          0          0   stdout.o
        44          0          0          0          0         80   uidiv.o
        98          0          0          0          0         92   uldiv.o
        48          0          0          0          0         68   cdrcmple.o
        56          0          0          0          0         88   d2f.o
       334          0          0          0          0        148   dadd.o
       222          0          0          0          0        100   ddiv.o
       186          0          0          0          0        176   depilogue.o
        48          0          0          0          0         68   dfixul.o
        34          0          0          0          0         76   dflti.o
       228          0          0          0          0         96   dmul.o
        38          0          0          0          0         68   f2d.o
       110          0          0          0          0        168   fepilogue.o

    ----------------------------------------------------------------------
      4016        106          0          4          0       2140   Library Totals
         6          0          0          0          0          0   (incl. Padding)

    ----------------------------------------------------------------------

      Code (inc. data)   RO Data    RW Data    ZI Data      Debug   Library Name

      2706        106          0          4          0       1084   mc_w.l
      1304          0          0          0          0       1056   mf_w.l

    ----------------------------------------------------------------------
      4016        106          0          4          0       2140   Library Totals

    ----------------------------------------------------------------------

==============================================================================


      Code (inc. data)   RO Data    RW Data    ZI Data      Debug   

     33776       2104       1604        484      16812    1765023   Grand Totals
     33776       2104       1604        136      16812    1765023   ELF Image Totals (compressed)
     33776       2104       1604        136          0          0   ROM Totals

==============================================================================

    Total RO  Size (Code + RO Data)                35380 (  34.55kB)
    Total RW  Size (RW Data + ZI Data)             17296 (  16.89kB)
    Total ROM Size (Code + RO Data + RW Data)      35516 (  34.68kB)

==============================================================================

